{"contracts/DisputeResolver.sol":{"DisputeResolver":{"abi":[{"inputs":[{"internalType":"address","name":"_registry","type":"address"}],"stateMutability":"nonpayable","type":"constructor"},{"anonymous":false,"inputs":[{"indexed":true,"internalType":"bytes32","name":"disputeId","type":"bytes32"},{"indexed":false,"internalType":"address","name":"arbitrator","type":"address"},{"indexed":false,"internalType":"enum DisputeResolver.Resolution","name":"resolution","type":"uint8"}],"name":"ArbitratorVoted","type":"event"},{"anonymous":false,"inputs":[{"indexed":true,"internalType":"bytes32","name":"disputeId","type":"bytes32"},{"indexed":true,"internalType":"bytes32","name":"escrowId","type":"bytes32"},{"indexed":false,"internalType":"address","name":"claimant","type":"address"}],"name":"DisputeCreated","type":"event"},{"anonymous":false,"inputs":[{"indexed":true,"internalType":"bytes32","name":"disputeId","type":"bytes32"},{"indexed":false,"internalType":"enum DisputeResolver.Resolution","name":"finalResolution","type":"uint8"}],"name":"DisputeResolved","type":"event"},{"anonymous":false,"inputs":[{"indexed":true,"internalType":"bytes32","name":"disputeId","type":"bytes32"},{"indexed":false,"internalType":"address","name":"by","type":"address"},{"indexed":false,"internalType":"string","name":"evidenceCID","type":"string"}],"name":"EvidenceSubmitted","type":"event"},{"inputs":[{"internalType":"bytes32","name":"disputeId","type":"bytes32"},{"internalType":"address[]","name":"arbitratorsList","type":"address[]"}],"name":"assignArbitrators","outputs":[],"stateMutability":"nonpayable","type":"function"},{"inputs":[{"internalType":"bytes32","name":"","type":"bytes32"}],"name":"disputes","outputs":[{"internalType":"bytes32","name":"disputeId","type":"bytes32"},{"internalType":"bytes32","name":"escrowId","type":"bytes32"},{"internalType":"address","name":"claimant","type":"address"},{"internalType":"address","name":"respondent","type":"address"},{"internalType":"enum DisputeResolver.Resolution","name":"finalResolution","type":"uint8"},{"internalType":"enum DisputeResolver.DisputeState","name":"state","type":"uint8"},{"internalType":"uint256","name":"voteDeadlineBlock","type":"uint256"}],"stateMutability":"view","type":"function"},{"inputs":[{"internalType":"bytes32","name":"disputeId","type":"bytes32"}],"name":"finalizeResolution","outputs":[],"stateMutability":"nonpayable","type":"function"},{"inputs":[{"internalType":"bytes32","name":"escrowId","type":"bytes32"},{"internalType":"string","name":"evidenceCID","type":"string"},{"internalType":"address","name":"respondent","type":"address"}],"name":"openDispute","outputs":[{"internalType":"bytes32","name":"","type":"bytes32"}],"stateMutability":"nonpayable","type":"function"},{"inputs":[],"name":"owner","outputs":[{"internalType":"address","name":"","type":"address"}],"stateMutability":"view","type":"function"},{"inputs":[],"name":"registry","outputs":[{"internalType":"contract IAgentRegistry","name":"","type":"address"}],"stateMutability":"view","type":"function"},{"inputs":[{"internalType":"address","name":"_taskEscrow","type":"address"}],"name":"setTaskEscrow","outputs":[],"stateMutability":"nonpayable","type":"function"},{"inputs":[{"internalType":"bytes32","name":"disputeId","type":"bytes32"},{"internalType":"string","name":"evidenceCID","type":"string"}],"name":"submitEvidence","outputs":[],"stateMutability":"nonpayable","type":"function"},{"inputs":[],"name":"taskEscrow","outputs":[{"internalType":"address","name":"","type":"address"}],"stateMutability":"view","type":"function"},{"inputs":[{"internalType":"bytes32","name":"disputeId","type":"bytes32"},{"internalType":"enum DisputeResolver.Resolution","name":"resolution","type":"uint8"}],"name":"voteResolution","outputs":[],"stateMutability":"nonpayable","type":"function"}],"evm":{"bytecode":{"linkReferences":{},"object":"608060405234801561001057600080fd5b506040516110d23803806110d283398101604081905261002f91610062565b60008054336001600160a01b031991821617909155600280549091166001600160a01b0392909216919091179055610092565b60006020828403121561007457600080fd5b81516001600160a01b038116811461008b57600080fd5b9392505050565b611031806100a16000396000f3fe608060405234801561001057600080fd5b506004361061009e5760003560e01c80638da5cb5b116100665780638da5cb5b14610192578063da875013146101a5578063ea685565146101b8578063f48a0b31146101cb578063f96061dc146101de57600080fd5b806311be1997146100a357806327c4ffe11461011e5780634546ac3b14610149578063560e0bbd1461016a5780637b1039991461017f575b600080fd5b6101026100b1366004610b54565b6003602081905260009182526040909120805460018201546002830154938301546007840154600890940154929491936001600160a01b0392831693929091169160ff808316926101009004169087565b6040516101159796959493929190610b97565b60405180910390f35b600154610131906001600160a01b031681565b6040516001600160a01b039091168152602001610115565b61015c610157366004610c53565b6101f1565b604051908152602001610115565b61017d610178366004610cb1565b61034a565b005b600254610131906001600160a01b031681565b600054610131906001600160a01b031681565b61017d6101b3366004610d30565b610420565b61017d6101c6366004610b54565b610489565b61017d6101d9366004610d52565b610782565b61017d6101ec366004610d9e565b6108bd565b6001546000906001600160a01b031633146102455760405162461bcd60e51b815260206004820152600f60248201526e4f6e6c79205461736b457363726f7760881b60448201526064015b60405180910390fd5b60008542604051602001610263929190918252602082015260400190565b60408051808303601f19018152918152815160209283012060008181526003938490529190912081815560018101899055600281018054336001600160a01b03199182161790915592810180549093166001600160a01b0387161790925560078201805461ff00191661010017905591506102e14362015180610de8565b60088201556004810180546001810182556000918252602090912001610308868883610ea0565b50604051338152879083907fa9af648f2ead9f270721a0fc17ef4605b58f84fd530ace72198ae48efda9f16d9060200160405180910390a35095945050505050565b6000546001600160a01b031633146103915760405162461bcd60e51b815260206004820152600a60248201526927b7363c9037bbb732b960b11b604482015260640161023c565b600083815260036020526040902060016007820154610100900460ff1660048111156103bf576103bf610b6d565b146103fc5760405162461bcd60e51b815260206004820152600d60248201526c496e76616c696420737461746560981b604482015260640161023c565b61040a600582018484610adc565b50600701805461ff001916610200179055505050565b6000546001600160a01b031633146104675760405162461bcd60e51b815260206004820152600a60248201526927b7363c9037bbb732b960b11b604482015260640161023c565b600180546001600160a01b0319166001600160a01b0392909216919091179055565b600081815260036020526040902060026007820154610100900460ff1660048111156104b7576104b7610b6d565b146104fa5760405162461bcd60e51b81526020600482015260136024820152724e6f7420696e20766f74696e6720706861736560681b604482015260640161023c565b8060080154431161054d5760405162461bcd60e51b815260206004820152601760248201527f566f74696e67206e6f74207965742066696e6973686564000000000000000000604482015260640161023c565b6000806000805b600585015481101561063757600085600601600087600501848154811061057d5761057d610f61565b60009182526020808320909101546001600160a01b0316835282019290925260400190205460ff16905060018160038111156105bb576105bb610b6d565b036105d257846105ca81610f77565b955050610624565b60028160038111156105e6576105e6610b6d565b036105fd57836105f581610f77565b945050610624565b600381600381111561061157610611610b6d565b03610624578261062081610f77565b9350505b508061062f81610f77565b915050610554565b50818311801561064657508083115b15610666576007840180546001919060ff191682805b021790555061069f565b828211801561067457508082115b1561068f576007840180546002919060ff191660018361065c565b60078401805460ff191660031790555b60078401805461030061ff001982161790915560018054908601546001600160a01b039091169163b641237c919060ff1660038111156106e1576106e1610b6d565b6040516001600160e01b031960e085901b168152600481019290925260ff166024820152604401600060405180830381600087803b15801561072257600080fd5b505af1158015610736573d6000803e3d6000fd5b50505050600784015460405186917f0a168b993fc74606982b54f62facd64a9642fc31797b78c5b503b4116f3c8388916107739160ff1690610f90565b60405180910390a25050505050565b600083815260036020526040902060016007820154610100900460ff1660048111156107b0576107b0610b6d565b146107f65760405162461bcd60e51b81526020600482015260166024820152754e6f7420676174686572696e672065766964656e636560501b604482015260640161023c565b60028101546001600160a01b031633148061081d575060038101546001600160a01b031633145b6108585760405162461bcd60e51b815260206004820152600c60248201526b139bdd081a5b9d9bdb1d995960a21b604482015260640161023c565b600481018054600181018255600091825260209091200161087a838583610ea0565b50837f1e6474820c020bb520fb11114c39535d390708f81e19f7661698a4686193447a3385856040516108af93929190610f9e565b60405180910390a250505050565b600082815260036020526040902060026007820154610100900460ff1660048111156108eb576108eb610b6d565b1461092b5760405162461bcd60e51b815260206004820152601060248201526f4e6f7420766f74696e6720506861736560801b604482015260640161023c565b806008015443111561096e5760405162461bcd60e51b815260206004820152600c60248201526b159bdd1a5b99c8195b99195960a21b604482015260640161023c565b6000805b60058301548110156109d257336001600160a01b031683600501828154811061099d5761099d610f61565b6000918252602090912001546001600160a01b0316036109c057600191506109d2565b806109ca81610f77565b915050610972565b5080610a145760405162461bcd60e51b81526020600482015260116024820152702737ba1030b71030b93134ba3930ba37b960791b604482015260640161023c565b33600090815260068301602052604081205460ff166003811115610a3a57610a3a610b6d565b14610a775760405162461bcd60e51b815260206004820152600d60248201526c105b1c9958591e481d9bdd1959609a1b604482015260640161023c565b3360009081526006830160205260409020805484919060ff19166001836003811115610aa557610aa5610b6d565b0217905550837fa12977bd8466586feb0196546076091faa7704bbf3f4ee5bb32a8222805bed7b33856040516108af929190610fde565b828054828255906000526020600020908101928215610b2f579160200282015b82811115610b2f5781546001600160a01b0319166001600160a01b03843516178255602090920191600190910190610afc565b50610b3b929150610b3f565b5090565b5b80821115610b3b5760008155600101610b40565b600060208284031215610b6657600080fd5b5035919050565b634e487b7160e01b600052602160045260246000fd5b60048110610b9357610b93610b6d565b9052565b878152602081018790526001600160a01b0386811660408301528516606082015260e08101610bc96080830186610b83565b60058410610bd957610bd9610b6d565b60a082019390935260c0015295945050505050565b60008083601f840112610c0057600080fd5b50813567ffffffffffffffff811115610c1857600080fd5b602083019150836020828501011115610c3057600080fd5b9250929050565b80356001600160a01b0381168114610c4e57600080fd5b919050565b60008060008060608587031215610c6957600080fd5b84359350602085013567ffffffffffffffff811115610c8757600080fd5b610c9387828801610bee565b9094509250610ca6905060408601610c37565b905092959194509250565b600080600060408486031215610cc657600080fd5b83359250602084013567ffffffffffffffff80821115610ce557600080fd5b818601915086601f830112610cf957600080fd5b813581811115610d0857600080fd5b8760208260051b8501011115610d1d57600080fd5b6020830194508093505050509250925092565b600060208284031215610d4257600080fd5b610d4b82610c37565b9392505050565b600080600060408486031215610d6757600080fd5b83359250602084013567ffffffffffffffff811115610d8557600080fd5b610d9186828701610bee565b9497909650939450505050565b60008060408385031215610db157600080fd5b82359150602083013560048110610dc757600080fd5b809150509250929050565b634e487b7160e01b600052601160045260246000fd5b80820180821115610dfb57610dfb610dd2565b92915050565b634e487b7160e01b600052604160045260246000fd5b600181811c90821680610e2b57607f821691505b602082108103610e4b57634e487b7160e01b600052602260045260246000fd5b50919050565b601f821115610e9b57600081815260208120601f850160051c81016020861015610e785750805b601f850160051c820191505b81811015610e9757828155600101610e84565b5050505b505050565b67ffffffffffffffff831115610eb857610eb8610e01565b610ecc83610ec68354610e17565b83610e51565b6000601f841160018114610f005760008515610ee85750838201355b600019600387901b1c1916600186901b178355610f5a565b600083815260209020601f19861690835b82811015610f315786850135825560209485019460019092019101610f11565b5086821015610f4e5760001960f88860031b161c19848701351681555b505060018560011b0183555b5050505050565b634e487b7160e01b600052603260045260246000fd5b600060018201610f8957610f89610dd2565b5060010190565b60208101610dfb8284610b83565b6001600160a01b03841681526040602082018190528101829052818360608301376000818301606090810191909152601f909201601f1916010192915050565b6001600160a01b038316815260408101610d4b6020830184610b8356fea26469706673582212205adb81af1f54c0d56dfa5a40c2c089054dc7b09041f2240bf73c8b3e6a8dd06864736f6c63430008140033","opcodes":"PUSH1 0x80 PUSH1 0x40 MSTORE CALLVALUE DUP1 ISZERO PUSH2 0x10 JUMPI PUSH1 0x0 DUP1 REVERT JUMPDEST POP PUSH1 0x40 MLOAD PUSH2 0x10D2 CODESIZE SUB DUP1 PUSH2 0x10D2 DUP4 CODECOPY DUP2 ADD PUSH1 0x40 DUP2 SWAP1 MSTORE PUSH2 0x2F SWAP2 PUSH2 0x62 JUMP JUMPDEST PUSH1 0x0 DUP1 SLOAD CALLER PUSH1 0x1 PUSH1 0x1 PUSH1 0xA0 SHL SUB NOT SWAP2 DUP3 AND OR SWAP1 SWAP2 SSTORE PUSH1 0x2 DUP1 SLOAD SWAP1 SWAP2 AND PUSH1 0x1 PUSH1 0x1 PUSH1 0xA0 SHL SUB SWAP3 SWAP1 SWAP3 AND SWAP2 SWAP1 SWAP2 OR SWAP1 SSTORE PUSH2 0x92 JUMP JUMPDEST PUSH1 0x0 PUSH1 0x20 DUP3 DUP5 SUB SLT ISZERO PUSH2 0x74 JUMPI PUSH1 0x0 DUP1 REVERT JUMPDEST DUP2 MLOAD PUSH1 0x1 PUSH1 0x1 PUSH1 0xA0 SHL SUB DUP2 AND DUP2 EQ PUSH2 0x8B JUMPI PUSH1 0x0 DUP1 REVERT JUMPDEST SWAP4 SWAP3 POP POP POP JUMP JUMPDEST PUSH2 0x1031 DUP1 PUSH2 0xA1 PUSH1 0x0 CODECOPY PUSH1 0x0 RETURN INVALID PUSH1 0x80 PUSH1 0x40 MSTORE CALLVALUE DUP1 ISZERO PUSH2 0x10 JUMPI PUSH1 0x0 DUP1 REVERT JUMPDEST POP PUSH1 0x4 CALLDATASIZE LT PUSH2 0x9E JUMPI PUSH1 0x0 CALLDATALOAD PUSH1 0xE0 SHR DUP1 PUSH4 0x8DA5CB5B GT PUSH2 0x66 JUMPI DUP1 PUSH4 0x8DA5CB5B EQ PUSH2 0x192 JUMPI DUP1 PUSH4 0xDA875013 EQ PUSH2 0x1A5 JUMPI DUP1 PUSH4 0xEA685565 EQ PUSH2 0x1B8 JUMPI DUP1 PUSH4 0xF48A0B31 EQ PUSH2 0x1CB JUMPI DUP1 PUSH4 0xF96061DC EQ PUSH2 0x1DE JUMPI PUSH1 0x0 DUP1 REVERT JUMPDEST DUP1 PUSH4 0x11BE1997 EQ PUSH2 0xA3 JUMPI DUP1 PUSH4 0x27C4FFE1 EQ PUSH2 0x11E JUMPI DUP1 PUSH4 0x4546AC3B EQ PUSH2 0x149 JUMPI DUP1 PUSH4 0x560E0BBD EQ PUSH2 0x16A JUMPI DUP1 PUSH4 0x7B103999 EQ PUSH2 0x17F JUMPI JUMPDEST PUSH1 0x0 DUP1 REVERT JUMPDEST PUSH2 0x102 PUSH2 0xB1 CALLDATASIZE PUSH1 0x4 PUSH2 0xB54 JUMP JUMPDEST PUSH1 0x3 PUSH1 0x20 DUP2 SWAP1 MSTORE PUSH1 0x0 SWAP2 DUP3 MSTORE PUSH1 0x40 SWAP1 SWAP2 KECCAK256 DUP1 SLOAD PUSH1 0x1 DUP3 ADD SLOAD PUSH1 0x2 DUP4 ADD SLOAD SWAP4 DUP4 ADD SLOAD PUSH1 0x7 DUP5 ADD SLOAD PUSH1 0x8 SWAP1 SWAP5 ADD SLOAD SWAP3 SWAP5 SWAP2 SWAP4 PUSH1 0x1 PUSH1 0x1 PUSH1 0xA0 SHL SUB SWAP3 DUP4 AND SWAP4 SWAP3 SWAP1 SWAP2 AND SWAP2 PUSH1 0xFF DUP1 DUP4 AND SWAP3 PUSH2 0x100 SWAP1 DIV AND SWAP1 DUP8 JUMP JUMPDEST PUSH1 0x40 MLOAD PUSH2 0x115 SWAP8 SWAP7 SWAP6 SWAP5 SWAP4 SWAP3 SWAP2 SWAP1 PUSH2 0xB97 JUMP JUMPDEST PUSH1 0x40 MLOAD DUP1 SWAP2 SUB SWAP1 RETURN JUMPDEST PUSH1 0x1 SLOAD PUSH2 0x131 SWAP1 PUSH1 0x1 PUSH1 0x1 PUSH1 0xA0 SHL SUB AND DUP2 JUMP JUMPDEST PUSH1 0x40 MLOAD PUSH1 0x1 PUSH1 0x1 PUSH1 0xA0 SHL SUB SWAP1 SWAP2 AND DUP2 MSTORE PUSH1 0x20 ADD PUSH2 0x115 JUMP JUMPDEST PUSH2 0x15C PUSH2 0x157 CALLDATASIZE PUSH1 0x4 PUSH2 0xC53 JUMP JUMPDEST PUSH2 0x1F1 JUMP JUMPDEST PUSH1 0x40 MLOAD SWAP1 DUP2 MSTORE PUSH1 0x20 ADD PUSH2 0x115 JUMP JUMPDEST PUSH2 0x17D PUSH2 0x178 CALLDATASIZE PUSH1 0x4 PUSH2 0xCB1 JUMP JUMPDEST PUSH2 0x34A JUMP JUMPDEST STOP JUMPDEST PUSH1 0x2 SLOAD PUSH2 0x131 SWAP1 PUSH1 0x1 PUSH1 0x1 PUSH1 0xA0 SHL SUB AND DUP2 JUMP JUMPDEST PUSH1 0x0 SLOAD PUSH2 0x131 SWAP1 PUSH1 0x1 PUSH1 0x1 PUSH1 0xA0 SHL SUB AND DUP2 JUMP JUMPDEST PUSH2 0x17D PUSH2 0x1B3 CALLDATASIZE PUSH1 0x4 PUSH2 0xD30 JUMP JUMPDEST PUSH2 0x420 JUMP JUMPDEST PUSH2 0x17D PUSH2 0x1C6 CALLDATASIZE PUSH1 0x4 PUSH2 0xB54 JUMP JUMPDEST PUSH2 0x489 JUMP JUMPDEST PUSH2 0x17D PUSH2 0x1D9 CALLDATASIZE PUSH1 0x4 PUSH2 0xD52 JUMP JUMPDEST PUSH2 0x782 JUMP JUMPDEST PUSH2 0x17D PUSH2 0x1EC CALLDATASIZE PUSH1 0x4 PUSH2 0xD9E JUMP JUMPDEST PUSH2 0x8BD JUMP JUMPDEST PUSH1 0x1 SLOAD PUSH1 0x0 SWAP1 PUSH1 0x1 PUSH1 0x1 PUSH1 0xA0 SHL SUB AND CALLER EQ PUSH2 0x245 JUMPI PUSH1 0x40 MLOAD PUSH3 0x461BCD PUSH1 0xE5 SHL DUP2 MSTORE PUSH1 0x20 PUSH1 0x4 DUP3 ADD MSTORE PUSH1 0xF PUSH1 0x24 DUP3 ADD MSTORE PUSH15 0x4F6E6C79205461736B457363726F77 PUSH1 0x88 SHL PUSH1 0x44 DUP3 ADD MSTORE PUSH1 0x64 ADD JUMPDEST PUSH1 0x40 MLOAD DUP1 SWAP2 SUB SWAP1 REVERT JUMPDEST PUSH1 0x0 DUP6 TIMESTAMP PUSH1 0x40 MLOAD PUSH1 0x20 ADD PUSH2 0x263 SWAP3 SWAP2 SWAP1 SWAP2 DUP3 MSTORE PUSH1 0x20 DUP3 ADD MSTORE PUSH1 0x40 ADD SWAP1 JUMP JUMPDEST PUSH1 0x40 DUP1 MLOAD DUP1 DUP4 SUB PUSH1 0x1F NOT ADD DUP2 MSTORE SWAP2 DUP2 MSTORE DUP2 MLOAD PUSH1 0x20 SWAP3 DUP4 ADD KECCAK256 PUSH1 0x0 DUP2 DUP2 MSTORE PUSH1 0x3 SWAP4 DUP5 SWAP1 MSTORE SWAP2 SWAP1 SWAP2 KECCAK256 DUP2 DUP2 SSTORE PUSH1 0x1 DUP2 ADD DUP10 SWAP1 SSTORE PUSH1 0x2 DUP2 ADD DUP1 SLOAD CALLER PUSH1 0x1 PUSH1 0x1 PUSH1 0xA0 SHL SUB NOT SWAP2 DUP3 AND OR SWAP1 SWAP2 SSTORE SWAP3 DUP2 ADD DUP1 SLOAD SWAP1 SWAP4 AND PUSH1 0x1 PUSH1 0x1 PUSH1 0xA0 SHL SUB DUP8 AND OR SWAP1 SWAP3 SSTORE PUSH1 0x7 DUP3 ADD DUP1 SLOAD PUSH2 0xFF00 NOT AND PUSH2 0x100 OR SWAP1 SSTORE SWAP2 POP PUSH2 0x2E1 NUMBER PUSH3 0x15180 PUSH2 0xDE8 JUMP JUMPDEST PUSH1 0x8 DUP3 ADD SSTORE PUSH1 0x4 DUP2 ADD DUP1 SLOAD PUSH1 0x1 DUP2 ADD DUP3 SSTORE PUSH1 0x0 SWAP2 DUP3 MSTORE PUSH1 0x20 SWAP1 SWAP2 KECCAK256 ADD PUSH2 0x308 DUP7 DUP9 DUP4 PUSH2 0xEA0 JUMP JUMPDEST POP PUSH1 0x40 MLOAD CALLER DUP2 MSTORE DUP8 SWAP1 DUP4 SWAP1 PUSH32 0xA9AF648F2EAD9F270721A0FC17EF4605B58F84FD530ACE72198AE48EFDA9F16D SWAP1 PUSH1 0x20 ADD PUSH1 0x40 MLOAD DUP1 SWAP2 SUB SWAP1 LOG3 POP SWAP6 SWAP5 POP POP POP POP POP JUMP JUMPDEST PUSH1 0x0 SLOAD PUSH1 0x1 PUSH1 0x1 PUSH1 0xA0 SHL SUB AND CALLER EQ PUSH2 0x391 JUMPI PUSH1 0x40 MLOAD PUSH3 0x461BCD PUSH1 0xE5 SHL DUP2 MSTORE PUSH1 0x20 PUSH1 0x4 DUP3 ADD MSTORE PUSH1 0xA PUSH1 0x24 DUP3 ADD MSTORE PUSH10 0x27B7363C9037BBB732B9 PUSH1 0xB1 SHL PUSH1 0x44 DUP3 ADD MSTORE PUSH1 0x64 ADD PUSH2 0x23C JUMP JUMPDEST PUSH1 0x0 DUP4 DUP2 MSTORE PUSH1 0x3 PUSH1 0x20 MSTORE PUSH1 0x40 SWAP1 KECCAK256 PUSH1 0x1 PUSH1 0x7 DUP3 ADD SLOAD PUSH2 0x100 SWAP1 DIV PUSH1 0xFF AND PUSH1 0x4 DUP2 GT ISZERO PUSH2 0x3BF JUMPI PUSH2 0x3BF PUSH2 0xB6D JUMP JUMPDEST EQ PUSH2 0x3FC JUMPI PUSH1 0x40 MLOAD PUSH3 0x461BCD PUSH1 0xE5 SHL DUP2 MSTORE PUSH1 0x20 PUSH1 0x4 DUP3 ADD MSTORE PUSH1 0xD PUSH1 0x24 DUP3 ADD MSTORE PUSH13 0x496E76616C6964207374617465 PUSH1 0x98 SHL PUSH1 0x44 DUP3 ADD MSTORE PUSH1 0x64 ADD PUSH2 0x23C JUMP JUMPDEST PUSH2 0x40A PUSH1 0x5 DUP3 ADD DUP5 DUP5 PUSH2 0xADC JUMP JUMPDEST POP PUSH1 0x7 ADD DUP1 SLOAD PUSH2 0xFF00 NOT AND PUSH2 0x200 OR SWAP1 SSTORE POP POP POP JUMP JUMPDEST PUSH1 0x0 SLOAD PUSH1 0x1 PUSH1 0x1 PUSH1 0xA0 SHL SUB AND CALLER EQ PUSH2 0x467 JUMPI PUSH1 0x40 MLOAD PUSH3 0x461BCD PUSH1 0xE5 SHL DUP2 MSTORE PUSH1 0x20 PUSH1 0x4 DUP3 ADD MSTORE PUSH1 0xA PUSH1 0x24 DUP3 ADD MSTORE PUSH10 0x27B7363C9037BBB732B9 PUSH1 0xB1 SHL PUSH1 0x44 DUP3 ADD MSTORE PUSH1 0x64 ADD PUSH2 0x23C JUMP JUMPDEST PUSH1 0x1 DUP1 SLOAD PUSH1 0x1 PUSH1 0x1 PUSH1 0xA0 SHL SUB NOT AND PUSH1 0x1 PUSH1 0x1 PUSH1 0xA0 SHL SUB SWAP3 SWAP1 SWAP3 AND SWAP2 SWAP1 SWAP2 OR SWAP1 SSTORE JUMP JUMPDEST PUSH1 0x0 DUP2 DUP2 MSTORE PUSH1 0x3 PUSH1 0x20 MSTORE PUSH1 0x40 SWAP1 KECCAK256 PUSH1 0x2 PUSH1 0x7 DUP3 ADD SLOAD PUSH2 0x100 SWAP1 DIV PUSH1 0xFF AND PUSH1 0x4 DUP2 GT ISZERO PUSH2 0x4B7 JUMPI PUSH2 0x4B7 PUSH2 0xB6D JUMP JUMPDEST EQ PUSH2 0x4FA JUMPI PUSH1 0x40 MLOAD PUSH3 0x461BCD PUSH1 0xE5 SHL DUP2 MSTORE PUSH1 0x20 PUSH1 0x4 DUP3 ADD MSTORE PUSH1 0x13 PUSH1 0x24 DUP3 ADD MSTORE PUSH19 0x4E6F7420696E20766F74696E67207068617365 PUSH1 0x68 SHL PUSH1 0x44 DUP3 ADD MSTORE PUSH1 0x64 ADD PUSH2 0x23C JUMP JUMPDEST DUP1 PUSH1 0x8 ADD SLOAD NUMBER GT PUSH2 0x54D JUMPI PUSH1 0x40 MLOAD PUSH3 0x461BCD PUSH1 0xE5 SHL DUP2 MSTORE PUSH1 0x20 PUSH1 0x4 DUP3 ADD MSTORE PUSH1 0x17 PUSH1 0x24 DUP3 ADD MSTORE PUSH32 0x566F74696E67206E6F74207965742066696E6973686564000000000000000000 PUSH1 0x44 DUP3 ADD MSTORE PUSH1 0x64 ADD PUSH2 0x23C JUMP JUMPDEST PUSH1 0x0 DUP1 PUSH1 0x0 DUP1 JUMPDEST PUSH1 0x5 DUP6 ADD SLOAD DUP2 LT ISZERO PUSH2 0x637 JUMPI PUSH1 0x0 DUP6 PUSH1 0x6 ADD PUSH1 0x0 DUP8 PUSH1 0x5 ADD DUP5 DUP2 SLOAD DUP2 LT PUSH2 0x57D JUMPI PUSH2 0x57D PUSH2 0xF61 JUMP JUMPDEST PUSH1 0x0 SWAP2 DUP3 MSTORE PUSH1 0x20 DUP1 DUP4 KECCAK256 SWAP1 SWAP2 ADD SLOAD PUSH1 0x1 PUSH1 0x1 PUSH1 0xA0 SHL SUB AND DUP4 MSTORE DUP3 ADD SWAP3 SWAP1 SWAP3 MSTORE PUSH1 0x40 ADD SWAP1 KECCAK256 SLOAD PUSH1 0xFF AND SWAP1 POP PUSH1 0x1 DUP2 PUSH1 0x3 DUP2 GT ISZERO PUSH2 0x5BB JUMPI PUSH2 0x5BB PUSH2 0xB6D JUMP JUMPDEST SUB PUSH2 0x5D2 JUMPI DUP5 PUSH2 0x5CA DUP2 PUSH2 0xF77 JUMP JUMPDEST SWAP6 POP POP PUSH2 0x624 JUMP JUMPDEST PUSH1 0x2 DUP2 PUSH1 0x3 DUP2 GT ISZERO PUSH2 0x5E6 JUMPI PUSH2 0x5E6 PUSH2 0xB6D JUMP JUMPDEST SUB PUSH2 0x5FD JUMPI DUP4 PUSH2 0x5F5 DUP2 PUSH2 0xF77 JUMP JUMPDEST SWAP5 POP POP PUSH2 0x624 JUMP JUMPDEST PUSH1 0x3 DUP2 PUSH1 0x3 DUP2 GT ISZERO PUSH2 0x611 JUMPI PUSH2 0x611 PUSH2 0xB6D JUMP JUMPDEST SUB PUSH2 0x624 JUMPI DUP3 PUSH2 0x620 DUP2 PUSH2 0xF77 JUMP JUMPDEST SWAP4 POP POP JUMPDEST POP DUP1 PUSH2 0x62F DUP2 PUSH2 0xF77 JUMP JUMPDEST SWAP2 POP POP PUSH2 0x554 JUMP JUMPDEST POP DUP2 DUP4 GT DUP1 ISZERO PUSH2 0x646 JUMPI POP DUP1 DUP4 GT JUMPDEST ISZERO PUSH2 0x666 JUMPI PUSH1 0x7 DUP5 ADD DUP1 SLOAD PUSH1 0x1 SWAP2 SWAP1 PUSH1 0xFF NOT AND DUP3 DUP1 JUMPDEST MUL OR SWAP1 SSTORE POP PUSH2 0x69F JUMP JUMPDEST DUP3 DUP3 GT DUP1 ISZERO PUSH2 0x674 JUMPI POP DUP1 DUP3 GT JUMPDEST ISZERO PUSH2 0x68F JUMPI PUSH1 0x7 DUP5 ADD DUP1 SLOAD PUSH1 0x2 SWAP2 SWAP1 PUSH1 0xFF NOT AND PUSH1 0x1 DUP4 PUSH2 0x65C JUMP JUMPDEST PUSH1 0x7 DUP5 ADD DUP1 SLOAD PUSH1 0xFF NOT AND PUSH1 0x3 OR SWAP1 SSTORE JUMPDEST PUSH1 0x7 DUP5 ADD DUP1 SLOAD PUSH2 0x300 PUSH2 0xFF00 NOT DUP3 AND OR SWAP1 SWAP2 SSTORE PUSH1 0x1 DUP1 SLOAD SWAP1 DUP7 ADD SLOAD PUSH1 0x1 PUSH1 0x1 PUSH1 0xA0 SHL SUB SWAP1 SWAP2 AND SWAP2 PUSH4 0xB641237C SWAP2 SWAP1 PUSH1 0xFF AND PUSH1 0x3 DUP2 GT ISZERO PUSH2 0x6E1 JUMPI PUSH2 0x6E1 PUSH2 0xB6D JUMP JUMPDEST PUSH1 0x40 MLOAD PUSH1 0x1 PUSH1 0x1 PUSH1 0xE0 SHL SUB NOT PUSH1 0xE0 DUP6 SWAP1 SHL AND DUP2 MSTORE PUSH1 0x4 DUP2 ADD SWAP3 SWAP1 SWAP3 MSTORE PUSH1 0xFF AND PUSH1 0x24 DUP3 ADD MSTORE PUSH1 0x44 ADD PUSH1 0x0 PUSH1 0x40 MLOAD DUP1 DUP4 SUB DUP2 PUSH1 0x0 DUP8 DUP1 EXTCODESIZE ISZERO DUP1 ISZERO PUSH2 0x722 JUMPI PUSH1 0x0 DUP1 REVERT JUMPDEST POP GAS CALL ISZERO DUP1 ISZERO PUSH2 0x736 JUMPI RETURNDATASIZE PUSH1 0x0 DUP1 RETURNDATACOPY RETURNDATASIZE PUSH1 0x0 REVERT JUMPDEST POP POP POP POP PUSH1 0x7 DUP5 ADD SLOAD PUSH1 0x40 MLOAD DUP7 SWAP2 PUSH32 0xA168B993FC74606982B54F62FACD64A9642FC31797B78C5B503B4116F3C8388 SWAP2 PUSH2 0x773 SWAP2 PUSH1 0xFF AND SWAP1 PUSH2 0xF90 JUMP JUMPDEST PUSH1 0x40 MLOAD DUP1 SWAP2 SUB SWAP1 LOG2 POP POP POP POP POP JUMP JUMPDEST PUSH1 0x0 DUP4 DUP2 MSTORE PUSH1 0x3 PUSH1 0x20 MSTORE PUSH1 0x40 SWAP1 KECCAK256 PUSH1 0x1 PUSH1 0x7 DUP3 ADD SLOAD PUSH2 0x100 SWAP1 DIV PUSH1 0xFF AND PUSH1 0x4 DUP2 GT ISZERO PUSH2 0x7B0 JUMPI PUSH2 0x7B0 PUSH2 0xB6D JUMP JUMPDEST EQ PUSH2 0x7F6 JUMPI PUSH1 0x40 MLOAD PUSH3 0x461BCD PUSH1 0xE5 SHL DUP2 MSTORE PUSH1 0x20 PUSH1 0x4 DUP3 ADD MSTORE PUSH1 0x16 PUSH1 0x24 DUP3 ADD MSTORE PUSH22 0x4E6F7420676174686572696E672065766964656E6365 PUSH1 0x50 SHL PUSH1 0x44 DUP3 ADD MSTORE PUSH1 0x64 ADD PUSH2 0x23C JUMP JUMPDEST PUSH1 0x2 DUP2 ADD SLOAD PUSH1 0x1 PUSH1 0x1 PUSH1 0xA0 SHL SUB AND CALLER EQ DUP1 PUSH2 0x81D JUMPI POP PUSH1 0x3 DUP2 ADD SLOAD PUSH1 0x1 PUSH1 0x1 PUSH1 0xA0 SHL SUB AND CALLER EQ JUMPDEST PUSH2 0x858 JUMPI PUSH1 0x40 MLOAD PUSH3 0x461BCD PUSH1 0xE5 SHL DUP2 MSTORE PUSH1 0x20 PUSH1 0x4 DUP3 ADD MSTORE PUSH1 0xC PUSH1 0x24 DUP3 ADD MSTORE PUSH12 0x139BDD081A5B9D9BDB1D9959 PUSH1 0xA2 SHL PUSH1 0x44 DUP3 ADD MSTORE PUSH1 0x64 ADD PUSH2 0x23C JUMP JUMPDEST PUSH1 0x4 DUP2 ADD DUP1 SLOAD PUSH1 0x1 DUP2 ADD DUP3 SSTORE PUSH1 0x0 SWAP2 DUP3 MSTORE PUSH1 0x20 SWAP1 SWAP2 KECCAK256 ADD PUSH2 0x87A DUP4 DUP6 DUP4 PUSH2 0xEA0 JUMP JUMPDEST POP DUP4 PUSH32 0x1E6474820C020BB520FB11114C39535D390708F81E19F7661698A4686193447A CALLER DUP6 DUP6 PUSH1 0x40 MLOAD PUSH2 0x8AF SWAP4 SWAP3 SWAP2 SWAP1 PUSH2 0xF9E JUMP JUMPDEST PUSH1 0x40 MLOAD DUP1 SWAP2 SUB SWAP1 LOG2 POP POP POP POP JUMP JUMPDEST PUSH1 0x0 DUP3 DUP2 MSTORE PUSH1 0x3 PUSH1 0x20 MSTORE PUSH1 0x40 SWAP1 KECCAK256 PUSH1 0x2 PUSH1 0x7 DUP3 ADD SLOAD PUSH2 0x100 SWAP1 DIV PUSH1 0xFF AND PUSH1 0x4 DUP2 GT ISZERO PUSH2 0x8EB JUMPI PUSH2 0x8EB PUSH2 0xB6D JUMP JUMPDEST EQ PUSH2 0x92B JUMPI PUSH1 0x40 MLOAD PUSH3 0x461BCD PUSH1 0xE5 SHL DUP2 MSTORE PUSH1 0x20 PUSH1 0x4 DUP3 ADD MSTORE PUSH1 0x10 PUSH1 0x24 DUP3 ADD MSTORE PUSH16 0x4E6F7420766F74696E67205068617365 PUSH1 0x80 SHL PUSH1 0x44 DUP3 ADD MSTORE PUSH1 0x64 ADD PUSH2 0x23C JUMP JUMPDEST DUP1 PUSH1 0x8 ADD SLOAD NUMBER GT ISZERO PUSH2 0x96E JUMPI PUSH1 0x40 MLOAD PUSH3 0x461BCD PUSH1 0xE5 SHL DUP2 MSTORE PUSH1 0x20 PUSH1 0x4 DUP3 ADD MSTORE PUSH1 0xC PUSH1 0x24 DUP3 ADD MSTORE PUSH12 0x159BDD1A5B99C8195B991959 PUSH1 0xA2 SHL PUSH1 0x44 DUP3 ADD MSTORE PUSH1 0x64 ADD PUSH2 0x23C JUMP JUMPDEST PUSH1 0x0 DUP1 JUMPDEST PUSH1 0x5 DUP4 ADD SLOAD DUP2 LT ISZERO PUSH2 0x9D2 JUMPI CALLER PUSH1 0x1 PUSH1 0x1 PUSH1 0xA0 SHL SUB AND DUP4 PUSH1 0x5 ADD DUP3 DUP2 SLOAD DUP2 LT PUSH2 0x99D JUMPI PUSH2 0x99D PUSH2 0xF61 JUMP JUMPDEST PUSH1 0x0 SWAP2 DUP3 MSTORE PUSH1 0x20 SWAP1 SWAP2 KECCAK256 ADD SLOAD PUSH1 0x1 PUSH1 0x1 PUSH1 0xA0 SHL SUB AND SUB PUSH2 0x9C0 JUMPI PUSH1 0x1 SWAP2 POP PUSH2 0x9D2 JUMP JUMPDEST DUP1 PUSH2 0x9CA DUP2 PUSH2 0xF77 JUMP JUMPDEST SWAP2 POP POP PUSH2 0x972 JUMP JUMPDEST POP DUP1 PUSH2 0xA14 JUMPI PUSH1 0x40 MLOAD PUSH3 0x461BCD PUSH1 0xE5 SHL DUP2 MSTORE PUSH1 0x20 PUSH1 0x4 DUP3 ADD MSTORE PUSH1 0x11 PUSH1 0x24 DUP3 ADD MSTORE PUSH17 0x2737BA1030B71030B93134BA3930BA37B9 PUSH1 0x79 SHL PUSH1 0x44 DUP3 ADD MSTORE PUSH1 0x64 ADD PUSH2 0x23C JUMP JUMPDEST CALLER PUSH1 0x0 SWAP1 DUP2 MSTORE PUSH1 0x6 DUP4 ADD PUSH1 0x20 MSTORE PUSH1 0x40 DUP2 KECCAK256 SLOAD PUSH1 0xFF AND PUSH1 0x3 DUP2 GT ISZERO PUSH2 0xA3A JUMPI PUSH2 0xA3A PUSH2 0xB6D JUMP JUMPDEST EQ PUSH2 0xA77 JUMPI PUSH1 0x40 MLOAD PUSH3 0x461BCD PUSH1 0xE5 SHL DUP2 MSTORE PUSH1 0x20 PUSH1 0x4 DUP3 ADD MSTORE PUSH1 0xD PUSH1 0x24 DUP3 ADD MSTORE PUSH13 0x105B1C9958591E481D9BDD1959 PUSH1 0x9A SHL PUSH1 0x44 DUP3 ADD MSTORE PUSH1 0x64 ADD PUSH2 0x23C JUMP JUMPDEST CALLER PUSH1 0x0 SWAP1 DUP2 MSTORE PUSH1 0x6 DUP4 ADD PUSH1 0x20 MSTORE PUSH1 0x40 SWAP1 KECCAK256 DUP1 SLOAD DUP5 SWAP2 SWAP1 PUSH1 0xFF NOT AND PUSH1 0x1 DUP4 PUSH1 0x3 DUP2 GT ISZERO PUSH2 0xAA5 JUMPI PUSH2 0xAA5 PUSH2 0xB6D JUMP JUMPDEST MUL OR SWAP1 SSTORE POP DUP4 PUSH32 0xA12977BD8466586FEB0196546076091FAA7704BBF3F4EE5BB32A8222805BED7B CALLER DUP6 PUSH1 0x40 MLOAD PUSH2 0x8AF SWAP3 SWAP2 SWAP1 PUSH2 0xFDE JUMP JUMPDEST DUP3 DUP1 SLOAD DUP3 DUP3 SSTORE SWAP1 PUSH1 0x0 MSTORE PUSH1 0x20 PUSH1 0x0 KECCAK256 SWAP1 DUP2 ADD SWAP3 DUP3 ISZERO PUSH2 0xB2F JUMPI SWAP2 PUSH1 0x20 MUL DUP3 ADD JUMPDEST DUP3 DUP2 GT ISZERO PUSH2 0xB2F JUMPI DUP2 SLOAD PUSH1 0x1 PUSH1 0x1 PUSH1 0xA0 SHL SUB NOT AND PUSH1 0x1 PUSH1 0x1 PUSH1 0xA0 SHL SUB DUP5 CALLDATALOAD AND OR DUP3 SSTORE PUSH1 0x20 SWAP1 SWAP3 ADD SWAP2 PUSH1 0x1 SWAP1 SWAP2 ADD SWAP1 PUSH2 0xAFC JUMP JUMPDEST POP PUSH2 0xB3B SWAP3 SWAP2 POP PUSH2 0xB3F JUMP JUMPDEST POP SWAP1 JUMP JUMPDEST JUMPDEST DUP1 DUP3 GT ISZERO PUSH2 0xB3B JUMPI PUSH1 0x0 DUP2 SSTORE PUSH1 0x1 ADD PUSH2 0xB40 JUMP JUMPDEST PUSH1 0x0 PUSH1 0x20 DUP3 DUP5 SUB SLT ISZERO PUSH2 0xB66 JUMPI PUSH1 0x0 DUP1 REVERT JUMPDEST POP CALLDATALOAD SWAP2 SWAP1 POP JUMP JUMPDEST PUSH4 0x4E487B71 PUSH1 0xE0 SHL PUSH1 0x0 MSTORE PUSH1 0x21 PUSH1 0x4 MSTORE PUSH1 0x24 PUSH1 0x0 REVERT JUMPDEST PUSH1 0x4 DUP2 LT PUSH2 0xB93 JUMPI PUSH2 0xB93 PUSH2 0xB6D JUMP JUMPDEST SWAP1 MSTORE JUMP JUMPDEST DUP8 DUP2 MSTORE PUSH1 0x20 DUP2 ADD DUP8 SWAP1 MSTORE PUSH1 0x1 PUSH1 0x1 PUSH1 0xA0 SHL SUB DUP7 DUP2 AND PUSH1 0x40 DUP4 ADD MSTORE DUP6 AND PUSH1 0x60 DUP3 ADD MSTORE PUSH1 0xE0 DUP2 ADD PUSH2 0xBC9 PUSH1 0x80 DUP4 ADD DUP7 PUSH2 0xB83 JUMP JUMPDEST PUSH1 0x5 DUP5 LT PUSH2 0xBD9 JUMPI PUSH2 0xBD9 PUSH2 0xB6D JUMP JUMPDEST PUSH1 0xA0 DUP3 ADD SWAP4 SWAP1 SWAP4 MSTORE PUSH1 0xC0 ADD MSTORE SWAP6 SWAP5 POP POP POP POP POP JUMP JUMPDEST PUSH1 0x0 DUP1 DUP4 PUSH1 0x1F DUP5 ADD SLT PUSH2 0xC00 JUMPI PUSH1 0x0 DUP1 REVERT JUMPDEST POP DUP2 CALLDATALOAD PUSH8 0xFFFFFFFFFFFFFFFF DUP2 GT ISZERO PUSH2 0xC18 JUMPI PUSH1 0x0 DUP1 REVERT JUMPDEST PUSH1 0x20 DUP4 ADD SWAP2 POP DUP4 PUSH1 0x20 DUP3 DUP6 ADD ADD GT ISZERO PUSH2 0xC30 JUMPI PUSH1 0x0 DUP1 REVERT JUMPDEST SWAP3 POP SWAP3 SWAP1 POP JUMP JUMPDEST DUP1 CALLDATALOAD PUSH1 0x1 PUSH1 0x1 PUSH1 0xA0 SHL SUB DUP2 AND DUP2 EQ PUSH2 0xC4E JUMPI PUSH1 0x0 DUP1 REVERT JUMPDEST SWAP2 SWAP1 POP JUMP JUMPDEST PUSH1 0x0 DUP1 PUSH1 0x0 DUP1 PUSH1 0x60 DUP6 DUP8 SUB SLT ISZERO PUSH2 0xC69 JUMPI PUSH1 0x0 DUP1 REVERT JUMPDEST DUP5 CALLDATALOAD SWAP4 POP PUSH1 0x20 DUP6 ADD CALLDATALOAD PUSH8 0xFFFFFFFFFFFFFFFF DUP2 GT ISZERO PUSH2 0xC87 JUMPI PUSH1 0x0 DUP1 REVERT JUMPDEST PUSH2 0xC93 DUP8 DUP3 DUP9 ADD PUSH2 0xBEE JUMP JUMPDEST SWAP1 SWAP5 POP SWAP3 POP PUSH2 0xCA6 SWAP1 POP PUSH1 0x40 DUP7 ADD PUSH2 0xC37 JUMP JUMPDEST SWAP1 POP SWAP3 SWAP6 SWAP2 SWAP5 POP SWAP3 POP JUMP JUMPDEST PUSH1 0x0 DUP1 PUSH1 0x0 PUSH1 0x40 DUP5 DUP7 SUB SLT ISZERO PUSH2 0xCC6 JUMPI PUSH1 0x0 DUP1 REVERT JUMPDEST DUP4 CALLDATALOAD SWAP3 POP PUSH1 0x20 DUP5 ADD CALLDATALOAD PUSH8 0xFFFFFFFFFFFFFFFF DUP1 DUP3 GT ISZERO PUSH2 0xCE5 JUMPI PUSH1 0x0 DUP1 REVERT JUMPDEST DUP2 DUP7 ADD SWAP2 POP DUP7 PUSH1 0x1F DUP4 ADD SLT PUSH2 0xCF9 JUMPI PUSH1 0x0 DUP1 REVERT JUMPDEST DUP2 CALLDATALOAD DUP2 DUP2 GT ISZERO PUSH2 0xD08 JUMPI PUSH1 0x0 DUP1 REVERT JUMPDEST DUP8 PUSH1 0x20 DUP3 PUSH1 0x5 SHL DUP6 ADD ADD GT ISZERO PUSH2 0xD1D JUMPI PUSH1 0x0 DUP1 REVERT JUMPDEST PUSH1 0x20 DUP4 ADD SWAP5 POP DUP1 SWAP4 POP POP POP POP SWAP3 POP SWAP3 POP SWAP3 JUMP JUMPDEST PUSH1 0x0 PUSH1 0x20 DUP3 DUP5 SUB SLT ISZERO PUSH2 0xD42 JUMPI PUSH1 0x0 DUP1 REVERT JUMPDEST PUSH2 0xD4B DUP3 PUSH2 0xC37 JUMP JUMPDEST SWAP4 SWAP3 POP POP POP JUMP JUMPDEST PUSH1 0x0 DUP1 PUSH1 0x0 PUSH1 0x40 DUP5 DUP7 SUB SLT ISZERO PUSH2 0xD67 JUMPI PUSH1 0x0 DUP1 REVERT JUMPDEST DUP4 CALLDATALOAD SWAP3 POP PUSH1 0x20 DUP5 ADD CALLDATALOAD PUSH8 0xFFFFFFFFFFFFFFFF DUP2 GT ISZERO PUSH2 0xD85 JUMPI PUSH1 0x0 DUP1 REVERT JUMPDEST PUSH2 0xD91 DUP7 DUP3 DUP8 ADD PUSH2 0xBEE JUMP JUMPDEST SWAP5 SWAP8 SWAP1 SWAP7 POP SWAP4 SWAP5 POP POP POP POP JUMP JUMPDEST PUSH1 0x0 DUP1 PUSH1 0x40 DUP4 DUP6 SUB SLT ISZERO PUSH2 0xDB1 JUMPI PUSH1 0x0 DUP1 REVERT JUMPDEST DUP3 CALLDATALOAD SWAP2 POP PUSH1 0x20 DUP4 ADD CALLDATALOAD PUSH1 0x4 DUP2 LT PUSH2 0xDC7 JUMPI PUSH1 0x0 DUP1 REVERT JUMPDEST DUP1 SWAP2 POP POP SWAP3 POP SWAP3 SWAP1 POP JUMP JUMPDEST PUSH4 0x4E487B71 PUSH1 0xE0 SHL PUSH1 0x0 MSTORE PUSH1 0x11 PUSH1 0x4 MSTORE PUSH1 0x24 PUSH1 0x0 REVERT JUMPDEST DUP1 DUP3 ADD DUP1 DUP3 GT ISZERO PUSH2 0xDFB JUMPI PUSH2 0xDFB PUSH2 0xDD2 JUMP JUMPDEST SWAP3 SWAP2 POP POP JUMP JUMPDEST PUSH4 0x4E487B71 PUSH1 0xE0 SHL PUSH1 0x0 MSTORE PUSH1 0x41 PUSH1 0x4 MSTORE PUSH1 0x24 PUSH1 0x0 REVERT JUMPDEST PUSH1 0x1 DUP2 DUP2 SHR SWAP1 DUP3 AND DUP1 PUSH2 0xE2B JUMPI PUSH1 0x7F DUP3 AND SWAP2 POP JUMPDEST PUSH1 0x20 DUP3 LT DUP2 SUB PUSH2 0xE4B JUMPI PUSH4 0x4E487B71 PUSH1 0xE0 SHL PUSH1 0x0 MSTORE PUSH1 0x22 PUSH1 0x4 MSTORE PUSH1 0x24 PUSH1 0x0 REVERT JUMPDEST POP SWAP2 SWAP1 POP JUMP JUMPDEST PUSH1 0x1F DUP3 GT ISZERO PUSH2 0xE9B JUMPI PUSH1 0x0 DUP2 DUP2 MSTORE PUSH1 0x20 DUP2 KECCAK256 PUSH1 0x1F DUP6 ADD PUSH1 0x5 SHR DUP2 ADD PUSH1 0x20 DUP7 LT ISZERO PUSH2 0xE78 JUMPI POP DUP1 JUMPDEST PUSH1 0x1F DUP6 ADD PUSH1 0x5 SHR DUP3 ADD SWAP2 POP JUMPDEST DUP2 DUP2 LT ISZERO PUSH2 0xE97 JUMPI DUP3 DUP2 SSTORE PUSH1 0x1 ADD PUSH2 0xE84 JUMP JUMPDEST POP POP POP JUMPDEST POP POP POP JUMP JUMPDEST PUSH8 0xFFFFFFFFFFFFFFFF DUP4 GT ISZERO PUSH2 0xEB8 JUMPI PUSH2 0xEB8 PUSH2 0xE01 JUMP JUMPDEST PUSH2 0xECC DUP4 PUSH2 0xEC6 DUP4 SLOAD PUSH2 0xE17 JUMP JUMPDEST DUP4 PUSH2 0xE51 JUMP JUMPDEST PUSH1 0x0 PUSH1 0x1F DUP5 GT PUSH1 0x1 DUP2 EQ PUSH2 0xF00 JUMPI PUSH1 0x0 DUP6 ISZERO PUSH2 0xEE8 JUMPI POP DUP4 DUP3 ADD CALLDATALOAD JUMPDEST PUSH1 0x0 NOT PUSH1 0x3 DUP8 SWAP1 SHL SHR NOT AND PUSH1 0x1 DUP7 SWAP1 SHL OR DUP4 SSTORE PUSH2 0xF5A JUMP JUMPDEST PUSH1 0x0 DUP4 DUP2 MSTORE PUSH1 0x20 SWAP1 KECCAK256 PUSH1 0x1F NOT DUP7 AND SWAP1 DUP4 JUMPDEST DUP3 DUP2 LT ISZERO PUSH2 0xF31 JUMPI DUP7 DUP6 ADD CALLDATALOAD DUP3 SSTORE PUSH1 0x20 SWAP5 DUP6 ADD SWAP5 PUSH1 0x1 SWAP1 SWAP3 ADD SWAP2 ADD PUSH2 0xF11 JUMP JUMPDEST POP DUP7 DUP3 LT ISZERO PUSH2 0xF4E JUMPI PUSH1 0x0 NOT PUSH1 0xF8 DUP9 PUSH1 0x3 SHL AND SHR NOT DUP5 DUP8 ADD CALLDATALOAD AND DUP2 SSTORE JUMPDEST POP POP PUSH1 0x1 DUP6 PUSH1 0x1 SHL ADD DUP4 SSTORE JUMPDEST POP POP POP POP POP JUMP JUMPDEST PUSH4 0x4E487B71 PUSH1 0xE0 SHL PUSH1 0x0 MSTORE PUSH1 0x32 PUSH1 0x4 MSTORE PUSH1 0x24 PUSH1 0x0 REVERT JUMPDEST PUSH1 0x0 PUSH1 0x1 DUP3 ADD PUSH2 0xF89 JUMPI PUSH2 0xF89 PUSH2 0xDD2 JUMP JUMPDEST POP PUSH1 0x1 ADD SWAP1 JUMP JUMPDEST PUSH1 0x20 DUP2 ADD PUSH2 0xDFB DUP3 DUP5 PUSH2 0xB83 JUMP JUMPDEST PUSH1 0x1 PUSH1 0x1 PUSH1 0xA0 SHL SUB DUP5 AND DUP2 MSTORE PUSH1 0x40 PUSH1 0x20 DUP3 ADD DUP2 SWAP1 MSTORE DUP2 ADD DUP3 SWAP1 MSTORE DUP2 DUP4 PUSH1 0x60 DUP4 ADD CALLDATACOPY PUSH1 0x0 DUP2 DUP4 ADD PUSH1 0x60 SWAP1 DUP2 ADD SWAP2 SWAP1 SWAP2 MSTORE PUSH1 0x1F SWAP1 SWAP3 ADD PUSH1 0x1F NOT AND ADD ADD SWAP3 SWAP2 POP POP JUMP JUMPDEST PUSH1 0x1 PUSH1 0x1 PUSH1 0xA0 SHL SUB DUP4 AND DUP2 MSTORE PUSH1 0x40 DUP2 ADD PUSH2 0xD4B PUSH1 0x20 DUP4 ADD DUP5 PUSH2 0xB83 JUMP INVALID LOG2 PUSH5 0x6970667358 0x22 SLT KECCAK256 GAS 0xDB DUP2 0xAF 0x1F SLOAD 0xC0 0xD5 PUSH14 0xFA5A40C2C089054DC7B09041F224 SIGNEXTEND 0xF7 EXTCODECOPY DUP12 RETURNDATACOPY PUSH11 0x8DD06864736F6C63430008 EQ STOP CALLER "},"methodIdentifiers":{"assignArbitrators(bytes32,address[])":"560e0bbd","disputes(bytes32)":"11be1997","finalizeResolution(bytes32)":"ea685565","openDispute(bytes32,string,address)":"4546ac3b","owner()":"8da5cb5b","registry()":"7b103999","setTaskEscrow(address)":"da875013","submitEvidence(bytes32,string)":"f48a0b31","taskEscrow()":"27c4ffe1","voteResolution(bytes32,uint8)":"f96061dc"}}}}}