{"contracts/TaskEscrow.sol":{"TaskEscrow":{"abi":[{"inputs":[{"internalType":"address","name":"_registry","type":"address"}],"stateMutability":"nonpayable","type":"constructor"},{"anonymous":false,"inputs":[{"indexed":true,"internalType":"bytes32","name":"escrowId","type":"bytes32"},{"indexed":false,"internalType":"string","name":"evidenceCID","type":"string"}],"name":"DisputeOpened","type":"event"},{"anonymous":false,"inputs":[{"indexed":true,"internalType":"bytes32","name":"escrowId","type":"bytes32"},{"indexed":false,"internalType":"uint256","name":"amount","type":"uint256"}],"name":"EscrowRefunded","type":"event"},{"anonymous":false,"inputs":[{"indexed":true,"internalType":"bytes32","name":"escrowId","type":"bytes32"},{"indexed":false,"internalType":"bytes32","name":"bidId","type":"bytes32"},{"indexed":false,"internalType":"address","name":"payer","type":"address"},{"indexed":false,"internalType":"address","name":"receiver","type":"address"},{"indexed":false,"internalType":"uint256","name":"amount","type":"uint256"},{"indexed":false,"internalType":"uint256","name":"deadline","type":"uint256"}],"name":"FundsLocked","type":"event"},{"anonymous":false,"inputs":[{"indexed":true,"internalType":"bytes32","name":"escrowId","type":"bytes32"},{"indexed":false,"internalType":"uint256","name":"amount","type":"uint256"},{"indexed":false,"internalType":"address","name":"vaultAddress","type":"address"}],"name":"FundsReleased","type":"event"},{"anonymous":false,"inputs":[{"indexed":true,"internalType":"bytes32","name":"escrowId","type":"bytes32"},{"indexed":false,"internalType":"string","name":"completionProof","type":"string"},{"indexed":false,"internalType":"enum ITaskEscrow.VerificationMethod","name":"method","type":"uint8"}],"name":"TaskCompleted","type":"event"},{"inputs":[{"internalType":"uint256","name":"","type":"uint256"}],"name":"activeEscrows","outputs":[{"internalType":"bytes32","name":"","type":"bytes32"}],"stateMutability":"view","type":"function"},{"inputs":[{"internalType":"bytes32","name":"escrowId","type":"bytes32"}],"name":"approveLargeTask","outputs":[],"stateMutability":"nonpayable","type":"function"},{"inputs":[],"name":"disputeResolver","outputs":[{"internalType":"address","name":"","type":"address"}],"stateMutability":"view","type":"function"},{"inputs":[{"internalType":"bytes32","name":"","type":"bytes32"}],"name":"escrows","outputs":[{"internalType":"bytes32","name":"escrowId","type":"bytes32"},{"internalType":"bytes32","name":"bidId","type":"bytes32"},{"internalType":"address","name":"payer","type":"address"},{"internalType":"address","name":"receiver","type":"address"},{"internalType":"uint256","name":"amount","type":"uint256"},{"internalType":"uint256","name":"deadlineBlock","type":"uint256"},{"internalType":"enum ITaskEscrow.EscrowState","name":"state","type":"uint8"},{"internalType":"enum ITaskEscrow.VerificationMethod","name":"verificationMethod","type":"uint8"}],"stateMutability":"view","type":"function"},{"inputs":[],"name":"governance","outputs":[{"internalType":"address","name":"","type":"address"}],"stateMutability":"view","type":"function"},{"inputs":[{"internalType":"bytes32","name":"","type":"bytes32"}],"name":"largeTaskApproved","outputs":[{"internalType":"bool","name":"","type":"bool"}],"stateMutability":"view","type":"function"},{"inputs":[{"internalType":"bytes32","name":"bidId","type":"bytes32"},{"internalType":"uint256","name":"amount","type":"uint256"},{"internalType":"uint256","name":"deadlineBlocks","type":"uint256"}],"name":"lockFunds","outputs":[],"stateMutability":"nonpayable","type":"function"},{"inputs":[],"name":"negotiation","outputs":[{"internalType":"contract INegotiationEngine","name":"","type":"address"}],"stateMutability":"view","type":"function"},{"inputs":[{"internalType":"bytes32","name":"escrowId","type":"bytes32"},{"internalType":"string","name":"evidenceCID","type":"string"}],"name":"openDispute","outputs":[],"stateMutability":"nonpayable","type":"function"},{"inputs":[],"name":"owner","outputs":[{"internalType":"address","name":"","type":"address"}],"stateMutability":"view","type":"function"},{"inputs":[],"name":"registry","outputs":[{"internalType":"contract IAgentRegistry","name":"","type":"address"}],"stateMutability":"view","type":"function"},{"inputs":[{"internalType":"bytes32","name":"escrowId","type":"bytes32"},{"internalType":"uint8","name":"resolutionOutcome","type":"uint8"}],"name":"resolveDispute","outputs":[],"stateMutability":"nonpayable","type":"function"},{"inputs":[{"internalType":"address","name":"_negotiation","type":"address"},{"internalType":"address","name":"_disputeResolver","type":"address"},{"internalType":"address","name":"_governance","type":"address"}],"name":"setEngines","outputs":[],"stateMutability":"nonpayable","type":"function"},{"inputs":[{"internalType":"bytes32","name":"escrowId","type":"bytes32"},{"internalType":"string","name":"completionProof","type":"string"}],"name":"verifyAndRelease","outputs":[],"stateMutability":"nonpayable","type":"function"}],"evm":{"bytecode":{"linkReferences":{},"object":"608060405234801561001057600080fd5b506040516117b13803806117b183398101604081905261002f91610062565b60008054336001600160a01b031991821617909155600180549091166001600160a01b0392909216919091179055610092565b60006020828403121561007457600080fd5b81516001600160a01b038116811461008b57600080fd5b9392505050565b611710806100a16000396000f3fe608060405234801561001057600080fd5b50600436106100ea5760003560e01c80638da5cb5b1161008c578063d1250e7711610066578063d1250e7714610243578063dd3e9dc914610256578063f5a3f4af14610269578063f7c9be491461027c57600080fd5b80638da5cb5b1461020a578063b641237c1461021d578063cd2fc04a1461023057600080fd5b806353bac786116100c857806353bac786146101985780635aa6e675146101b95780636971c967146101e45780637b103999146101f757600080fd5b80632c06c3a8146100ef5780632d83549c1461010457806331ea559614610185575b600080fd5b6101026100fd36600461111d565b6102af565b005b610168610112366004611199565b60056020819052600091825260409091208054600182015460028301546003840154600485015495850154600690950154939592946001600160a01b039283169492909116929160ff8082169161010090041688565b60405161017c9897969594939291906111dc565b60405180910390f35b61010261019336600461111d565b610643565b6101ab6101a6366004611199565b61078f565b60405190815260200161017c565b6004546101cc906001600160a01b031681565b6040516001600160a01b03909116815260200161017c565b6101026101f2366004611258565b6107b0565b6001546101cc906001600160a01b031681565b6000546101cc906001600160a01b031681565b61010261022b3660046112a3565b610836565b6002546101cc906001600160a01b031681565b6101026102513660046112d9565b610d85565b610102610264366004611199565b611059565b6003546101cc906001600160a01b031681565b61029f61028a366004611199565b60066020526000908152604090205460ff1681565b604051901515815260200161017c565b6000838152600560205260409020600160068083015460ff16908111156102d8576102d86111b2565b146103175760405162461bcd60e51b815260206004820152600a602482015269139bdd081b1bd8dad95960b21b60448201526064015b60405180910390fd5b60028101546001600160a01b031633148061033e575060038101546001600160a01b031633145b6103795760405162461bcd60e51b815260206004820152600c60248201526b155b985d5d1a1bdc9a5e995960a21b604482015260640161030e565b69021e19e0c9bab2400000816004015411156103ed5760008481526006602052604090205460ff166103ed5760405162461bcd60e51b815260206004820152601c60248201527f476f7665726e616e636520617070726f76616c20726571756972656400000000604482015260640161030e565b60068101805460ff19166003908117909155600154908201546040516377c4618f60e11b81526001600160a01b039182166004820152600092919091169063ef88c31e90602401602060405180830381865afa158015610451573d6000803e3d6000fd5b505050506040513d601f19601f820116820180604052508101906104759190611315565b90506001600160a01b0381166104bd5760405162461bcd60e51b815260206004820152600d60248201526c5661756c74206d697373696e6760981b604482015260640161030e565b60048281015460018401546002850154604051639585855160e01b81529384019290925260248301526001600160a01b039081166044830152821690639585855190606401600060405180830381600087803b15801561051c57600080fd5b505af1158015610530573d6000803e3d6000fd5b505060018054600386015491860154604051633e4da98160e21b81526001600160a01b03928316955063f936a60494506105749390921691600a9190600401611339565b600060405180830381600087803b15801561058e57600080fd5b505af11580156105a2573d6000803e3d6000fd5b50505050847facb64f419b51ff7424c1e5fd5837cf0afc3cbd6e785898fb7709b6f483f43a7c85858560060160019054906101000a900460ff166040516105eb93929190611383565b60405180910390a26004820154604080519182526001600160a01b038316602083015286917f77ae879d41d2be50916723bc3adebcd9cef73b5acb83d08cdab4f9531a45c1a291015b60405180910390a25050505050565b6000838152600560205260409020600160068083015460ff169081111561066c5761066c6111b2565b14806106905750600260068083015460ff169081111561068e5761068e6111b2565b145b6106dc5760405162461bcd60e51b815260206004820152601960248201527f496e76616c696420737461746520666f72206469737075746500000000000000604482015260640161030e565b60028101546001600160a01b0316331480610703575060038101546001600160a01b031633145b61073e5760405162461bcd60e51b815260206004820152600c60248201526b155b985d5d1a1bdc9a5e995960a21b604482015260640161030e565b60068101805460ff1916600417905560405184907fffa6c37065a309d3b51fc26ff5d6e63ccd3e0dcfd45a334f877a1f49f5c5368a9061078190869086906113ae565b60405180910390a250505050565b6007818154811061079f57600080fd5b600091825260209091200154905081565b6000546001600160a01b031633146107f75760405162461bcd60e51b815260206004820152600a60248201526927b7363c9037bbb732b960b11b604482015260640161030e565b600280546001600160a01b039485166001600160a01b031991821617909155600380549385169382169390931790925560048054919093169116179055565b6003546001600160a01b031633146108875760405162461bcd60e51b815260206004820152601460248201527327b7363c902234b9b83aba32a932b9b7b63b32b960611b604482015260640161030e565b6000828152600560205260409020600460068083015460ff16908111156108b0576108b06111b2565b146108ec5760405162461bcd60e51b815260206004820152600c60248201526b139bdd08191a5cdc1d5d195960a21b604482015260640161030e565b8160ff166001036109bb5760068101805460ff1916600517905560018054600383015491830154604051633e4da98160e21b81526001600160a01b039283169363f936a60493610946939116916013199190600401611339565b600060405180830381600087803b15801561096057600080fd5b505af1158015610974573d6000803e3d6000fd5b50505050827f21cabc2fff910e5afd1e2bcb22ff2b165a41ab0afbaf364f07aaf2f7787fb90882600401546040516109ae91815260200190565b60405180910390a2505050565b8160ff16600203610b895760068101805460ff19166003908117909155600154908201546040516377c4618f60e11b81526001600160a01b039182166004820152600092919091169063ef88c31e90602401602060405180830381865afa158015610a2a573d6000803e3d6000fd5b505050506040513d601f19601f82011682018060405250810190610a4e9190611315565b60048381015460018501546002860154604051639585855160e01b81529384019290925260248301526001600160a01b03908116604483015291925090821690639585855190606401600060405180830381600087803b158015610ab157600080fd5b505af1158015610ac5573d6000803e3d6000fd5b505060018054600386015491860154604051633e4da98160e21b81526001600160a01b03928316955063f936a6049450610b09939092169160059190600401611339565b600060405180830381600087803b158015610b2357600080fd5b505af1158015610b37573d6000803e3d6000fd5b5050506004830154604080519182526001600160a01b03841660208301528692507f77ae879d41d2be50916723bc3adebcd9cef73b5acb83d08cdab4f9531a45c1a2910160405180910390a250505050565b600060028260040154610b9c91906113c2565b60068301805460ff1916600517905560405181815290915084907f21cabc2fff910e5afd1e2bcb22ff2b165a41ab0afbaf364f07aaf2f7787fb9089060200160405180910390a260015460038301546040516377c4618f60e11b81526001600160a01b039182166004820152600092919091169063ef88c31e90602401602060405180830381865afa158015610c36573d6000803e3d6000fd5b505050506040513d601f19601f82011682018060405250810190610c5a9190611315565b60018401546002850154604051639585855160e01b81526004810186905260248101929092526001600160a01b03908116604483015291925090821690639585855190606401600060405180830381600087803b158015610cba57600080fd5b505af1158015610cce573d6000803e3d6000fd5b505060018054600387015491870154604051633e4da98160e21b81526001600160a01b03928316955063f936a6049450610d1393909216916004199190600401611339565b600060405180830381600087803b158015610d2d57600080fd5b505af1158015610d41573d6000803e3d6000fd5b5050604080518581526001600160a01b03851660208201528893507f77ae879d41d2be50916723bc3adebcd9cef73b5acb83d08cdab4f9531a45c1a2925001610634565b6002546001600160a01b03163314610ddf5760405162461bcd60e51b815260206004820152601760248201527f4f6e6c79206e65676f74696174696f6e20656e67696e65000000000000000000604482015260640161030e565b6002546040516348b8270f60e11b8152600481018590526000916001600160a01b0316906391704e1e90602401600060405180830381865afa158015610e29573d6000803e3d6000fd5b505050506040513d6000823e601f3d908101601f19168201604052610e5191908101906115c3565b905060028160c001516004811115610e6b57610e6b6111b2565b14610eab5760405162461bcd60e51b815260206004820152601060248201526f109a59081b9bdd081858d8d95c1d195960821b604482015260640161030e565b60008443604051602001610ec9929190918252602082015260400190565b60408051601f198184030181529181528151602092830120600081815260059093529120600201549091506001600160a01b031615610f3a5760405162461bcd60e51b815260206004820152600d60248201526c457363726f772065786973747360981b604482015260640161030e565b6000818152600560205260409081902082815560018101879055908301516002820180546001600160a01b039283166001600160a01b031991821617909155606085015160038401805491909316911617905560048101859055610f9e84436116b3565b6005820190815560068201805461ffff1916610301179055600780546001810182556000919091527fa66cc928b5edb82af9bd49922954155ab7b0942694bea4ce44661d9a8736c68801839055604084810151606080870151935483518b81526001600160a01b0393841660208201529290941682840152810188905260808101929092525183917f485fc3dc1012f8904e8502067559a069ea16bf63f18f902337fad95feaf87610919081900360a00190a2505050505050565b6004546001600160a01b031633146110a55760405162461bcd60e51b815260206004820152600f60248201526e4f6e6c7920676f7665726e616e636560881b604482015260640161030e565b60008181526005602052604090206004015469021e19e0c9bab2400000106111025760405162461bcd60e51b815260206004820152601060248201526f4e6f742061206c61726765207461736b60801b604482015260640161030e565b6000908152600660205260409020805460ff19166001179055565b60008060006040848603121561113257600080fd5b83359250602084013567ffffffffffffffff8082111561115157600080fd5b818601915086601f83011261116557600080fd5b81358181111561117457600080fd5b87602082850101111561118657600080fd5b6020830194508093505050509250925092565b6000602082840312156111ab57600080fd5b5035919050565b634e487b7160e01b600052602160045260246000fd5b600581106111d8576111d86111b2565b9052565b888152602081018890526001600160a01b038781166040830152861660608201526080810185905260a08101849052610100810160078410611220576112206111b2565b8360c083015261123360e08301846111c8565b9998505050505050505050565b6001600160a01b038116811461125557600080fd5b50565b60008060006060848603121561126d57600080fd5b833561127881611240565b9250602084013561128881611240565b9150604084013561129881611240565b809150509250925092565b600080604083850312156112b657600080fd5b82359150602083013560ff811681146112ce57600080fd5b809150509250929050565b6000806000606084860312156112ee57600080fd5b505081359360208301359350604090920135919050565b805161131081611240565b919050565b60006020828403121561132757600080fd5b815161133281611240565b9392505050565b6001600160a01b039390931683526020830191909152604082015260600190565b81835281816020850137506000828201602090810191909152601f909101601f19169091010190565b60408152600061139760408301858761135a565b90506113a660208301846111c8565b949350505050565b6020815260006113a660208301848661135a565b6000826113df57634e487b7160e01b600052601260045260246000fd5b500490565b634e487b7160e01b600052604160045260246000fd5b6040516060810167ffffffffffffffff8111828210171561141d5761141d6113e4565b60405290565b604051610120810167ffffffffffffffff8111828210171561141d5761141d6113e4565b604051601f8201601f1916810167ffffffffffffffff81118282101715611470576114706113e4565b604052919050565b600082601f83011261148957600080fd5b815167ffffffffffffffff8111156114a3576114a36113e4565b60206114b7601f8301601f19168201611447565b82815285828487010111156114cb57600080fd5b60005b838110156114e95785810183015182820184015282016114ce565b506000928101909101919091529392505050565b80516005811061131057600080fd5b600082601f83011261151d57600080fd5b8151602067ffffffffffffffff821115611539576115396113e4565b611547818360051b01611447565b8281526060928302850182019282820191908785111561156657600080fd5b8387015b858110156115b65781818a0312156115825760008081fd5b61158a6113fa565b815181528582015161159b81611240565b8187015260408281015190820152845292840192810161156a565b5090979650505050505050565b6000602082840312156115d557600080fd5b815167ffffffffffffffff808211156115ed57600080fd5b90830190610120828603121561160257600080fd5b61160a611423565b8251815260208301518281111561162057600080fd5b61162c87828601611478565b60208301525061163e60408401611305565b604082015261164f60608401611305565b60608201526080830151608082015260a083015160a082015261167460c084016114fd565b60c082015260e08301518281111561168b57600080fd5b6116978782860161150c565b60e0830152506101009283015192810192909252509392505050565b808201808211156116d457634e487b7160e01b600052601160045260246000fd5b9291505056fea26469706673582212209bfd80d14222f17b5c30a7109b0328e304702a5b2f002676d2c5bdaa26d161d464736f6c63430008140033","opcodes":"PUSH1 0x80 PUSH1 0x40 MSTORE CALLVALUE DUP1 ISZERO PUSH2 0x10 JUMPI PUSH1 0x0 DUP1 REVERT JUMPDEST POP PUSH1 0x40 MLOAD PUSH2 0x17B1 CODESIZE SUB DUP1 PUSH2 0x17B1 DUP4 CODECOPY DUP2 ADD PUSH1 0x40 DUP2 SWAP1 MSTORE PUSH2 0x2F SWAP2 PUSH2 0x62 JUMP JUMPDEST PUSH1 0x0 DUP1 SLOAD CALLER PUSH1 0x1 PUSH1 0x1 PUSH1 0xA0 SHL SUB NOT SWAP2 DUP3 AND OR SWAP1 SWAP2 SSTORE PUSH1 0x1 DUP1 SLOAD SWAP1 SWAP2 AND PUSH1 0x1 PUSH1 0x1 PUSH1 0xA0 SHL SUB SWAP3 SWAP1 SWAP3 AND SWAP2 SWAP1 SWAP2 OR SWAP1 SSTORE PUSH2 0x92 JUMP JUMPDEST PUSH1 0x0 PUSH1 0x20 DUP3 DUP5 SUB SLT ISZERO PUSH2 0x74 JUMPI PUSH1 0x0 DUP1 REVERT JUMPDEST DUP2 MLOAD PUSH1 0x1 PUSH1 0x1 PUSH1 0xA0 SHL SUB DUP2 AND DUP2 EQ PUSH2 0x8B JUMPI PUSH1 0x0 DUP1 REVERT JUMPDEST SWAP4 SWAP3 POP POP POP JUMP JUMPDEST PUSH2 0x1710 DUP1 PUSH2 0xA1 PUSH1 0x0 CODECOPY PUSH1 0x0 RETURN INVALID PUSH1 0x80 PUSH1 0x40 MSTORE CALLVALUE DUP1 ISZERO PUSH2 0x10 JUMPI PUSH1 0x0 DUP1 REVERT JUMPDEST POP PUSH1 0x4 CALLDATASIZE LT PUSH2 0xEA JUMPI PUSH1 0x0 CALLDATALOAD PUSH1 0xE0 SHR DUP1 PUSH4 0x8DA5CB5B GT PUSH2 0x8C JUMPI DUP1 PUSH4 0xD1250E77 GT PUSH2 0x66 JUMPI DUP1 PUSH4 0xD1250E77 EQ PUSH2 0x243 JUMPI DUP1 PUSH4 0xDD3E9DC9 EQ PUSH2 0x256 JUMPI DUP1 PUSH4 0xF5A3F4AF EQ PUSH2 0x269 JUMPI DUP1 PUSH4 0xF7C9BE49 EQ PUSH2 0x27C JUMPI PUSH1 0x0 DUP1 REVERT JUMPDEST DUP1 PUSH4 0x8DA5CB5B EQ PUSH2 0x20A JUMPI DUP1 PUSH4 0xB641237C EQ PUSH2 0x21D JUMPI DUP1 PUSH4 0xCD2FC04A EQ PUSH2 0x230 JUMPI PUSH1 0x0 DUP1 REVERT JUMPDEST DUP1 PUSH4 0x53BAC786 GT PUSH2 0xC8 JUMPI DUP1 PUSH4 0x53BAC786 EQ PUSH2 0x198 JUMPI DUP1 PUSH4 0x5AA6E675 EQ PUSH2 0x1B9 JUMPI DUP1 PUSH4 0x6971C967 EQ PUSH2 0x1E4 JUMPI DUP1 PUSH4 0x7B103999 EQ PUSH2 0x1F7 JUMPI PUSH1 0x0 DUP1 REVERT JUMPDEST DUP1 PUSH4 0x2C06C3A8 EQ PUSH2 0xEF JUMPI DUP1 PUSH4 0x2D83549C EQ PUSH2 0x104 JUMPI DUP1 PUSH4 0x31EA5596 EQ PUSH2 0x185 JUMPI JUMPDEST PUSH1 0x0 DUP1 REVERT JUMPDEST PUSH2 0x102 PUSH2 0xFD CALLDATASIZE PUSH1 0x4 PUSH2 0x111D JUMP JUMPDEST PUSH2 0x2AF JUMP JUMPDEST STOP JUMPDEST PUSH2 0x168 PUSH2 0x112 CALLDATASIZE PUSH1 0x4 PUSH2 0x1199 JUMP JUMPDEST PUSH1 0x5 PUSH1 0x20 DUP2 SWAP1 MSTORE PUSH1 0x0 SWAP2 DUP3 MSTORE PUSH1 0x40 SWAP1 SWAP2 KECCAK256 DUP1 SLOAD PUSH1 0x1 DUP3 ADD SLOAD PUSH1 0x2 DUP4 ADD SLOAD PUSH1 0x3 DUP5 ADD SLOAD PUSH1 0x4 DUP6 ADD SLOAD SWAP6 DUP6 ADD SLOAD PUSH1 0x6 SWAP1 SWAP6 ADD SLOAD SWAP4 SWAP6 SWAP3 SWAP5 PUSH1 0x1 PUSH1 0x1 PUSH1 0xA0 SHL SUB SWAP3 DUP4 AND SWAP5 SWAP3 SWAP1 SWAP2 AND SWAP3 SWAP2 PUSH1 0xFF DUP1 DUP3 AND SWAP2 PUSH2 0x100 SWAP1 DIV AND DUP9 JUMP JUMPDEST PUSH1 0x40 MLOAD PUSH2 0x17C SWAP9 SWAP8 SWAP7 SWAP6 SWAP5 SWAP4 SWAP3 SWAP2 SWAP1 PUSH2 0x11DC JUMP JUMPDEST PUSH1 0x40 MLOAD DUP1 SWAP2 SUB SWAP1 RETURN JUMPDEST PUSH2 0x102 PUSH2 0x193 CALLDATASIZE PUSH1 0x4 PUSH2 0x111D JUMP JUMPDEST PUSH2 0x643 JUMP JUMPDEST PUSH2 0x1AB PUSH2 0x1A6 CALLDATASIZE PUSH1 0x4 PUSH2 0x1199 JUMP JUMPDEST PUSH2 0x78F JUMP JUMPDEST PUSH1 0x40 MLOAD SWAP1 DUP2 MSTORE PUSH1 0x20 ADD PUSH2 0x17C JUMP JUMPDEST PUSH1 0x4 SLOAD PUSH2 0x1CC SWAP1 PUSH1 0x1 PUSH1 0x1 PUSH1 0xA0 SHL SUB AND DUP2 JUMP JUMPDEST PUSH1 0x40 MLOAD PUSH1 0x1 PUSH1 0x1 PUSH1 0xA0 SHL SUB SWAP1 SWAP2 AND DUP2 MSTORE PUSH1 0x20 ADD PUSH2 0x17C JUMP JUMPDEST PUSH2 0x102 PUSH2 0x1F2 CALLDATASIZE PUSH1 0x4 PUSH2 0x1258 JUMP JUMPDEST PUSH2 0x7B0 JUMP JUMPDEST PUSH1 0x1 SLOAD PUSH2 0x1CC SWAP1 PUSH1 0x1 PUSH1 0x1 PUSH1 0xA0 SHL SUB AND DUP2 JUMP JUMPDEST PUSH1 0x0 SLOAD PUSH2 0x1CC SWAP1 PUSH1 0x1 PUSH1 0x1 PUSH1 0xA0 SHL SUB AND DUP2 JUMP JUMPDEST PUSH2 0x102 PUSH2 0x22B CALLDATASIZE PUSH1 0x4 PUSH2 0x12A3 JUMP JUMPDEST PUSH2 0x836 JUMP JUMPDEST PUSH1 0x2 SLOAD PUSH2 0x1CC SWAP1 PUSH1 0x1 PUSH1 0x1 PUSH1 0xA0 SHL SUB AND DUP2 JUMP JUMPDEST PUSH2 0x102 PUSH2 0x251 CALLDATASIZE PUSH1 0x4 PUSH2 0x12D9 JUMP JUMPDEST PUSH2 0xD85 JUMP JUMPDEST PUSH2 0x102 PUSH2 0x264 CALLDATASIZE PUSH1 0x4 PUSH2 0x1199 JUMP JUMPDEST PUSH2 0x1059 JUMP JUMPDEST PUSH1 0x3 SLOAD PUSH2 0x1CC SWAP1 PUSH1 0x1 PUSH1 0x1 PUSH1 0xA0 SHL SUB AND DUP2 JUMP JUMPDEST PUSH2 0x29F PUSH2 0x28A CALLDATASIZE PUSH1 0x4 PUSH2 0x1199 JUMP JUMPDEST PUSH1 0x6 PUSH1 0x20 MSTORE PUSH1 0x0 SWAP1 DUP2 MSTORE PUSH1 0x40 SWAP1 KECCAK256 SLOAD PUSH1 0xFF AND DUP2 JUMP JUMPDEST PUSH1 0x40 MLOAD SWAP1 ISZERO ISZERO DUP2 MSTORE PUSH1 0x20 ADD PUSH2 0x17C JUMP JUMPDEST PUSH1 0x0 DUP4 DUP2 MSTORE PUSH1 0x5 PUSH1 0x20 MSTORE PUSH1 0x40 SWAP1 KECCAK256 PUSH1 0x1 PUSH1 0x6 DUP1 DUP4 ADD SLOAD PUSH1 0xFF AND SWAP1 DUP2 GT ISZERO PUSH2 0x2D8 JUMPI PUSH2 0x2D8 PUSH2 0x11B2 JUMP JUMPDEST EQ PUSH2 0x317 JUMPI PUSH1 0x40 MLOAD PUSH3 0x461BCD PUSH1 0xE5 SHL DUP2 MSTORE PUSH1 0x20 PUSH1 0x4 DUP3 ADD MSTORE PUSH1 0xA PUSH1 0x24 DUP3 ADD MSTORE PUSH10 0x139BDD081B1BD8DAD959 PUSH1 0xB2 SHL PUSH1 0x44 DUP3 ADD MSTORE PUSH1 0x64 ADD JUMPDEST PUSH1 0x40 MLOAD DUP1 SWAP2 SUB SWAP1 REVERT JUMPDEST PUSH1 0x2 DUP2 ADD SLOAD PUSH1 0x1 PUSH1 0x1 PUSH1 0xA0 SHL SUB AND CALLER EQ DUP1 PUSH2 0x33E JUMPI POP PUSH1 0x3 DUP2 ADD SLOAD PUSH1 0x1 PUSH1 0x1 PUSH1 0xA0 SHL SUB AND CALLER EQ JUMPDEST PUSH2 0x379 JUMPI PUSH1 0x40 MLOAD PUSH3 0x461BCD PUSH1 0xE5 SHL DUP2 MSTORE PUSH1 0x20 PUSH1 0x4 DUP3 ADD MSTORE PUSH1 0xC PUSH1 0x24 DUP3 ADD MSTORE PUSH12 0x155B985D5D1A1BDC9A5E9959 PUSH1 0xA2 SHL PUSH1 0x44 DUP3 ADD MSTORE PUSH1 0x64 ADD PUSH2 0x30E JUMP JUMPDEST PUSH10 0x21E19E0C9BAB2400000 DUP2 PUSH1 0x4 ADD SLOAD GT ISZERO PUSH2 0x3ED JUMPI PUSH1 0x0 DUP5 DUP2 MSTORE PUSH1 0x6 PUSH1 0x20 MSTORE PUSH1 0x40 SWAP1 KECCAK256 SLOAD PUSH1 0xFF AND PUSH2 0x3ED JUMPI PUSH1 0x40 MLOAD PUSH3 0x461BCD PUSH1 0xE5 SHL DUP2 MSTORE PUSH1 0x20 PUSH1 0x4 DUP3 ADD MSTORE PUSH1 0x1C PUSH1 0x24 DUP3 ADD MSTORE PUSH32 0x476F7665726E616E636520617070726F76616C20726571756972656400000000 PUSH1 0x44 DUP3 ADD MSTORE PUSH1 0x64 ADD PUSH2 0x30E JUMP JUMPDEST PUSH1 0x6 DUP2 ADD DUP1 SLOAD PUSH1 0xFF NOT AND PUSH1 0x3 SWAP1 DUP2 OR SWAP1 SWAP2 SSTORE PUSH1 0x1 SLOAD SWAP1 DUP3 ADD SLOAD PUSH1 0x40 MLOAD PUSH4 0x77C4618F PUSH1 0xE1 SHL DUP2 MSTORE PUSH1 0x1 PUSH1 0x1 PUSH1 0xA0 SHL SUB SWAP2 DUP3 AND PUSH1 0x4 DUP3 ADD MSTORE PUSH1 0x0 SWAP3 SWAP2 SWAP1 SWAP2 AND SWAP1 PUSH4 0xEF88C31E SWAP1 PUSH1 0x24 ADD PUSH1 0x20 PUSH1 0x40 MLOAD DUP1 DUP4 SUB DUP2 DUP7 GAS STATICCALL ISZERO DUP1 ISZERO PUSH2 0x451 JUMPI RETURNDATASIZE PUSH1 0x0 DUP1 RETURNDATACOPY RETURNDATASIZE PUSH1 0x0 REVERT JUMPDEST POP POP POP POP PUSH1 0x40 MLOAD RETURNDATASIZE PUSH1 0x1F NOT PUSH1 0x1F DUP3 ADD AND DUP3 ADD DUP1 PUSH1 0x40 MSTORE POP DUP2 ADD SWAP1 PUSH2 0x475 SWAP2 SWAP1 PUSH2 0x1315 JUMP JUMPDEST SWAP1 POP PUSH1 0x1 PUSH1 0x1 PUSH1 0xA0 SHL SUB DUP2 AND PUSH2 0x4BD JUMPI PUSH1 0x40 MLOAD PUSH3 0x461BCD PUSH1 0xE5 SHL DUP2 MSTORE PUSH1 0x20 PUSH1 0x4 DUP3 ADD MSTORE PUSH1 0xD PUSH1 0x24 DUP3 ADD MSTORE PUSH13 0x5661756C74206D697373696E67 PUSH1 0x98 SHL PUSH1 0x44 DUP3 ADD MSTORE PUSH1 0x64 ADD PUSH2 0x30E JUMP JUMPDEST PUSH1 0x4 DUP3 DUP2 ADD SLOAD PUSH1 0x1 DUP5 ADD SLOAD PUSH1 0x2 DUP6 ADD SLOAD PUSH1 0x40 MLOAD PUSH4 0x95858551 PUSH1 0xE0 SHL DUP2 MSTORE SWAP4 DUP5 ADD SWAP3 SWAP1 SWAP3 MSTORE PUSH1 0x24 DUP4 ADD MSTORE PUSH1 0x1 PUSH1 0x1 PUSH1 0xA0 SHL SUB SWAP1 DUP2 AND PUSH1 0x44 DUP4 ADD MSTORE DUP3 AND SWAP1 PUSH4 0x95858551 SWAP1 PUSH1 0x64 ADD PUSH1 0x0 PUSH1 0x40 MLOAD DUP1 DUP4 SUB DUP2 PUSH1 0x0 DUP8 DUP1 EXTCODESIZE ISZERO DUP1 ISZERO PUSH2 0x51C JUMPI PUSH1 0x0 DUP1 REVERT JUMPDEST POP GAS CALL ISZERO DUP1 ISZERO PUSH2 0x530 JUMPI RETURNDATASIZE PUSH1 0x0 DUP1 RETURNDATACOPY RETURNDATASIZE PUSH1 0x0 REVERT JUMPDEST POP POP PUSH1 0x1 DUP1 SLOAD PUSH1 0x3 DUP7 ADD SLOAD SWAP2 DUP7 ADD SLOAD PUSH1 0x40 MLOAD PUSH4 0x3E4DA981 PUSH1 0xE2 SHL DUP2 MSTORE PUSH1 0x1 PUSH1 0x1 PUSH1 0xA0 SHL SUB SWAP3 DUP4 AND SWAP6 POP PUSH4 0xF936A604 SWAP5 POP PUSH2 0x574 SWAP4 SWAP1 SWAP3 AND SWAP2 PUSH1 0xA SWAP2 SWAP1 PUSH1 0x4 ADD PUSH2 0x1339 JUMP JUMPDEST PUSH1 0x0 PUSH1 0x40 MLOAD DUP1 DUP4 SUB DUP2 PUSH1 0x0 DUP8 DUP1 EXTCODESIZE ISZERO DUP1 ISZERO PUSH2 0x58E JUMPI PUSH1 0x0 DUP1 REVERT JUMPDEST POP GAS CALL ISZERO DUP1 ISZERO PUSH2 0x5A2 JUMPI RETURNDATASIZE PUSH1 0x0 DUP1 RETURNDATACOPY RETURNDATASIZE PUSH1 0x0 REVERT JUMPDEST POP POP POP POP DUP5 PUSH32 0xACB64F419B51FF7424C1E5FD5837CF0AFC3CBD6E785898FB7709B6F483F43A7C DUP6 DUP6 DUP6 PUSH1 0x6 ADD PUSH1 0x1 SWAP1 SLOAD SWAP1 PUSH2 0x100 EXP SWAP1 DIV PUSH1 0xFF AND PUSH1 0x40 MLOAD PUSH2 0x5EB SWAP4 SWAP3 SWAP2 SWAP1 PUSH2 0x1383 JUMP JUMPDEST PUSH1 0x40 MLOAD DUP1 SWAP2 SUB SWAP1 LOG2 PUSH1 0x4 DUP3 ADD SLOAD PUSH1 0x40 DUP1 MLOAD SWAP2 DUP3 MSTORE PUSH1 0x1 PUSH1 0x1 PUSH1 0xA0 SHL SUB DUP4 AND PUSH1 0x20 DUP4 ADD MSTORE DUP7 SWAP2 PUSH32 0x77AE879D41D2BE50916723BC3ADEBCD9CEF73B5ACB83D08CDAB4F9531A45C1A2 SWAP2 ADD JUMPDEST PUSH1 0x40 MLOAD DUP1 SWAP2 SUB SWAP1 LOG2 POP POP POP POP POP JUMP JUMPDEST PUSH1 0x0 DUP4 DUP2 MSTORE PUSH1 0x5 PUSH1 0x20 MSTORE PUSH1 0x40 SWAP1 KECCAK256 PUSH1 0x1 PUSH1 0x6 DUP1 DUP4 ADD SLOAD PUSH1 0xFF AND SWAP1 DUP2 GT ISZERO PUSH2 0x66C JUMPI PUSH2 0x66C PUSH2 0x11B2 JUMP JUMPDEST EQ DUP1 PUSH2 0x690 JUMPI POP PUSH1 0x2 PUSH1 0x6 DUP1 DUP4 ADD SLOAD PUSH1 0xFF AND SWAP1 DUP2 GT ISZERO PUSH2 0x68E JUMPI PUSH2 0x68E PUSH2 0x11B2 JUMP JUMPDEST EQ JUMPDEST PUSH2 0x6DC JUMPI PUSH1 0x40 MLOAD PUSH3 0x461BCD PUSH1 0xE5 SHL DUP2 MSTORE PUSH1 0x20 PUSH1 0x4 DUP3 ADD MSTORE PUSH1 0x19 PUSH1 0x24 DUP3 ADD MSTORE PUSH32 0x496E76616C696420737461746520666F72206469737075746500000000000000 PUSH1 0x44 DUP3 ADD MSTORE PUSH1 0x64 ADD PUSH2 0x30E JUMP JUMPDEST PUSH1 0x2 DUP2 ADD SLOAD PUSH1 0x1 PUSH1 0x1 PUSH1 0xA0 SHL SUB AND CALLER EQ DUP1 PUSH2 0x703 JUMPI POP PUSH1 0x3 DUP2 ADD SLOAD PUSH1 0x1 PUSH1 0x1 PUSH1 0xA0 SHL SUB AND CALLER EQ JUMPDEST PUSH2 0x73E JUMPI PUSH1 0x40 MLOAD PUSH3 0x461BCD PUSH1 0xE5 SHL DUP2 MSTORE PUSH1 0x20 PUSH1 0x4 DUP3 ADD MSTORE PUSH1 0xC PUSH1 0x24 DUP3 ADD MSTORE PUSH12 0x155B985D5D1A1BDC9A5E9959 PUSH1 0xA2 SHL PUSH1 0x44 DUP3 ADD MSTORE PUSH1 0x64 ADD PUSH2 0x30E JUMP JUMPDEST PUSH1 0x6 DUP2 ADD DUP1 SLOAD PUSH1 0xFF NOT AND PUSH1 0x4 OR SWAP1 SSTORE PUSH1 0x40 MLOAD DUP5 SWAP1 PUSH32 0xFFA6C37065A309D3B51FC26FF5D6E63CCD3E0DCFD45A334F877A1F49F5C5368A SWAP1 PUSH2 0x781 SWAP1 DUP7 SWAP1 DUP7 SWAP1 PUSH2 0x13AE JUMP JUMPDEST PUSH1 0x40 MLOAD DUP1 SWAP2 SUB SWAP1 LOG2 POP POP POP POP JUMP JUMPDEST PUSH1 0x7 DUP2 DUP2 SLOAD DUP2 LT PUSH2 0x79F JUMPI PUSH1 0x0 DUP1 REVERT JUMPDEST PUSH1 0x0 SWAP2 DUP3 MSTORE PUSH1 0x20 SWAP1 SWAP2 KECCAK256 ADD SLOAD SWAP1 POP DUP2 JUMP JUMPDEST PUSH1 0x0 SLOAD PUSH1 0x1 PUSH1 0x1 PUSH1 0xA0 SHL SUB AND CALLER EQ PUSH2 0x7F7 JUMPI PUSH1 0x40 MLOAD PUSH3 0x461BCD PUSH1 0xE5 SHL DUP2 MSTORE PUSH1 0x20 PUSH1 0x4 DUP3 ADD MSTORE PUSH1 0xA PUSH1 0x24 DUP3 ADD MSTORE PUSH10 0x27B7363C9037BBB732B9 PUSH1 0xB1 SHL PUSH1 0x44 DUP3 ADD MSTORE PUSH1 0x64 ADD PUSH2 0x30E JUMP JUMPDEST PUSH1 0x2 DUP1 SLOAD PUSH1 0x1 PUSH1 0x1 PUSH1 0xA0 SHL SUB SWAP5 DUP6 AND PUSH1 0x1 PUSH1 0x1 PUSH1 0xA0 SHL SUB NOT SWAP2 DUP3 AND OR SWAP1 SWAP2 SSTORE PUSH1 0x3 DUP1 SLOAD SWAP4 DUP6 AND SWAP4 DUP3 AND SWAP4 SWAP1 SWAP4 OR SWAP1 SWAP3 SSTORE PUSH1 0x4 DUP1 SLOAD SWAP2 SWAP1 SWAP4 AND SWAP2 AND OR SWAP1 SSTORE JUMP JUMPDEST PUSH1 0x3 SLOAD PUSH1 0x1 PUSH1 0x1 PUSH1 0xA0 SHL SUB AND CALLER EQ PUSH2 0x887 JUMPI PUSH1 0x40 MLOAD PUSH3 0x461BCD PUSH1 0xE5 SHL DUP2 MSTORE PUSH1 0x20 PUSH1 0x4 DUP3 ADD MSTORE PUSH1 0x14 PUSH1 0x24 DUP3 ADD MSTORE PUSH20 0x27B7363C902234B9B83ABA32A932B9B7B63B32B9 PUSH1 0x61 SHL PUSH1 0x44 DUP3 ADD MSTORE PUSH1 0x64 ADD PUSH2 0x30E JUMP JUMPDEST PUSH1 0x0 DUP3 DUP2 MSTORE PUSH1 0x5 PUSH1 0x20 MSTORE PUSH1 0x40 SWAP1 KECCAK256 PUSH1 0x4 PUSH1 0x6 DUP1 DUP4 ADD SLOAD PUSH1 0xFF AND SWAP1 DUP2 GT ISZERO PUSH2 0x8B0 JUMPI PUSH2 0x8B0 PUSH2 0x11B2 JUMP JUMPDEST EQ PUSH2 0x8EC JUMPI PUSH1 0x40 MLOAD PUSH3 0x461BCD PUSH1 0xE5 SHL DUP2 MSTORE PUSH1 0x20 PUSH1 0x4 DUP3 ADD MSTORE PUSH1 0xC PUSH1 0x24 DUP3 ADD MSTORE PUSH12 0x139BDD08191A5CDC1D5D1959 PUSH1 0xA2 SHL PUSH1 0x44 DUP3 ADD MSTORE PUSH1 0x64 ADD PUSH2 0x30E JUMP JUMPDEST DUP2 PUSH1 0xFF AND PUSH1 0x1 SUB PUSH2 0x9BB JUMPI PUSH1 0x6 DUP2 ADD DUP1 SLOAD PUSH1 0xFF NOT AND PUSH1 0x5 OR SWAP1 SSTORE PUSH1 0x1 DUP1 SLOAD PUSH1 0x3 DUP4 ADD SLOAD SWAP2 DUP4 ADD SLOAD PUSH1 0x40 MLOAD PUSH4 0x3E4DA981 PUSH1 0xE2 SHL DUP2 MSTORE PUSH1 0x1 PUSH1 0x1 PUSH1 0xA0 SHL SUB SWAP3 DUP4 AND SWAP4 PUSH4 0xF936A604 SWAP4 PUSH2 0x946 SWAP4 SWAP2 AND SWAP2 PUSH1 0x13 NOT SWAP2 SWAP1 PUSH1 0x4 ADD PUSH2 0x1339 JUMP JUMPDEST PUSH1 0x0 PUSH1 0x40 MLOAD DUP1 DUP4 SUB DUP2 PUSH1 0x0 DUP8 DUP1 EXTCODESIZE ISZERO DUP1 ISZERO PUSH2 0x960 JUMPI PUSH1 0x0 DUP1 REVERT JUMPDEST POP GAS CALL ISZERO DUP1 ISZERO PUSH2 0x974 JUMPI RETURNDATASIZE PUSH1 0x0 DUP1 RETURNDATACOPY RETURNDATASIZE PUSH1 0x0 REVERT JUMPDEST POP POP POP POP DUP3 PUSH32 0x21CABC2FFF910E5AFD1E2BCB22FF2B165A41AB0AFBAF364F07AAF2F7787FB908 DUP3 PUSH1 0x4 ADD SLOAD PUSH1 0x40 MLOAD PUSH2 0x9AE SWAP2 DUP2 MSTORE PUSH1 0x20 ADD SWAP1 JUMP JUMPDEST PUSH1 0x40 MLOAD DUP1 SWAP2 SUB SWAP1 LOG2 POP POP POP JUMP JUMPDEST DUP2 PUSH1 0xFF AND PUSH1 0x2 SUB PUSH2 0xB89 JUMPI PUSH1 0x6 DUP2 ADD DUP1 SLOAD PUSH1 0xFF NOT AND PUSH1 0x3 SWAP1 DUP2 OR SWAP1 SWAP2 SSTORE PUSH1 0x1 SLOAD SWAP1 DUP3 ADD SLOAD PUSH1 0x40 MLOAD PUSH4 0x77C4618F PUSH1 0xE1 SHL DUP2 MSTORE PUSH1 0x1 PUSH1 0x1 PUSH1 0xA0 SHL SUB SWAP2 DUP3 AND PUSH1 0x4 DUP3 ADD MSTORE PUSH1 0x0 SWAP3 SWAP2 SWAP1 SWAP2 AND SWAP1 PUSH4 0xEF88C31E SWAP1 PUSH1 0x24 ADD PUSH1 0x20 PUSH1 0x40 MLOAD DUP1 DUP4 SUB DUP2 DUP7 GAS STATICCALL ISZERO DUP1 ISZERO PUSH2 0xA2A JUMPI RETURNDATASIZE PUSH1 0x0 DUP1 RETURNDATACOPY RETURNDATASIZE PUSH1 0x0 REVERT JUMPDEST POP POP POP POP PUSH1 0x40 MLOAD RETURNDATASIZE PUSH1 0x1F NOT PUSH1 0x1F DUP3 ADD AND DUP3 ADD DUP1 PUSH1 0x40 MSTORE POP DUP2 ADD SWAP1 PUSH2 0xA4E SWAP2 SWAP1 PUSH2 0x1315 JUMP JUMPDEST PUSH1 0x4 DUP4 DUP2 ADD SLOAD PUSH1 0x1 DUP6 ADD SLOAD PUSH1 0x2 DUP7 ADD SLOAD PUSH1 0x40 MLOAD PUSH4 0x95858551 PUSH1 0xE0 SHL DUP2 MSTORE SWAP4 DUP5 ADD SWAP3 SWAP1 SWAP3 MSTORE PUSH1 0x24 DUP4 ADD MSTORE PUSH1 0x1 PUSH1 0x1 PUSH1 0xA0 SHL SUB SWAP1 DUP2 AND PUSH1 0x44 DUP4 ADD MSTORE SWAP2 SWAP3 POP SWAP1 DUP3 AND SWAP1 PUSH4 0x95858551 SWAP1 PUSH1 0x64 ADD PUSH1 0x0 PUSH1 0x40 MLOAD DUP1 DUP4 SUB DUP2 PUSH1 0x0 DUP8 DUP1 EXTCODESIZE ISZERO DUP1 ISZERO PUSH2 0xAB1 JUMPI PUSH1 0x0 DUP1 REVERT JUMPDEST POP GAS CALL ISZERO DUP1 ISZERO PUSH2 0xAC5 JUMPI RETURNDATASIZE PUSH1 0x0 DUP1 RETURNDATACOPY RETURNDATASIZE PUSH1 0x0 REVERT JUMPDEST POP POP PUSH1 0x1 DUP1 SLOAD PUSH1 0x3 DUP7 ADD SLOAD SWAP2 DUP7 ADD SLOAD PUSH1 0x40 MLOAD PUSH4 0x3E4DA981 PUSH1 0xE2 SHL DUP2 MSTORE PUSH1 0x1 PUSH1 0x1 PUSH1 0xA0 SHL SUB SWAP3 DUP4 AND SWAP6 POP PUSH4 0xF936A604 SWAP5 POP PUSH2 0xB09 SWAP4 SWAP1 SWAP3 AND SWAP2 PUSH1 0x5 SWAP2 SWAP1 PUSH1 0x4 ADD PUSH2 0x1339 JUMP JUMPDEST PUSH1 0x0 PUSH1 0x40 MLOAD DUP1 DUP4 SUB DUP2 PUSH1 0x0 DUP8 DUP1 EXTCODESIZE ISZERO DUP1 ISZERO PUSH2 0xB23 JUMPI PUSH1 0x0 DUP1 REVERT JUMPDEST POP GAS CALL ISZERO DUP1 ISZERO PUSH2 0xB37 JUMPI RETURNDATASIZE PUSH1 0x0 DUP1 RETURNDATACOPY RETURNDATASIZE PUSH1 0x0 REVERT JUMPDEST POP POP POP PUSH1 0x4 DUP4 ADD SLOAD PUSH1 0x40 DUP1 MLOAD SWAP2 DUP3 MSTORE PUSH1 0x1 PUSH1 0x1 PUSH1 0xA0 SHL SUB DUP5 AND PUSH1 0x20 DUP4 ADD MSTORE DUP7 SWAP3 POP PUSH32 0x77AE879D41D2BE50916723BC3ADEBCD9CEF73B5ACB83D08CDAB4F9531A45C1A2 SWAP2 ADD PUSH1 0x40 MLOAD DUP1 SWAP2 SUB SWAP1 LOG2 POP POP POP POP JUMP JUMPDEST PUSH1 0x0 PUSH1 0x2 DUP3 PUSH1 0x4 ADD SLOAD PUSH2 0xB9C SWAP2 SWAP1 PUSH2 0x13C2 JUMP JUMPDEST PUSH1 0x6 DUP4 ADD DUP1 SLOAD PUSH1 0xFF NOT AND PUSH1 0x5 OR SWAP1 SSTORE PUSH1 0x40 MLOAD DUP2 DUP2 MSTORE SWAP1 SWAP2 POP DUP5 SWAP1 PUSH32 0x21CABC2FFF910E5AFD1E2BCB22FF2B165A41AB0AFBAF364F07AAF2F7787FB908 SWAP1 PUSH1 0x20 ADD PUSH1 0x40 MLOAD DUP1 SWAP2 SUB SWAP1 LOG2 PUSH1 0x1 SLOAD PUSH1 0x3 DUP4 ADD SLOAD PUSH1 0x40 MLOAD PUSH4 0x77C4618F PUSH1 0xE1 SHL DUP2 MSTORE PUSH1 0x1 PUSH1 0x1 PUSH1 0xA0 SHL SUB SWAP2 DUP3 AND PUSH1 0x4 DUP3 ADD MSTORE PUSH1 0x0 SWAP3 SWAP2 SWAP1 SWAP2 AND SWAP1 PUSH4 0xEF88C31E SWAP1 PUSH1 0x24 ADD PUSH1 0x20 PUSH1 0x40 MLOAD DUP1 DUP4 SUB DUP2 DUP7 GAS STATICCALL ISZERO DUP1 ISZERO PUSH2 0xC36 JUMPI RETURNDATASIZE PUSH1 0x0 DUP1 RETURNDATACOPY RETURNDATASIZE PUSH1 0x0 REVERT JUMPDEST POP POP POP POP PUSH1 0x40 MLOAD RETURNDATASIZE PUSH1 0x1F NOT PUSH1 0x1F DUP3 ADD AND DUP3 ADD DUP1 PUSH1 0x40 MSTORE POP DUP2 ADD SWAP1 PUSH2 0xC5A SWAP2 SWAP1 PUSH2 0x1315 JUMP JUMPDEST PUSH1 0x1 DUP5 ADD SLOAD PUSH1 0x2 DUP6 ADD SLOAD PUSH1 0x40 MLOAD PUSH4 0x95858551 PUSH1 0xE0 SHL DUP2 MSTORE PUSH1 0x4 DUP2 ADD DUP7 SWAP1 MSTORE PUSH1 0x24 DUP2 ADD SWAP3 SWAP1 SWAP3 MSTORE PUSH1 0x1 PUSH1 0x1 PUSH1 0xA0 SHL SUB SWAP1 DUP2 AND PUSH1 0x44 DUP4 ADD MSTORE SWAP2 SWAP3 POP SWAP1 DUP3 AND SWAP1 PUSH4 0x95858551 SWAP1 PUSH1 0x64 ADD PUSH1 0x0 PUSH1 0x40 MLOAD DUP1 DUP4 SUB DUP2 PUSH1 0x0 DUP8 DUP1 EXTCODESIZE ISZERO DUP1 ISZERO PUSH2 0xCBA JUMPI PUSH1 0x0 DUP1 REVERT JUMPDEST POP GAS CALL ISZERO DUP1 ISZERO PUSH2 0xCCE JUMPI RETURNDATASIZE PUSH1 0x0 DUP1 RETURNDATACOPY RETURNDATASIZE PUSH1 0x0 REVERT JUMPDEST POP POP PUSH1 0x1 DUP1 SLOAD PUSH1 0x3 DUP8 ADD SLOAD SWAP2 DUP8 ADD SLOAD PUSH1 0x40 MLOAD PUSH4 0x3E4DA981 PUSH1 0xE2 SHL DUP2 MSTORE PUSH1 0x1 PUSH1 0x1 PUSH1 0xA0 SHL SUB SWAP3 DUP4 AND SWAP6 POP PUSH4 0xF936A604 SWAP5 POP PUSH2 0xD13 SWAP4 SWAP1 SWAP3 AND SWAP2 PUSH1 0x4 NOT SWAP2 SWAP1 PUSH1 0x4 ADD PUSH2 0x1339 JUMP JUMPDEST PUSH1 0x0 PUSH1 0x40 MLOAD DUP1 DUP4 SUB DUP2 PUSH1 0x0 DUP8 DUP1 EXTCODESIZE ISZERO DUP1 ISZERO PUSH2 0xD2D JUMPI PUSH1 0x0 DUP1 REVERT JUMPDEST POP GAS CALL ISZERO DUP1 ISZERO PUSH2 0xD41 JUMPI RETURNDATASIZE PUSH1 0x0 DUP1 RETURNDATACOPY RETURNDATASIZE PUSH1 0x0 REVERT JUMPDEST POP POP PUSH1 0x40 DUP1 MLOAD DUP6 DUP2 MSTORE PUSH1 0x1 PUSH1 0x1 PUSH1 0xA0 SHL SUB DUP6 AND PUSH1 0x20 DUP3 ADD MSTORE DUP9 SWAP4 POP PUSH32 0x77AE879D41D2BE50916723BC3ADEBCD9CEF73B5ACB83D08CDAB4F9531A45C1A2 SWAP3 POP ADD PUSH2 0x634 JUMP JUMPDEST PUSH1 0x2 SLOAD PUSH1 0x1 PUSH1 0x1 PUSH1 0xA0 SHL SUB AND CALLER EQ PUSH2 0xDDF JUMPI PUSH1 0x40 MLOAD PUSH3 0x461BCD PUSH1 0xE5 SHL DUP2 MSTORE PUSH1 0x20 PUSH1 0x4 DUP3 ADD MSTORE PUSH1 0x17 PUSH1 0x24 DUP3 ADD MSTORE PUSH32 0x4F6E6C79206E65676F74696174696F6E20656E67696E65000000000000000000 PUSH1 0x44 DUP3 ADD MSTORE PUSH1 0x64 ADD PUSH2 0x30E JUMP JUMPDEST PUSH1 0x2 SLOAD PUSH1 0x40 MLOAD PUSH4 0x48B8270F PUSH1 0xE1 SHL DUP2 MSTORE PUSH1 0x4 DUP2 ADD DUP6 SWAP1 MSTORE PUSH1 0x0 SWAP2 PUSH1 0x1 PUSH1 0x1 PUSH1 0xA0 SHL SUB AND SWAP1 PUSH4 0x91704E1E SWAP1 PUSH1 0x24 ADD PUSH1 0x0 PUSH1 0x40 MLOAD DUP1 DUP4 SUB DUP2 DUP7 GAS STATICCALL ISZERO DUP1 ISZERO PUSH2 0xE29 JUMPI RETURNDATASIZE PUSH1 0x0 DUP1 RETURNDATACOPY RETURNDATASIZE PUSH1 0x0 REVERT JUMPDEST POP POP POP POP PUSH1 0x40 MLOAD RETURNDATASIZE PUSH1 0x0 DUP3 RETURNDATACOPY PUSH1 0x1F RETURNDATASIZE SWAP1 DUP2 ADD PUSH1 0x1F NOT AND DUP3 ADD PUSH1 0x40 MSTORE PUSH2 0xE51 SWAP2 SWAP1 DUP2 ADD SWAP1 PUSH2 0x15C3 JUMP JUMPDEST SWAP1 POP PUSH1 0x2 DUP2 PUSH1 0xC0 ADD MLOAD PUSH1 0x4 DUP2 GT ISZERO PUSH2 0xE6B JUMPI PUSH2 0xE6B PUSH2 0x11B2 JUMP JUMPDEST EQ PUSH2 0xEAB JUMPI PUSH1 0x40 MLOAD PUSH3 0x461BCD PUSH1 0xE5 SHL DUP2 MSTORE PUSH1 0x20 PUSH1 0x4 DUP3 ADD MSTORE PUSH1 0x10 PUSH1 0x24 DUP3 ADD MSTORE PUSH16 0x109A59081B9BDD081858D8D95C1D1959 PUSH1 0x82 SHL PUSH1 0x44 DUP3 ADD MSTORE PUSH1 0x64 ADD PUSH2 0x30E JUMP JUMPDEST PUSH1 0x0 DUP5 NUMBER PUSH1 0x40 MLOAD PUSH1 0x20 ADD PUSH2 0xEC9 SWAP3 SWAP2 SWAP1 SWAP2 DUP3 MSTORE PUSH1 0x20 DUP3 ADD MSTORE PUSH1 0x40 ADD SWAP1 JUMP JUMPDEST PUSH1 0x40 DUP1 MLOAD PUSH1 0x1F NOT DUP2 DUP5 SUB ADD DUP2 MSTORE SWAP2 DUP2 MSTORE DUP2 MLOAD PUSH1 0x20 SWAP3 DUP4 ADD KECCAK256 PUSH1 0x0 DUP2 DUP2 MSTORE PUSH1 0x5 SWAP1 SWAP4 MSTORE SWAP2 KECCAK256 PUSH1 0x2 ADD SLOAD SWAP1 SWAP2 POP PUSH1 0x1 PUSH1 0x1 PUSH1 0xA0 SHL SUB AND ISZERO PUSH2 0xF3A JUMPI PUSH1 0x40 MLOAD PUSH3 0x461BCD PUSH1 0xE5 SHL DUP2 MSTORE PUSH1 0x20 PUSH1 0x4 DUP3 ADD MSTORE PUSH1 0xD PUSH1 0x24 DUP3 ADD MSTORE PUSH13 0x457363726F7720657869737473 PUSH1 0x98 SHL PUSH1 0x44 DUP3 ADD MSTORE PUSH1 0x64 ADD PUSH2 0x30E JUMP JUMPDEST PUSH1 0x0 DUP2 DUP2 MSTORE PUSH1 0x5 PUSH1 0x20 MSTORE PUSH1 0x40 SWAP1 DUP2 SWAP1 KECCAK256 DUP3 DUP2 SSTORE PUSH1 0x1 DUP2 ADD DUP8 SWAP1 SSTORE SWAP1 DUP4 ADD MLOAD PUSH1 0x2 DUP3 ADD DUP1 SLOAD PUSH1 0x1 PUSH1 0x1 PUSH1 0xA0 SHL SUB SWAP3 DUP4 AND PUSH1 0x1 PUSH1 0x1 PUSH1 0xA0 SHL SUB NOT SWAP2 DUP3 AND OR SWAP1 SWAP2 SSTORE PUSH1 0x60 DUP6 ADD MLOAD PUSH1 0x3 DUP5 ADD DUP1 SLOAD SWAP2 SWAP1 SWAP4 AND SWAP2 AND OR SWAP1 SSTORE PUSH1 0x4 DUP2 ADD DUP6 SWAP1 SSTORE PUSH2 0xF9E DUP5 NUMBER PUSH2 0x16B3 JUMP JUMPDEST PUSH1 0x5 DUP3 ADD SWAP1 DUP2 SSTORE PUSH1 0x6 DUP3 ADD DUP1 SLOAD PUSH2 0xFFFF NOT AND PUSH2 0x301 OR SWAP1 SSTORE PUSH1 0x7 DUP1 SLOAD PUSH1 0x1 DUP2 ADD DUP3 SSTORE PUSH1 0x0 SWAP2 SWAP1 SWAP2 MSTORE PUSH32 0xA66CC928B5EDB82AF9BD49922954155AB7B0942694BEA4CE44661D9A8736C688 ADD DUP4 SWAP1 SSTORE PUSH1 0x40 DUP5 DUP2 ADD MLOAD PUSH1 0x60 DUP1 DUP8 ADD MLOAD SWAP4 SLOAD DUP4 MLOAD DUP12 DUP2 MSTORE PUSH1 0x1 PUSH1 0x1 PUSH1 0xA0 SHL SUB SWAP4 DUP5 AND PUSH1 0x20 DUP3 ADD MSTORE SWAP3 SWAP1 SWAP5 AND DUP3 DUP5 ADD MSTORE DUP2 ADD DUP9 SWAP1 MSTORE PUSH1 0x80 DUP2 ADD SWAP3 SWAP1 SWAP3 MSTORE MLOAD DUP4 SWAP2 PUSH32 0x485FC3DC1012F8904E8502067559A069EA16BF63F18F902337FAD95FEAF87610 SWAP2 SWAP1 DUP2 SWAP1 SUB PUSH1 0xA0 ADD SWAP1 LOG2 POP POP POP POP POP POP JUMP JUMPDEST PUSH1 0x4 SLOAD PUSH1 0x1 PUSH1 0x1 PUSH1 0xA0 SHL SUB AND CALLER EQ PUSH2 0x10A5 JUMPI PUSH1 0x40 MLOAD PUSH3 0x461BCD PUSH1 0xE5 SHL DUP2 MSTORE PUSH1 0x20 PUSH1 0x4 DUP3 ADD MSTORE PUSH1 0xF PUSH1 0x24 DUP3 ADD MSTORE PUSH15 0x4F6E6C7920676F7665726E616E6365 PUSH1 0x88 SHL PUSH1 0x44 DUP3 ADD MSTORE PUSH1 0x64 ADD PUSH2 0x30E JUMP JUMPDEST PUSH1 0x0 DUP2 DUP2 MSTORE PUSH1 0x5 PUSH1 0x20 MSTORE PUSH1 0x40 SWAP1 KECCAK256 PUSH1 0x4 ADD SLOAD PUSH10 0x21E19E0C9BAB2400000 LT PUSH2 0x1102 JUMPI PUSH1 0x40 MLOAD PUSH3 0x461BCD PUSH1 0xE5 SHL DUP2 MSTORE PUSH1 0x20 PUSH1 0x4 DUP3 ADD MSTORE PUSH1 0x10 PUSH1 0x24 DUP3 ADD MSTORE PUSH16 0x4E6F742061206C61726765207461736B PUSH1 0x80 SHL PUSH1 0x44 DUP3 ADD MSTORE PUSH1 0x64 ADD PUSH2 0x30E JUMP JUMPDEST PUSH1 0x0 SWAP1 DUP2 MSTORE PUSH1 0x6 PUSH1 0x20 MSTORE PUSH1 0x40 SWAP1 KECCAK256 DUP1 SLOAD PUSH1 0xFF NOT AND PUSH1 0x1 OR SWAP1 SSTORE JUMP JUMPDEST PUSH1 0x0 DUP1 PUSH1 0x0 PUSH1 0x40 DUP5 DUP7 SUB SLT ISZERO PUSH2 0x1132 JUMPI PUSH1 0x0 DUP1 REVERT JUMPDEST DUP4 CALLDATALOAD SWAP3 POP PUSH1 0x20 DUP5 ADD CALLDATALOAD PUSH8 0xFFFFFFFFFFFFFFFF DUP1 DUP3 GT ISZERO PUSH2 0x1151 JUMPI PUSH1 0x0 DUP1 REVERT JUMPDEST DUP2 DUP7 ADD SWAP2 POP DUP7 PUSH1 0x1F DUP4 ADD SLT PUSH2 0x1165 JUMPI PUSH1 0x0 DUP1 REVERT JUMPDEST DUP2 CALLDATALOAD DUP2 DUP2 GT ISZERO PUSH2 0x1174 JUMPI PUSH1 0x0 DUP1 REVERT JUMPDEST DUP8 PUSH1 0x20 DUP3 DUP6 ADD ADD GT ISZERO PUSH2 0x1186 JUMPI PUSH1 0x0 DUP1 REVERT JUMPDEST PUSH1 0x20 DUP4 ADD SWAP5 POP DUP1 SWAP4 POP POP POP POP SWAP3 POP SWAP3 POP SWAP3 JUMP JUMPDEST PUSH1 0x0 PUSH1 0x20 DUP3 DUP5 SUB SLT ISZERO PUSH2 0x11AB JUMPI PUSH1 0x0 DUP1 REVERT JUMPDEST POP CALLDATALOAD SWAP2 SWAP1 POP JUMP JUMPDEST PUSH4 0x4E487B71 PUSH1 0xE0 SHL PUSH1 0x0 MSTORE PUSH1 0x21 PUSH1 0x4 MSTORE PUSH1 0x24 PUSH1 0x0 REVERT JUMPDEST PUSH1 0x5 DUP2 LT PUSH2 0x11D8 JUMPI PUSH2 0x11D8 PUSH2 0x11B2 JUMP JUMPDEST SWAP1 MSTORE JUMP JUMPDEST DUP9 DUP2 MSTORE PUSH1 0x20 DUP2 ADD DUP9 SWAP1 MSTORE PUSH1 0x1 PUSH1 0x1 PUSH1 0xA0 SHL SUB DUP8 DUP2 AND PUSH1 0x40 DUP4 ADD MSTORE DUP7 AND PUSH1 0x60 DUP3 ADD MSTORE PUSH1 0x80 DUP2 ADD DUP6 SWAP1 MSTORE PUSH1 0xA0 DUP2 ADD DUP5 SWAP1 MSTORE PUSH2 0x100 DUP2 ADD PUSH1 0x7 DUP5 LT PUSH2 0x1220 JUMPI PUSH2 0x1220 PUSH2 0x11B2 JUMP JUMPDEST DUP4 PUSH1 0xC0 DUP4 ADD MSTORE PUSH2 0x1233 PUSH1 0xE0 DUP4 ADD DUP5 PUSH2 0x11C8 JUMP JUMPDEST SWAP10 SWAP9 POP POP POP POP POP POP POP POP POP JUMP JUMPDEST PUSH1 0x1 PUSH1 0x1 PUSH1 0xA0 SHL SUB DUP2 AND DUP2 EQ PUSH2 0x1255 JUMPI PUSH1 0x0 DUP1 REVERT JUMPDEST POP JUMP JUMPDEST PUSH1 0x0 DUP1 PUSH1 0x0 PUSH1 0x60 DUP5 DUP7 SUB SLT ISZERO PUSH2 0x126D JUMPI PUSH1 0x0 DUP1 REVERT JUMPDEST DUP4 CALLDATALOAD PUSH2 0x1278 DUP2 PUSH2 0x1240 JUMP JUMPDEST SWAP3 POP PUSH1 0x20 DUP5 ADD CALLDATALOAD PUSH2 0x1288 DUP2 PUSH2 0x1240 JUMP JUMPDEST SWAP2 POP PUSH1 0x40 DUP5 ADD CALLDATALOAD PUSH2 0x1298 DUP2 PUSH2 0x1240 JUMP JUMPDEST DUP1 SWAP2 POP POP SWAP3 POP SWAP3 POP SWAP3 JUMP JUMPDEST PUSH1 0x0 DUP1 PUSH1 0x40 DUP4 DUP6 SUB SLT ISZERO PUSH2 0x12B6 JUMPI PUSH1 0x0 DUP1 REVERT JUMPDEST DUP3 CALLDATALOAD SWAP2 POP PUSH1 0x20 DUP4 ADD CALLDATALOAD PUSH1 0xFF DUP2 AND DUP2 EQ PUSH2 0x12CE JUMPI PUSH1 0x0 DUP1 REVERT JUMPDEST DUP1 SWAP2 POP POP SWAP3 POP SWAP3 SWAP1 POP JUMP JUMPDEST PUSH1 0x0 DUP1 PUSH1 0x0 PUSH1 0x60 DUP5 DUP7 SUB SLT ISZERO PUSH2 0x12EE JUMPI PUSH1 0x0 DUP1 REVERT JUMPDEST POP POP DUP2 CALLDATALOAD SWAP4 PUSH1 0x20 DUP4 ADD CALLDATALOAD SWAP4 POP PUSH1 0x40 SWAP1 SWAP3 ADD CALLDATALOAD SWAP2 SWAP1 POP JUMP JUMPDEST DUP1 MLOAD PUSH2 0x1310 DUP2 PUSH2 0x1240 JUMP JUMPDEST SWAP2 SWAP1 POP JUMP JUMPDEST PUSH1 0x0 PUSH1 0x20 DUP3 DUP5 SUB SLT ISZERO PUSH2 0x1327 JUMPI PUSH1 0x0 DUP1 REVERT JUMPDEST DUP2 MLOAD PUSH2 0x1332 DUP2 PUSH2 0x1240 JUMP JUMPDEST SWAP4 SWAP3 POP POP POP JUMP JUMPDEST PUSH1 0x1 PUSH1 0x1 PUSH1 0xA0 SHL SUB SWAP4 SWAP1 SWAP4 AND DUP4 MSTORE PUSH1 0x20 DUP4 ADD SWAP2 SWAP1 SWAP2 MSTORE PUSH1 0x40 DUP3 ADD MSTORE PUSH1 0x60 ADD SWAP1 JUMP JUMPDEST DUP2 DUP4 MSTORE DUP2 DUP2 PUSH1 0x20 DUP6 ADD CALLDATACOPY POP PUSH1 0x0 DUP3 DUP3 ADD PUSH1 0x20 SWAP1 DUP2 ADD SWAP2 SWAP1 SWAP2 MSTORE PUSH1 0x1F SWAP1 SWAP2 ADD PUSH1 0x1F NOT AND SWAP1 SWAP2 ADD ADD SWAP1 JUMP JUMPDEST PUSH1 0x40 DUP2 MSTORE PUSH1 0x0 PUSH2 0x1397 PUSH1 0x40 DUP4 ADD DUP6 DUP8 PUSH2 0x135A JUMP JUMPDEST SWAP1 POP PUSH2 0x13A6 PUSH1 0x20 DUP4 ADD DUP5 PUSH2 0x11C8 JUMP JUMPDEST SWAP5 SWAP4 POP POP POP POP JUMP JUMPDEST PUSH1 0x20 DUP2 MSTORE PUSH1 0x0 PUSH2 0x13A6 PUSH1 0x20 DUP4 ADD DUP5 DUP7 PUSH2 0x135A JUMP JUMPDEST PUSH1 0x0 DUP3 PUSH2 0x13DF JUMPI PUSH4 0x4E487B71 PUSH1 0xE0 SHL PUSH1 0x0 MSTORE PUSH1 0x12 PUSH1 0x4 MSTORE PUSH1 0x24 PUSH1 0x0 REVERT JUMPDEST POP DIV SWAP1 JUMP JUMPDEST PUSH4 0x4E487B71 PUSH1 0xE0 SHL PUSH1 0x0 MSTORE PUSH1 0x41 PUSH1 0x4 MSTORE PUSH1 0x24 PUSH1 0x0 REVERT JUMPDEST PUSH1 0x40 MLOAD PUSH1 0x60 DUP2 ADD PUSH8 0xFFFFFFFFFFFFFFFF DUP2 GT DUP3 DUP3 LT OR ISZERO PUSH2 0x141D JUMPI PUSH2 0x141D PUSH2 0x13E4 JUMP JUMPDEST PUSH1 0x40 MSTORE SWAP1 JUMP JUMPDEST PUSH1 0x40 MLOAD PUSH2 0x120 DUP2 ADD PUSH8 0xFFFFFFFFFFFFFFFF DUP2 GT DUP3 DUP3 LT OR ISZERO PUSH2 0x141D JUMPI PUSH2 0x141D PUSH2 0x13E4 JUMP JUMPDEST PUSH1 0x40 MLOAD PUSH1 0x1F DUP3 ADD PUSH1 0x1F NOT AND DUP2 ADD PUSH8 0xFFFFFFFFFFFFFFFF DUP2 GT DUP3 DUP3 LT OR ISZERO PUSH2 0x1470 JUMPI PUSH2 0x1470 PUSH2 0x13E4 JUMP JUMPDEST PUSH1 0x40 MSTORE SWAP2 SWAP1 POP JUMP JUMPDEST PUSH1 0x0 DUP3 PUSH1 0x1F DUP4 ADD SLT PUSH2 0x1489 JUMPI PUSH1 0x0 DUP1 REVERT JUMPDEST DUP2 MLOAD PUSH8 0xFFFFFFFFFFFFFFFF DUP2 GT ISZERO PUSH2 0x14A3 JUMPI PUSH2 0x14A3 PUSH2 0x13E4 JUMP JUMPDEST PUSH1 0x20 PUSH2 0x14B7 PUSH1 0x1F DUP4 ADD PUSH1 0x1F NOT AND DUP3 ADD PUSH2 0x1447 JUMP JUMPDEST DUP3 DUP2 MSTORE DUP6 DUP3 DUP5 DUP8 ADD ADD GT ISZERO PUSH2 0x14CB JUMPI PUSH1 0x0 DUP1 REVERT JUMPDEST PUSH1 0x0 JUMPDEST DUP4 DUP2 LT ISZERO PUSH2 0x14E9 JUMPI DUP6 DUP2 ADD DUP4 ADD MLOAD DUP3 DUP3 ADD DUP5 ADD MSTORE DUP3 ADD PUSH2 0x14CE JUMP JUMPDEST POP PUSH1 0x0 SWAP3 DUP2 ADD SWAP1 SWAP2 ADD SWAP2 SWAP1 SWAP2 MSTORE SWAP4 SWAP3 POP POP POP JUMP JUMPDEST DUP1 MLOAD PUSH1 0x5 DUP2 LT PUSH2 0x1310 JUMPI PUSH1 0x0 DUP1 REVERT JUMPDEST PUSH1 0x0 DUP3 PUSH1 0x1F DUP4 ADD SLT PUSH2 0x151D JUMPI PUSH1 0x0 DUP1 REVERT JUMPDEST DUP2 MLOAD PUSH1 0x20 PUSH8 0xFFFFFFFFFFFFFFFF DUP3 GT ISZERO PUSH2 0x1539 JUMPI PUSH2 0x1539 PUSH2 0x13E4 JUMP JUMPDEST PUSH2 0x1547 DUP2 DUP4 PUSH1 0x5 SHL ADD PUSH2 0x1447 JUMP JUMPDEST DUP3 DUP2 MSTORE PUSH1 0x60 SWAP3 DUP4 MUL DUP6 ADD DUP3 ADD SWAP3 DUP3 DUP3 ADD SWAP2 SWAP1 DUP8 DUP6 GT ISZERO PUSH2 0x1566 JUMPI PUSH1 0x0 DUP1 REVERT JUMPDEST DUP4 DUP8 ADD JUMPDEST DUP6 DUP2 LT ISZERO PUSH2 0x15B6 JUMPI DUP2 DUP2 DUP11 SUB SLT ISZERO PUSH2 0x1582 JUMPI PUSH1 0x0 DUP1 DUP2 REVERT JUMPDEST PUSH2 0x158A PUSH2 0x13FA JUMP JUMPDEST DUP2 MLOAD DUP2 MSTORE DUP6 DUP3 ADD MLOAD PUSH2 0x159B DUP2 PUSH2 0x1240 JUMP JUMPDEST DUP2 DUP8 ADD MSTORE PUSH1 0x40 DUP3 DUP2 ADD MLOAD SWAP1 DUP3 ADD MSTORE DUP5 MSTORE SWAP3 DUP5 ADD SWAP3 DUP2 ADD PUSH2 0x156A JUMP JUMPDEST POP SWAP1 SWAP8 SWAP7 POP POP POP POP POP POP POP JUMP JUMPDEST PUSH1 0x0 PUSH1 0x20 DUP3 DUP5 SUB SLT ISZERO PUSH2 0x15D5 JUMPI PUSH1 0x0 DUP1 REVERT JUMPDEST DUP2 MLOAD PUSH8 0xFFFFFFFFFFFFFFFF DUP1 DUP3 GT ISZERO PUSH2 0x15ED JUMPI PUSH1 0x0 DUP1 REVERT JUMPDEST SWAP1 DUP4 ADD SWAP1 PUSH2 0x120 DUP3 DUP7 SUB SLT ISZERO PUSH2 0x1602 JUMPI PUSH1 0x0 DUP1 REVERT JUMPDEST PUSH2 0x160A PUSH2 0x1423 JUMP JUMPDEST DUP3 MLOAD DUP2 MSTORE PUSH1 0x20 DUP4 ADD MLOAD DUP3 DUP2 GT ISZERO PUSH2 0x1620 JUMPI PUSH1 0x0 DUP1 REVERT JUMPDEST PUSH2 0x162C DUP8 DUP3 DUP7 ADD PUSH2 0x1478 JUMP JUMPDEST PUSH1 0x20 DUP4 ADD MSTORE POP PUSH2 0x163E PUSH1 0x40 DUP5 ADD PUSH2 0x1305 JUMP JUMPDEST PUSH1 0x40 DUP3 ADD MSTORE PUSH2 0x164F PUSH1 0x60 DUP5 ADD PUSH2 0x1305 JUMP JUMPDEST PUSH1 0x60 DUP3 ADD MSTORE PUSH1 0x80 DUP4 ADD MLOAD PUSH1 0x80 DUP3 ADD MSTORE PUSH1 0xA0 DUP4 ADD MLOAD PUSH1 0xA0 DUP3 ADD MSTORE PUSH2 0x1674 PUSH1 0xC0 DUP5 ADD PUSH2 0x14FD JUMP JUMPDEST PUSH1 0xC0 DUP3 ADD MSTORE PUSH1 0xE0 DUP4 ADD MLOAD DUP3 DUP2 GT ISZERO PUSH2 0x168B JUMPI PUSH1 0x0 DUP1 REVERT JUMPDEST PUSH2 0x1697 DUP8 DUP3 DUP7 ADD PUSH2 0x150C JUMP JUMPDEST PUSH1 0xE0 DUP4 ADD MSTORE POP PUSH2 0x100 SWAP3 DUP4 ADD MLOAD SWAP3 DUP2 ADD SWAP3 SWAP1 SWAP3 MSTORE POP SWAP4 SWAP3 POP POP POP JUMP JUMPDEST DUP1 DUP3 ADD DUP1 DUP3 GT ISZERO PUSH2 0x16D4 JUMPI PUSH4 0x4E487B71 PUSH1 0xE0 SHL PUSH1 0x0 MSTORE PUSH1 0x11 PUSH1 0x4 MSTORE PUSH1 0x24 PUSH1 0x0 REVERT JUMPDEST SWAP3 SWAP2 POP POP JUMP INVALID LOG2 PUSH5 0x6970667358 0x22 SLT KECCAK256 SWAP12 REVERT DUP1 0xD1 TIMESTAMP 0x22 CALL PUSH28 0x5C30A7109B0328E304702A5B2F002676D2C5BDAA26D161D464736F6C PUSH4 0x43000814 STOP CALLER "},"methodIdentifiers":{"activeEscrows(uint256)":"53bac786","approveLargeTask(bytes32)":"dd3e9dc9","disputeResolver()":"f5a3f4af","escrows(bytes32)":"2d83549c","governance()":"5aa6e675","largeTaskApproved(bytes32)":"f7c9be49","lockFunds(bytes32,uint256,uint256)":"d1250e77","negotiation()":"cd2fc04a","openDispute(bytes32,string)":"31ea5596","owner()":"8da5cb5b","registry()":"7b103999","resolveDispute(bytes32,uint8)":"b641237c","setEngines(address,address,address)":"6971c967","verifyAndRelease(bytes32,string)":"2c06c3a8"}}}}}