{"contracts/AgentRegistryAndVault.sol":{"VaultWallet":{"abi":[{"anonymous":false,"inputs":[{"indexed":false,"internalType":"bytes32","name":"taskId","type":"bytes32"},{"indexed":false,"internalType":"uint256","name":"totalAmount","type":"uint256"},{"indexed":false,"internalType":"uint256","name":"lockAmount","type":"uint256"},{"indexed":false,"internalType":"uint256","name":"holdAmount","type":"uint256"}],"name":"PaymentProcessed","type":"event"},{"anonymous":false,"inputs":[{"indexed":false,"internalType":"address","name":"vault","type":"address"},{"indexed":false,"internalType":"uint16","name":"lockBps","type":"uint16"},{"indexed":false,"internalType":"uint16","name":"holdBps","type":"uint16"}],"name":"RoutingUpdated","type":"event"},{"anonymous":false,"inputs":[{"indexed":false,"internalType":"address","name":"vault","type":"address"},{"indexed":false,"internalType":"address","name":"recipient","type":"address"},{"indexed":false,"internalType":"uint256","name":"amount","type":"uint256"}],"name":"Withdrawal","type":"event"},{"inputs":[],"name":"availableBalance","outputs":[{"internalType":"uint256","name":"","type":"uint256"}],"stateMutability":"view","type":"function"},{"inputs":[],"name":"claimUnlocked","outputs":[],"stateMutability":"nonpayable","type":"function"},{"inputs":[],"name":"currency","outputs":[{"internalType":"address","name":"","type":"address"}],"stateMutability":"view","type":"function"},{"inputs":[],"name":"currentHoldBps","outputs":[{"internalType":"uint16","name":"","type":"uint16"}],"stateMutability":"view","type":"function"},{"inputs":[],"name":"currentLockBps","outputs":[{"internalType":"uint16","name":"","type":"uint16"}],"stateMutability":"view","type":"function"},{"inputs":[{"internalType":"uint256","name":"","type":"uint256"}],"name":"currentSplits","outputs":[{"internalType":"address","name":"recipient","type":"address"},{"internalType":"uint16","name":"bps","type":"uint16"}],"stateMutability":"view","type":"function"},{"inputs":[],"name":"getBalance","outputs":[{"internalType":"uint256","name":"available","type":"uint256"},{"internalType":"uint256","name":"locked","type":"uint256"},{"internalType":"uint256","name":"total","type":"uint256"}],"stateMutability":"view","type":"function"},{"inputs":[],"name":"getRouting","outputs":[{"components":[{"internalType":"address","name":"recipient","type":"address"},{"internalType":"uint16","name":"bps","type":"uint16"}],"internalType":"struct IVaultWallet.SplitRecipient[]","name":"splits","type":"tuple[]"},{"internalType":"uint16","name":"lockBps","type":"uint16"},{"internalType":"uint16","name":"holdBps","type":"uint16"}],"stateMutability":"view","type":"function"},{"inputs":[{"internalType":"address","name":"_owner","type":"address"},{"internalType":"address","name":"_taskEscrow","type":"address"},{"internalType":"address","name":"_currency","type":"address"}],"name":"initialize","outputs":[],"stateMutability":"nonpayable","type":"function"},{"inputs":[],"name":"initialized","outputs":[{"internalType":"bool","name":"","type":"bool"}],"stateMutability":"view","type":"function"},{"inputs":[],"name":"lockedBalance","outputs":[{"internalType":"uint256","name":"","type":"uint256"}],"stateMutability":"view","type":"function"},{"inputs":[],"name":"owner","outputs":[{"internalType":"address","name":"","type":"address"}],"stateMutability":"view","type":"function"},{"inputs":[{"internalType":"uint256","name":"amount","type":"uint256"},{"internalType":"bytes32","name":"taskId","type":"bytes32"},{"internalType":"address","name":"payer","type":"address"}],"name":"receivePayment","outputs":[],"stateMutability":"nonpayable","type":"function"},{"inputs":[{"components":[{"internalType":"address","name":"recipient","type":"address"},{"internalType":"uint16","name":"bps","type":"uint16"}],"internalType":"struct IVaultWallet.SplitRecipient[]","name":"splits","type":"tuple[]"},{"internalType":"uint16","name":"lockBps","type":"uint16"},{"internalType":"uint16","name":"holdBps","type":"uint16"}],"name":"setRouting","outputs":[],"stateMutability":"nonpayable","type":"function"},{"inputs":[],"name":"taskEscrow","outputs":[{"internalType":"address","name":"","type":"address"}],"stateMutability":"view","type":"function"},{"inputs":[{"internalType":"uint256","name":"","type":"uint256"}],"name":"timeLocks","outputs":[{"internalType":"uint256","name":"amount","type":"uint256"},{"internalType":"uint256","name":"unlockBlock","type":"uint256"},{"internalType":"bytes32","name":"taskId","type":"bytes32"}],"stateMutability":"view","type":"function"},{"inputs":[{"internalType":"uint256","name":"amount","type":"uint256"},{"internalType":"address","name":"recipient","type":"address"}],"name":"withdraw","outputs":[],"stateMutability":"nonpayable","type":"function"}],"evm":{"bytecode":{"linkReferences":{},"object":"608060405234801561001057600080fd5b50610e1b806100206000396000f3fe608060405234801561001057600080fd5b506004361061010a5760003560e01c80637b80889b116100a25780639585855111610071578063958585511461025e578063ab2f0e5114610271578063b2debaaf1461027a578063c0c53b8b14610291578063e5a6b10f146102a457600080fd5b80637b80889b146101ec5780638da5cb5b146102035780638f2900d5146102165780638f76464d1461022957600080fd5b806327c4ffe1116100de57806327c4ffe1146101985780633892cc3e146101c3578063443e46a2146101d657806350e49764146101e457600080fd5b8062f714ce1461010f5780630312df521461012457806312065fe014610150578063158ef93e14610173575b600080fd5b61012261011d366004610ae3565b6102b7565b005b6007546101389062010000900461ffff1681565b60405161ffff90911681526020015b60405180910390f35b6101586103b8565b60408051938452602084019290925290820152606001610147565b60075461018890640100000000900460ff1681565b6040519015158152602001610147565b6001546101ab906001600160a01b031681565b6040516001600160a01b039091168152602001610147565b6101226101d1366004610b23565b6103de565b6007546101389061ffff1681565b6101226105be565b6101f560045481565b604051908152602001610147565b6000546101ab906001600160a01b031681565b610158610224366004610bba565b61070c565b61023c610237366004610bba565b61073f565b604080516001600160a01b03909316835261ffff909116602083015201610147565b61012261026c366004610bd3565b610775565b6101f560035481565b610282610954565b60405161014793929190610c0c565b61012261029f366004610c7d565b6109eb565b6002546101ab906001600160a01b031681565b6000546001600160a01b031633146103025760405162461bcd60e51b81526020600482015260096024820152682737ba1037bbb732b960b91b60448201526064015b60405180910390fd5b8160035410156103545760405162461bcd60e51b815260206004820152601e60248201527f496e73756666696369656e7420617661696c61626c652062616c616e6365000060448201526064016102f9565b81600360008282546103669190610cd3565b9091555050604080513081526001600160a01b03831660208201529081018390527f2717ead6b9200dd235aad468c9809ea400fe33ac69b5bfaa6d3e90fc922b63989060600160405180910390a15050565b60008060006003546004546004546003546103d39190610cec565b925092509250909192565b6000546001600160a01b031633146104245760405162461bcd60e51b81526020600482015260096024820152682737ba1037bbb732b960b91b60448201526064016102f9565b6000805b8481101561047c5785858281811061044257610442610cff565b905060400201602001602081019061045a9190610d15565b6104689061ffff1683610cec565b91508061047481610d39565b915050610428565b508161ffff168361ffff16826104929190610cec565b61049c9190610cec565b612710146104e45760405162461bcd60e51b81526020600482015260156024820152744d7573742073756d20746f2031303030302042505360581b60448201526064016102f9565b6104f060066000610a8a565b60005b8481101561055057600686868381811061050f5761050f610cff565b8354600181018555600094855260209094206040909102929092019291909101905061053b8282610d52565b5050808061054890610d39565b9150506104f3565b506007805461ffff85811663ffffffff19909216821762010000918616918202179092556040805130815260208101929092528101919091527f4c25f8d3ab0b0927c6b76eb8c03caa690e0f6269eaee15b89ea67c71121acaf9906060015b60405180910390a15050505050565b6000805b600554811015610694576000600582815481106105e1576105e1610cff565b90600052602060002090600302016000015411801561062457506005818154811061060e5761060e610cff565b9060005260206000209060030201600101544310155b15610682576005818154811061063c5761063c610cff565b906000526020600020906003020160000154826106599190610cec565b915060006005828154811061067057610670610cff565b60009182526020909120600390910201555b8061068c81610d39565b9150506105c2565b50600081116106d95760405162461bcd60e51b81526020600482015260116024820152704e6f20756e6c6f636b65642066756e647360781b60448201526064016102f9565b80600460008282546106eb9190610cd3565b9250508190555080600360008282546107049190610cec565b909155505050565b6005818154811061071c57600080fd5b600091825260209091206003909102018054600182015460029092015490925083565b6006818154811061074f57600080fd5b6000918252602090912001546001600160a01b0381169150600160a01b900461ffff1682565b6001546001600160a01b031633146107c05760405162461bcd60e51b815260206004820152600e60248201526d4e6f74205461736b457363726f7760901b60448201526064016102f9565b600754600090612710906107d89061ffff1686610dac565b6107e29190610dc3565b600754909150600090612710906108039062010000900461ffff1687610dac565b61080d9190610dc3565b9050811561088b5781600460008282546108279190610cec565b909155505060408051606081019091528281526005906020810161084e4362034bc0610cec565b8152602090810187905282546001818101855560009485529382902083516003909202019081559082015192810192909255604001516002909101555b80156108a95780600360008282546108a39190610cec565b90915550505b60005b60065481101561090e576000612710600683815481106108ce576108ce610cff565b6000918252602090912001546108ef90600160a01b900461ffff1689610dac565b6108f99190610dc3565b5081905061090681610d39565b9150506108ac565b506040805185815260208101879052908101839052606081018290527fbcfa5b81e5dfeb9cca18ff55beeefe4f9f70bcc7c4d07a1f0bb68b51b9ba9f22906080016105af565b60075460068054604080516020808402820181019092528281526060946000948594909361ffff80841694620100009094041692918591879084015b828210156109da57600084815260209081902060408051808201909152908401546001600160a01b0381168252600160a01b900461ffff1681830152825260019092019101610990565b505050509250925092509250909192565b600754640100000000900460ff1615610a355760405162461bcd60e51b815260206004820152600c60248201526b105b1c9958591e481a5b9a5d60a21b60448201526064016102f9565b600080546001600160a01b03199081166001600160a01b0395861617909155600180548216938516939093179092556002805490921692169190911790556007805464ffffffffff19166401138807d0179055565b5080546000825590600052602060002090810190610aa89190610aab565b50565b5b80821115610aca5780546001600160b01b0319168155600101610aac565b5090565b6001600160a01b0381168114610aa857600080fd5b60008060408385031215610af657600080fd5b823591506020830135610b0881610ace565b809150509250929050565b61ffff81168114610aa857600080fd5b60008060008060608587031215610b3957600080fd5b843567ffffffffffffffff80821115610b5157600080fd5b818701915087601f830112610b6557600080fd5b813581811115610b7457600080fd5b8860208260061b8501011115610b8957600080fd5b60209283019650945050850135610b9f81610b13565b91506040850135610baf81610b13565b939692955090935050565b600060208284031215610bcc57600080fd5b5035919050565b600080600060608486031215610be857600080fd5b83359250602084013591506040840135610c0181610ace565b809150509250925092565b606080825284519082018190526000906020906080840190828801845b82811015610c5d57815180516001600160a01b0316855285015161ffff168585015260409093019290840190600101610c29565b50505061ffff958616918401919091529290931660409091015292915050565b600080600060608486031215610c9257600080fd5b8335610c9d81610ace565b92506020840135610cad81610ace565b91506040840135610c0181610ace565b634e487b7160e01b600052601160045260246000fd5b81810381811115610ce657610ce6610cbd565b92915050565b80820180821115610ce657610ce6610cbd565b634e487b7160e01b600052603260045260246000fd5b600060208284031215610d2757600080fd5b8135610d3281610b13565b9392505050565b600060018201610d4b57610d4b610cbd565b5060010190565b8135610d5d81610ace565b81546001600160a01b031981166001600160a01b039290921691821783556020840135610d8981610b13565b6001600160b01b03199190911690911760a09190911b61ffff60a01b1617905550565b8082028115828204841417610ce657610ce6610cbd565b600082610de057634e487b7160e01b600052601260045260246000fd5b50049056fea264697066735822122076df4bf7b1e1a8c65162c4e0bc1133af8a28ace4c5b271fb30a6e8dfe23ba19864736f6c63430008140033","opcodes":"PUSH1 0x80 PUSH1 0x40 MSTORE CALLVALUE DUP1 ISZERO PUSH2 0x10 JUMPI PUSH1 0x0 DUP1 REVERT JUMPDEST POP PUSH2 0xE1B DUP1 PUSH2 0x20 PUSH1 0x0 CODECOPY PUSH1 0x0 RETURN INVALID PUSH1 0x80 PUSH1 0x40 MSTORE CALLVALUE DUP1 ISZERO PUSH2 0x10 JUMPI PUSH1 0x0 DUP1 REVERT JUMPDEST POP PUSH1 0x4 CALLDATASIZE LT PUSH2 0x10A JUMPI PUSH1 0x0 CALLDATALOAD PUSH1 0xE0 SHR DUP1 PUSH4 0x7B80889B GT PUSH2 0xA2 JUMPI DUP1 PUSH4 0x95858551 GT PUSH2 0x71 JUMPI DUP1 PUSH4 0x95858551 EQ PUSH2 0x25E JUMPI DUP1 PUSH4 0xAB2F0E51 EQ PUSH2 0x271 JUMPI DUP1 PUSH4 0xB2DEBAAF EQ PUSH2 0x27A JUMPI DUP1 PUSH4 0xC0C53B8B EQ PUSH2 0x291 JUMPI DUP1 PUSH4 0xE5A6B10F EQ PUSH2 0x2A4 JUMPI PUSH1 0x0 DUP1 REVERT JUMPDEST DUP1 PUSH4 0x7B80889B EQ PUSH2 0x1EC JUMPI DUP1 PUSH4 0x8DA5CB5B EQ PUSH2 0x203 JUMPI DUP1 PUSH4 0x8F2900D5 EQ PUSH2 0x216 JUMPI DUP1 PUSH4 0x8F76464D EQ PUSH2 0x229 JUMPI PUSH1 0x0 DUP1 REVERT JUMPDEST DUP1 PUSH4 0x27C4FFE1 GT PUSH2 0xDE JUMPI DUP1 PUSH4 0x27C4FFE1 EQ PUSH2 0x198 JUMPI DUP1 PUSH4 0x3892CC3E EQ PUSH2 0x1C3 JUMPI DUP1 PUSH4 0x443E46A2 EQ PUSH2 0x1D6 JUMPI DUP1 PUSH4 0x50E49764 EQ PUSH2 0x1E4 JUMPI PUSH1 0x0 DUP1 REVERT JUMPDEST DUP1 PUSH3 0xF714CE EQ PUSH2 0x10F JUMPI DUP1 PUSH4 0x312DF52 EQ PUSH2 0x124 JUMPI DUP1 PUSH4 0x12065FE0 EQ PUSH2 0x150 JUMPI DUP1 PUSH4 0x158EF93E EQ PUSH2 0x173 JUMPI JUMPDEST PUSH1 0x0 DUP1 REVERT JUMPDEST PUSH2 0x122 PUSH2 0x11D CALLDATASIZE PUSH1 0x4 PUSH2 0xAE3 JUMP JUMPDEST PUSH2 0x2B7 JUMP JUMPDEST STOP JUMPDEST PUSH1 0x7 SLOAD PUSH2 0x138 SWAP1 PUSH3 0x10000 SWAP1 DIV PUSH2 0xFFFF AND DUP2 JUMP JUMPDEST PUSH1 0x40 MLOAD PUSH2 0xFFFF SWAP1 SWAP2 AND DUP2 MSTORE PUSH1 0x20 ADD JUMPDEST PUSH1 0x40 MLOAD DUP1 SWAP2 SUB SWAP1 RETURN JUMPDEST PUSH2 0x158 PUSH2 0x3B8 JUMP JUMPDEST PUSH1 0x40 DUP1 MLOAD SWAP4 DUP5 MSTORE PUSH1 0x20 DUP5 ADD SWAP3 SWAP1 SWAP3 MSTORE SWAP1 DUP3 ADD MSTORE PUSH1 0x60 ADD PUSH2 0x147 JUMP JUMPDEST PUSH1 0x7 SLOAD PUSH2 0x188 SWAP1 PUSH5 0x100000000 SWAP1 DIV PUSH1 0xFF AND DUP2 JUMP JUMPDEST PUSH1 0x40 MLOAD SWAP1 ISZERO ISZERO DUP2 MSTORE PUSH1 0x20 ADD PUSH2 0x147 JUMP JUMPDEST PUSH1 0x1 SLOAD PUSH2 0x1AB SWAP1 PUSH1 0x1 PUSH1 0x1 PUSH1 0xA0 SHL SUB AND DUP2 JUMP JUMPDEST PUSH1 0x40 MLOAD PUSH1 0x1 PUSH1 0x1 PUSH1 0xA0 SHL SUB SWAP1 SWAP2 AND DUP2 MSTORE PUSH1 0x20 ADD PUSH2 0x147 JUMP JUMPDEST PUSH2 0x122 PUSH2 0x1D1 CALLDATASIZE PUSH1 0x4 PUSH2 0xB23 JUMP JUMPDEST PUSH2 0x3DE JUMP JUMPDEST PUSH1 0x7 SLOAD PUSH2 0x138 SWAP1 PUSH2 0xFFFF AND DUP2 JUMP JUMPDEST PUSH2 0x122 PUSH2 0x5BE JUMP JUMPDEST PUSH2 0x1F5 PUSH1 0x4 SLOAD DUP2 JUMP JUMPDEST PUSH1 0x40 MLOAD SWAP1 DUP2 MSTORE PUSH1 0x20 ADD PUSH2 0x147 JUMP JUMPDEST PUSH1 0x0 SLOAD PUSH2 0x1AB SWAP1 PUSH1 0x1 PUSH1 0x1 PUSH1 0xA0 SHL SUB AND DUP2 JUMP JUMPDEST PUSH2 0x158 PUSH2 0x224 CALLDATASIZE PUSH1 0x4 PUSH2 0xBBA JUMP JUMPDEST PUSH2 0x70C JUMP JUMPDEST PUSH2 0x23C PUSH2 0x237 CALLDATASIZE PUSH1 0x4 PUSH2 0xBBA JUMP JUMPDEST PUSH2 0x73F JUMP JUMPDEST PUSH1 0x40 DUP1 MLOAD PUSH1 0x1 PUSH1 0x1 PUSH1 0xA0 SHL SUB SWAP1 SWAP4 AND DUP4 MSTORE PUSH2 0xFFFF SWAP1 SWAP2 AND PUSH1 0x20 DUP4 ADD MSTORE ADD PUSH2 0x147 JUMP JUMPDEST PUSH2 0x122 PUSH2 0x26C CALLDATASIZE PUSH1 0x4 PUSH2 0xBD3 JUMP JUMPDEST PUSH2 0x775 JUMP JUMPDEST PUSH2 0x1F5 PUSH1 0x3 SLOAD DUP2 JUMP JUMPDEST PUSH2 0x282 PUSH2 0x954 JUMP JUMPDEST PUSH1 0x40 MLOAD PUSH2 0x147 SWAP4 SWAP3 SWAP2 SWAP1 PUSH2 0xC0C JUMP JUMPDEST PUSH2 0x122 PUSH2 0x29F CALLDATASIZE PUSH1 0x4 PUSH2 0xC7D JUMP JUMPDEST PUSH2 0x9EB JUMP JUMPDEST PUSH1 0x2 SLOAD PUSH2 0x1AB SWAP1 PUSH1 0x1 PUSH1 0x1 PUSH1 0xA0 SHL SUB AND DUP2 JUMP JUMPDEST PUSH1 0x0 SLOAD PUSH1 0x1 PUSH1 0x1 PUSH1 0xA0 SHL SUB AND CALLER EQ PUSH2 0x302 JUMPI PUSH1 0x40 MLOAD PUSH3 0x461BCD PUSH1 0xE5 SHL DUP2 MSTORE PUSH1 0x20 PUSH1 0x4 DUP3 ADD MSTORE PUSH1 0x9 PUSH1 0x24 DUP3 ADD MSTORE PUSH9 0x2737BA1037BBB732B9 PUSH1 0xB9 SHL PUSH1 0x44 DUP3 ADD MSTORE PUSH1 0x64 ADD JUMPDEST PUSH1 0x40 MLOAD DUP1 SWAP2 SUB SWAP1 REVERT JUMPDEST DUP2 PUSH1 0x3 SLOAD LT ISZERO PUSH2 0x354 JUMPI PUSH1 0x40 MLOAD PUSH3 0x461BCD PUSH1 0xE5 SHL DUP2 MSTORE PUSH1 0x20 PUSH1 0x4 DUP3 ADD MSTORE PUSH1 0x1E PUSH1 0x24 DUP3 ADD MSTORE PUSH32 0x496E73756666696369656E7420617661696C61626C652062616C616E63650000 PUSH1 0x44 DUP3 ADD MSTORE PUSH1 0x64 ADD PUSH2 0x2F9 JUMP JUMPDEST DUP2 PUSH1 0x3 PUSH1 0x0 DUP3 DUP3 SLOAD PUSH2 0x366 SWAP2 SWAP1 PUSH2 0xCD3 JUMP JUMPDEST SWAP1 SWAP2 SSTORE POP POP PUSH1 0x40 DUP1 MLOAD ADDRESS DUP2 MSTORE PUSH1 0x1 PUSH1 0x1 PUSH1 0xA0 SHL SUB DUP4 AND PUSH1 0x20 DUP3 ADD MSTORE SWAP1 DUP2 ADD DUP4 SWAP1 MSTORE PUSH32 0x2717EAD6B9200DD235AAD468C9809EA400FE33AC69B5BFAA6D3E90FC922B6398 SWAP1 PUSH1 0x60 ADD PUSH1 0x40 MLOAD DUP1 SWAP2 SUB SWAP1 LOG1 POP POP JUMP JUMPDEST PUSH1 0x0 DUP1 PUSH1 0x0 PUSH1 0x3 SLOAD PUSH1 0x4 SLOAD PUSH1 0x4 SLOAD PUSH1 0x3 SLOAD PUSH2 0x3D3 SWAP2 SWAP1 PUSH2 0xCEC JUMP JUMPDEST SWAP3 POP SWAP3 POP SWAP3 POP SWAP1 SWAP2 SWAP3 JUMP JUMPDEST PUSH1 0x0 SLOAD PUSH1 0x1 PUSH1 0x1 PUSH1 0xA0 SHL SUB AND CALLER EQ PUSH2 0x424 JUMPI PUSH1 0x40 MLOAD PUSH3 0x461BCD PUSH1 0xE5 SHL DUP2 MSTORE PUSH1 0x20 PUSH1 0x4 DUP3 ADD MSTORE PUSH1 0x9 PUSH1 0x24 DUP3 ADD MSTORE PUSH9 0x2737BA1037BBB732B9 PUSH1 0xB9 SHL PUSH1 0x44 DUP3 ADD MSTORE PUSH1 0x64 ADD PUSH2 0x2F9 JUMP JUMPDEST PUSH1 0x0 DUP1 JUMPDEST DUP5 DUP2 LT ISZERO PUSH2 0x47C JUMPI DUP6 DUP6 DUP3 DUP2 DUP2 LT PUSH2 0x442 JUMPI PUSH2 0x442 PUSH2 0xCFF JUMP JUMPDEST SWAP1 POP PUSH1 0x40 MUL ADD PUSH1 0x20 ADD PUSH1 0x20 DUP2 ADD SWAP1 PUSH2 0x45A SWAP2 SWAP1 PUSH2 0xD15 JUMP JUMPDEST PUSH2 0x468 SWAP1 PUSH2 0xFFFF AND DUP4 PUSH2 0xCEC JUMP JUMPDEST SWAP2 POP DUP1 PUSH2 0x474 DUP2 PUSH2 0xD39 JUMP JUMPDEST SWAP2 POP POP PUSH2 0x428 JUMP JUMPDEST POP DUP2 PUSH2 0xFFFF AND DUP4 PUSH2 0xFFFF AND DUP3 PUSH2 0x492 SWAP2 SWAP1 PUSH2 0xCEC JUMP JUMPDEST PUSH2 0x49C SWAP2 SWAP1 PUSH2 0xCEC JUMP JUMPDEST PUSH2 0x2710 EQ PUSH2 0x4E4 JUMPI PUSH1 0x40 MLOAD PUSH3 0x461BCD PUSH1 0xE5 SHL DUP2 MSTORE PUSH1 0x20 PUSH1 0x4 DUP3 ADD MSTORE PUSH1 0x15 PUSH1 0x24 DUP3 ADD MSTORE PUSH21 0x4D7573742073756D20746F20313030303020425053 PUSH1 0x58 SHL PUSH1 0x44 DUP3 ADD MSTORE PUSH1 0x64 ADD PUSH2 0x2F9 JUMP JUMPDEST PUSH2 0x4F0 PUSH1 0x6 PUSH1 0x0 PUSH2 0xA8A JUMP JUMPDEST PUSH1 0x0 JUMPDEST DUP5 DUP2 LT ISZERO PUSH2 0x550 JUMPI PUSH1 0x6 DUP7 DUP7 DUP4 DUP2 DUP2 LT PUSH2 0x50F JUMPI PUSH2 0x50F PUSH2 0xCFF JUMP JUMPDEST DUP4 SLOAD PUSH1 0x1 DUP2 ADD DUP6 SSTORE PUSH1 0x0 SWAP5 DUP6 MSTORE PUSH1 0x20 SWAP1 SWAP5 KECCAK256 PUSH1 0x40 SWAP1 SWAP2 MUL SWAP3 SWAP1 SWAP3 ADD SWAP3 SWAP2 SWAP1 SWAP2 ADD SWAP1 POP PUSH2 0x53B DUP3 DUP3 PUSH2 0xD52 JUMP JUMPDEST POP POP DUP1 DUP1 PUSH2 0x548 SWAP1 PUSH2 0xD39 JUMP JUMPDEST SWAP2 POP POP PUSH2 0x4F3 JUMP JUMPDEST POP PUSH1 0x7 DUP1 SLOAD PUSH2 0xFFFF DUP6 DUP2 AND PUSH4 0xFFFFFFFF NOT SWAP1 SWAP3 AND DUP3 OR PUSH3 0x10000 SWAP2 DUP7 AND SWAP2 DUP3 MUL OR SWAP1 SWAP3 SSTORE PUSH1 0x40 DUP1 MLOAD ADDRESS DUP2 MSTORE PUSH1 0x20 DUP2 ADD SWAP3 SWAP1 SWAP3 MSTORE DUP2 ADD SWAP2 SWAP1 SWAP2 MSTORE PUSH32 0x4C25F8D3AB0B0927C6B76EB8C03CAA690E0F6269EAEE15B89EA67C71121ACAF9 SWAP1 PUSH1 0x60 ADD JUMPDEST PUSH1 0x40 MLOAD DUP1 SWAP2 SUB SWAP1 LOG1 POP POP POP POP POP JUMP JUMPDEST PUSH1 0x0 DUP1 JUMPDEST PUSH1 0x5 SLOAD DUP2 LT ISZERO PUSH2 0x694 JUMPI PUSH1 0x0 PUSH1 0x5 DUP3 DUP2 SLOAD DUP2 LT PUSH2 0x5E1 JUMPI PUSH2 0x5E1 PUSH2 0xCFF JUMP JUMPDEST SWAP1 PUSH1 0x0 MSTORE PUSH1 0x20 PUSH1 0x0 KECCAK256 SWAP1 PUSH1 0x3 MUL ADD PUSH1 0x0 ADD SLOAD GT DUP1 ISZERO PUSH2 0x624 JUMPI POP PUSH1 0x5 DUP2 DUP2 SLOAD DUP2 LT PUSH2 0x60E JUMPI PUSH2 0x60E PUSH2 0xCFF JUMP JUMPDEST SWAP1 PUSH1 0x0 MSTORE PUSH1 0x20 PUSH1 0x0 KECCAK256 SWAP1 PUSH1 0x3 MUL ADD PUSH1 0x1 ADD SLOAD NUMBER LT ISZERO JUMPDEST ISZERO PUSH2 0x682 JUMPI PUSH1 0x5 DUP2 DUP2 SLOAD DUP2 LT PUSH2 0x63C JUMPI PUSH2 0x63C PUSH2 0xCFF JUMP JUMPDEST SWAP1 PUSH1 0x0 MSTORE PUSH1 0x20 PUSH1 0x0 KECCAK256 SWAP1 PUSH1 0x3 MUL ADD PUSH1 0x0 ADD SLOAD DUP3 PUSH2 0x659 SWAP2 SWAP1 PUSH2 0xCEC JUMP JUMPDEST SWAP2 POP PUSH1 0x0 PUSH1 0x5 DUP3 DUP2 SLOAD DUP2 LT PUSH2 0x670 JUMPI PUSH2 0x670 PUSH2 0xCFF JUMP JUMPDEST PUSH1 0x0 SWAP2 DUP3 MSTORE PUSH1 0x20 SWAP1 SWAP2 KECCAK256 PUSH1 0x3 SWAP1 SWAP2 MUL ADD SSTORE JUMPDEST DUP1 PUSH2 0x68C DUP2 PUSH2 0xD39 JUMP JUMPDEST SWAP2 POP POP PUSH2 0x5C2 JUMP JUMPDEST POP PUSH1 0x0 DUP2 GT PUSH2 0x6D9 JUMPI PUSH1 0x40 MLOAD PUSH3 0x461BCD PUSH1 0xE5 SHL DUP2 MSTORE PUSH1 0x20 PUSH1 0x4 DUP3 ADD MSTORE PUSH1 0x11 PUSH1 0x24 DUP3 ADD MSTORE PUSH17 0x4E6F20756E6C6F636B65642066756E6473 PUSH1 0x78 SHL PUSH1 0x44 DUP3 ADD MSTORE PUSH1 0x64 ADD PUSH2 0x2F9 JUMP JUMPDEST DUP1 PUSH1 0x4 PUSH1 0x0 DUP3 DUP3 SLOAD PUSH2 0x6EB SWAP2 SWAP1 PUSH2 0xCD3 JUMP JUMPDEST SWAP3 POP POP DUP2 SWAP1 SSTORE POP DUP1 PUSH1 0x3 PUSH1 0x0 DUP3 DUP3 SLOAD PUSH2 0x704 SWAP2 SWAP1 PUSH2 0xCEC JUMP JUMPDEST SWAP1 SWAP2 SSTORE POP POP POP JUMP JUMPDEST PUSH1 0x5 DUP2 DUP2 SLOAD DUP2 LT PUSH2 0x71C JUMPI PUSH1 0x0 DUP1 REVERT JUMPDEST PUSH1 0x0 SWAP2 DUP3 MSTORE PUSH1 0x20 SWAP1 SWAP2 KECCAK256 PUSH1 0x3 SWAP1 SWAP2 MUL ADD DUP1 SLOAD PUSH1 0x1 DUP3 ADD SLOAD PUSH1 0x2 SWAP1 SWAP3 ADD SLOAD SWAP1 SWAP3 POP DUP4 JUMP JUMPDEST PUSH1 0x6 DUP2 DUP2 SLOAD DUP2 LT PUSH2 0x74F JUMPI PUSH1 0x0 DUP1 REVERT JUMPDEST PUSH1 0x0 SWAP2 DUP3 MSTORE PUSH1 0x20 SWAP1 SWAP2 KECCAK256 ADD SLOAD PUSH1 0x1 PUSH1 0x1 PUSH1 0xA0 SHL SUB DUP2 AND SWAP2 POP PUSH1 0x1 PUSH1 0xA0 SHL SWAP1 DIV PUSH2 0xFFFF AND DUP3 JUMP JUMPDEST PUSH1 0x1 SLOAD PUSH1 0x1 PUSH1 0x1 PUSH1 0xA0 SHL SUB AND CALLER EQ PUSH2 0x7C0 JUMPI PUSH1 0x40 MLOAD PUSH3 0x461BCD PUSH1 0xE5 SHL DUP2 MSTORE PUSH1 0x20 PUSH1 0x4 DUP3 ADD MSTORE PUSH1 0xE PUSH1 0x24 DUP3 ADD MSTORE PUSH14 0x4E6F74205461736B457363726F77 PUSH1 0x90 SHL PUSH1 0x44 DUP3 ADD MSTORE PUSH1 0x64 ADD PUSH2 0x2F9 JUMP JUMPDEST PUSH1 0x7 SLOAD PUSH1 0x0 SWAP1 PUSH2 0x2710 SWAP1 PUSH2 0x7D8 SWAP1 PUSH2 0xFFFF AND DUP7 PUSH2 0xDAC JUMP JUMPDEST PUSH2 0x7E2 SWAP2 SWAP1 PUSH2 0xDC3 JUMP JUMPDEST PUSH1 0x7 SLOAD SWAP1 SWAP2 POP PUSH1 0x0 SWAP1 PUSH2 0x2710 SWAP1 PUSH2 0x803 SWAP1 PUSH3 0x10000 SWAP1 DIV PUSH2 0xFFFF AND DUP8 PUSH2 0xDAC JUMP JUMPDEST PUSH2 0x80D SWAP2 SWAP1 PUSH2 0xDC3 JUMP JUMPDEST SWAP1 POP DUP2 ISZERO PUSH2 0x88B JUMPI DUP2 PUSH1 0x4 PUSH1 0x0 DUP3 DUP3 SLOAD PUSH2 0x827 SWAP2 SWAP1 PUSH2 0xCEC JUMP JUMPDEST SWAP1 SWAP2 SSTORE POP POP PUSH1 0x40 DUP1 MLOAD PUSH1 0x60 DUP2 ADD SWAP1 SWAP2 MSTORE DUP3 DUP2 MSTORE PUSH1 0x5 SWAP1 PUSH1 0x20 DUP2 ADD PUSH2 0x84E NUMBER PUSH3 0x34BC0 PUSH2 0xCEC JUMP JUMPDEST DUP2 MSTORE PUSH1 0x20 SWAP1 DUP2 ADD DUP8 SWAP1 MSTORE DUP3 SLOAD PUSH1 0x1 DUP2 DUP2 ADD DUP6 SSTORE PUSH1 0x0 SWAP5 DUP6 MSTORE SWAP4 DUP3 SWAP1 KECCAK256 DUP4 MLOAD PUSH1 0x3 SWAP1 SWAP3 MUL ADD SWAP1 DUP2 SSTORE SWAP1 DUP3 ADD MLOAD SWAP3 DUP2 ADD SWAP3 SWAP1 SWAP3 SSTORE PUSH1 0x40 ADD MLOAD PUSH1 0x2 SWAP1 SWAP2 ADD SSTORE JUMPDEST DUP1 ISZERO PUSH2 0x8A9 JUMPI DUP1 PUSH1 0x3 PUSH1 0x0 DUP3 DUP3 SLOAD PUSH2 0x8A3 SWAP2 SWAP1 PUSH2 0xCEC JUMP JUMPDEST SWAP1 SWAP2 SSTORE POP POP JUMPDEST PUSH1 0x0 JUMPDEST PUSH1 0x6 SLOAD DUP2 LT ISZERO PUSH2 0x90E JUMPI PUSH1 0x0 PUSH2 0x2710 PUSH1 0x6 DUP4 DUP2 SLOAD DUP2 LT PUSH2 0x8CE JUMPI PUSH2 0x8CE PUSH2 0xCFF JUMP JUMPDEST PUSH1 0x0 SWAP2 DUP3 MSTORE PUSH1 0x20 SWAP1 SWAP2 KECCAK256 ADD SLOAD PUSH2 0x8EF SWAP1 PUSH1 0x1 PUSH1 0xA0 SHL SWAP1 DIV PUSH2 0xFFFF AND DUP10 PUSH2 0xDAC JUMP JUMPDEST PUSH2 0x8F9 SWAP2 SWAP1 PUSH2 0xDC3 JUMP JUMPDEST POP DUP2 SWAP1 POP PUSH2 0x906 DUP2 PUSH2 0xD39 JUMP JUMPDEST SWAP2 POP POP PUSH2 0x8AC JUMP JUMPDEST POP PUSH1 0x40 DUP1 MLOAD DUP6 DUP2 MSTORE PUSH1 0x20 DUP2 ADD DUP8 SWAP1 MSTORE SWAP1 DUP2 ADD DUP4 SWAP1 MSTORE PUSH1 0x60 DUP2 ADD DUP3 SWAP1 MSTORE PUSH32 0xBCFA5B81E5DFEB9CCA18FF55BEEEFE4F9F70BCC7C4D07A1F0BB68B51B9BA9F22 SWAP1 PUSH1 0x80 ADD PUSH2 0x5AF JUMP JUMPDEST PUSH1 0x7 SLOAD PUSH1 0x6 DUP1 SLOAD PUSH1 0x40 DUP1 MLOAD PUSH1 0x20 DUP1 DUP5 MUL DUP3 ADD DUP2 ADD SWAP1 SWAP3 MSTORE DUP3 DUP2 MSTORE PUSH1 0x60 SWAP5 PUSH1 0x0 SWAP5 DUP6 SWAP5 SWAP1 SWAP4 PUSH2 0xFFFF DUP1 DUP5 AND SWAP5 PUSH3 0x10000 SWAP1 SWAP5 DIV AND SWAP3 SWAP2 DUP6 SWAP2 DUP8 SWAP1 DUP5 ADD JUMPDEST DUP3 DUP3 LT ISZERO PUSH2 0x9DA JUMPI PUSH1 0x0 DUP5 DUP2 MSTORE PUSH1 0x20 SWAP1 DUP2 SWAP1 KECCAK256 PUSH1 0x40 DUP1 MLOAD DUP1 DUP3 ADD SWAP1 SWAP2 MSTORE SWAP1 DUP5 ADD SLOAD PUSH1 0x1 PUSH1 0x1 PUSH1 0xA0 SHL SUB DUP2 AND DUP3 MSTORE PUSH1 0x1 PUSH1 0xA0 SHL SWAP1 DIV PUSH2 0xFFFF AND DUP2 DUP4 ADD MSTORE DUP3 MSTORE PUSH1 0x1 SWAP1 SWAP3 ADD SWAP2 ADD PUSH2 0x990 JUMP JUMPDEST POP POP POP POP SWAP3 POP SWAP3 POP SWAP3 POP SWAP3 POP SWAP1 SWAP2 SWAP3 JUMP JUMPDEST PUSH1 0x7 SLOAD PUSH5 0x100000000 SWAP1 DIV PUSH1 0xFF AND ISZERO PUSH2 0xA35 JUMPI PUSH1 0x40 MLOAD PUSH3 0x461BCD PUSH1 0xE5 SHL DUP2 MSTORE PUSH1 0x20 PUSH1 0x4 DUP3 ADD MSTORE PUSH1 0xC PUSH1 0x24 DUP3 ADD MSTORE PUSH12 0x105B1C9958591E481A5B9A5D PUSH1 0xA2 SHL PUSH1 0x44 DUP3 ADD MSTORE PUSH1 0x64 ADD PUSH2 0x2F9 JUMP JUMPDEST PUSH1 0x0 DUP1 SLOAD PUSH1 0x1 PUSH1 0x1 PUSH1 0xA0 SHL SUB NOT SWAP1 DUP2 AND PUSH1 0x1 PUSH1 0x1 PUSH1 0xA0 SHL SUB SWAP6 DUP7 AND OR SWAP1 SWAP2 SSTORE PUSH1 0x1 DUP1 SLOAD DUP3 AND SWAP4 DUP6 AND SWAP4 SWAP1 SWAP4 OR SWAP1 SWAP3 SSTORE PUSH1 0x2 DUP1 SLOAD SWAP1 SWAP3 AND SWAP3 AND SWAP2 SWAP1 SWAP2 OR SWAP1 SSTORE PUSH1 0x7 DUP1 SLOAD PUSH5 0xFFFFFFFFFF NOT AND PUSH5 0x1138807D0 OR SWAP1 SSTORE JUMP JUMPDEST POP DUP1 SLOAD PUSH1 0x0 DUP3 SSTORE SWAP1 PUSH1 0x0 MSTORE PUSH1 0x20 PUSH1 0x0 KECCAK256 SWAP1 DUP2 ADD SWAP1 PUSH2 0xAA8 SWAP2 SWAP1 PUSH2 0xAAB JUMP JUMPDEST POP JUMP JUMPDEST JUMPDEST DUP1 DUP3 GT ISZERO PUSH2 0xACA JUMPI DUP1 SLOAD PUSH1 0x1 PUSH1 0x1 PUSH1 0xB0 SHL SUB NOT AND DUP2 SSTORE PUSH1 0x1 ADD PUSH2 0xAAC JUMP JUMPDEST POP SWAP1 JUMP JUMPDEST PUSH1 0x1 PUSH1 0x1 PUSH1 0xA0 SHL SUB DUP2 AND DUP2 EQ PUSH2 0xAA8 JUMPI PUSH1 0x0 DUP1 REVERT JUMPDEST PUSH1 0x0 DUP1 PUSH1 0x40 DUP4 DUP6 SUB SLT ISZERO PUSH2 0xAF6 JUMPI PUSH1 0x0 DUP1 REVERT JUMPDEST DUP3 CALLDATALOAD SWAP2 POP PUSH1 0x20 DUP4 ADD CALLDATALOAD PUSH2 0xB08 DUP2 PUSH2 0xACE JUMP JUMPDEST DUP1 SWAP2 POP POP SWAP3 POP SWAP3 SWAP1 POP JUMP JUMPDEST PUSH2 0xFFFF DUP2 AND DUP2 EQ PUSH2 0xAA8 JUMPI PUSH1 0x0 DUP1 REVERT JUMPDEST PUSH1 0x0 DUP1 PUSH1 0x0 DUP1 PUSH1 0x60 DUP6 DUP8 SUB SLT ISZERO PUSH2 0xB39 JUMPI PUSH1 0x0 DUP1 REVERT JUMPDEST DUP5 CALLDATALOAD PUSH8 0xFFFFFFFFFFFFFFFF DUP1 DUP3 GT ISZERO PUSH2 0xB51 JUMPI PUSH1 0x0 DUP1 REVERT JUMPDEST DUP2 DUP8 ADD SWAP2 POP DUP8 PUSH1 0x1F DUP4 ADD SLT PUSH2 0xB65 JUMPI PUSH1 0x0 DUP1 REVERT JUMPDEST DUP2 CALLDATALOAD DUP2 DUP2 GT ISZERO PUSH2 0xB74 JUMPI PUSH1 0x0 DUP1 REVERT JUMPDEST DUP9 PUSH1 0x20 DUP3 PUSH1 0x6 SHL DUP6 ADD ADD GT ISZERO PUSH2 0xB89 JUMPI PUSH1 0x0 DUP1 REVERT JUMPDEST PUSH1 0x20 SWAP3 DUP4 ADD SWAP7 POP SWAP5 POP POP DUP6 ADD CALLDATALOAD PUSH2 0xB9F DUP2 PUSH2 0xB13 JUMP JUMPDEST SWAP2 POP PUSH1 0x40 DUP6 ADD CALLDATALOAD PUSH2 0xBAF DUP2 PUSH2 0xB13 JUMP JUMPDEST SWAP4 SWAP7 SWAP3 SWAP6 POP SWAP1 SWAP4 POP POP JUMP JUMPDEST PUSH1 0x0 PUSH1 0x20 DUP3 DUP5 SUB SLT ISZERO PUSH2 0xBCC JUMPI PUSH1 0x0 DUP1 REVERT JUMPDEST POP CALLDATALOAD SWAP2 SWAP1 POP JUMP JUMPDEST PUSH1 0x0 DUP1 PUSH1 0x0 PUSH1 0x60 DUP5 DUP7 SUB SLT ISZERO PUSH2 0xBE8 JUMPI PUSH1 0x0 DUP1 REVERT JUMPDEST DUP4 CALLDATALOAD SWAP3 POP PUSH1 0x20 DUP5 ADD CALLDATALOAD SWAP2 POP PUSH1 0x40 DUP5 ADD CALLDATALOAD PUSH2 0xC01 DUP2 PUSH2 0xACE JUMP JUMPDEST DUP1 SWAP2 POP POP SWAP3 POP SWAP3 POP SWAP3 JUMP JUMPDEST PUSH1 0x60 DUP1 DUP3 MSTORE DUP5 MLOAD SWAP1 DUP3 ADD DUP2 SWAP1 MSTORE PUSH1 0x0 SWAP1 PUSH1 0x20 SWAP1 PUSH1 0x80 DUP5 ADD SWAP1 DUP3 DUP9 ADD DUP5 JUMPDEST DUP3 DUP2 LT ISZERO PUSH2 0xC5D JUMPI DUP2 MLOAD DUP1 MLOAD PUSH1 0x1 PUSH1 0x1 PUSH1 0xA0 SHL SUB AND DUP6 MSTORE DUP6 ADD MLOAD PUSH2 0xFFFF AND DUP6 DUP6 ADD MSTORE PUSH1 0x40 SWAP1 SWAP4 ADD SWAP3 SWAP1 DUP5 ADD SWAP1 PUSH1 0x1 ADD PUSH2 0xC29 JUMP JUMPDEST POP POP POP PUSH2 0xFFFF SWAP6 DUP7 AND SWAP2 DUP5 ADD SWAP2 SWAP1 SWAP2 MSTORE SWAP3 SWAP1 SWAP4 AND PUSH1 0x40 SWAP1 SWAP2 ADD MSTORE SWAP3 SWAP2 POP POP JUMP JUMPDEST PUSH1 0x0 DUP1 PUSH1 0x0 PUSH1 0x60 DUP5 DUP7 SUB SLT ISZERO PUSH2 0xC92 JUMPI PUSH1 0x0 DUP1 REVERT JUMPDEST DUP4 CALLDATALOAD PUSH2 0xC9D DUP2 PUSH2 0xACE JUMP JUMPDEST SWAP3 POP PUSH1 0x20 DUP5 ADD CALLDATALOAD PUSH2 0xCAD DUP2 PUSH2 0xACE JUMP JUMPDEST SWAP2 POP PUSH1 0x40 DUP5 ADD CALLDATALOAD PUSH2 0xC01 DUP2 PUSH2 0xACE JUMP JUMPDEST PUSH4 0x4E487B71 PUSH1 0xE0 SHL PUSH1 0x0 MSTORE PUSH1 0x11 PUSH1 0x4 MSTORE PUSH1 0x24 PUSH1 0x0 REVERT JUMPDEST DUP2 DUP2 SUB DUP2 DUP2 GT ISZERO PUSH2 0xCE6 JUMPI PUSH2 0xCE6 PUSH2 0xCBD JUMP JUMPDEST SWAP3 SWAP2 POP POP JUMP JUMPDEST DUP1 DUP3 ADD DUP1 DUP3 GT ISZERO PUSH2 0xCE6 JUMPI PUSH2 0xCE6 PUSH2 0xCBD JUMP JUMPDEST PUSH4 0x4E487B71 PUSH1 0xE0 SHL PUSH1 0x0 MSTORE PUSH1 0x32 PUSH1 0x4 MSTORE PUSH1 0x24 PUSH1 0x0 REVERT JUMPDEST PUSH1 0x0 PUSH1 0x20 DUP3 DUP5 SUB SLT ISZERO PUSH2 0xD27 JUMPI PUSH1 0x0 DUP1 REVERT JUMPDEST DUP2 CALLDATALOAD PUSH2 0xD32 DUP2 PUSH2 0xB13 JUMP JUMPDEST SWAP4 SWAP3 POP POP POP JUMP JUMPDEST PUSH1 0x0 PUSH1 0x1 DUP3 ADD PUSH2 0xD4B JUMPI PUSH2 0xD4B PUSH2 0xCBD JUMP JUMPDEST POP PUSH1 0x1 ADD SWAP1 JUMP JUMPDEST DUP2 CALLDATALOAD PUSH2 0xD5D DUP2 PUSH2 0xACE JUMP JUMPDEST DUP2 SLOAD PUSH1 0x1 PUSH1 0x1 PUSH1 0xA0 SHL SUB NOT DUP2 AND PUSH1 0x1 PUSH1 0x1 PUSH1 0xA0 SHL SUB SWAP3 SWAP1 SWAP3 AND SWAP2 DUP3 OR DUP4 SSTORE PUSH1 0x20 DUP5 ADD CALLDATALOAD PUSH2 0xD89 DUP2 PUSH2 0xB13 JUMP JUMPDEST PUSH1 0x1 PUSH1 0x1 PUSH1 0xB0 SHL SUB NOT SWAP2 SWAP1 SWAP2 AND SWAP1 SWAP2 OR PUSH1 0xA0 SWAP2 SWAP1 SWAP2 SHL PUSH2 0xFFFF PUSH1 0xA0 SHL AND OR SWAP1 SSTORE POP JUMP JUMPDEST DUP1 DUP3 MUL DUP2 ISZERO DUP3 DUP3 DIV DUP5 EQ OR PUSH2 0xCE6 JUMPI PUSH2 0xCE6 PUSH2 0xCBD JUMP JUMPDEST PUSH1 0x0 DUP3 PUSH2 0xDE0 JUMPI PUSH4 0x4E487B71 PUSH1 0xE0 SHL PUSH1 0x0 MSTORE PUSH1 0x12 PUSH1 0x4 MSTORE PUSH1 0x24 PUSH1 0x0 REVERT JUMPDEST POP DIV SWAP1 JUMP INVALID LOG2 PUSH5 0x6970667358 0x22 SLT KECCAK256 PUSH23 0xDF4BF7B1E1A8C65162C4E0BC1133AF8A28ACE4C5B271FB ADDRESS 0xA6 0xE8 0xDF 0xE2 EXTCODESIZE LOG1 SWAP9 PUSH5 0x736F6C6343 STOP ADDMOD EQ STOP CALLER "},"methodIdentifiers":{"availableBalance()":"ab2f0e51","claimUnlocked()":"50e49764","currency()":"e5a6b10f","currentHoldBps()":"0312df52","currentLockBps()":"443e46a2","currentSplits(uint256)":"8f76464d","getBalance()":"12065fe0","getRouting()":"b2debaaf","initialize(address,address,address)":"c0c53b8b","initialized()":"158ef93e","lockedBalance()":"7b80889b","owner()":"8da5cb5b","receivePayment(uint256,bytes32,address)":"95858551","setRouting((address,uint16)[],uint16,uint16)":"3892cc3e","taskEscrow()":"27c4ffe1","timeLocks(uint256)":"8f2900d5","withdraw(uint256,address)":"00f714ce"}}}}}