{
  "_format": "hh-sol-artifact-1",
  "contractName": "AgentRegistry",
  "sourceName": "contracts/AgentRegistryAndVault.sol",
  "abi": [
    {
      "inputs": [],
      "stateMutability": "nonpayable",
      "type": "constructor"
    },
    {
      "anonymous": false,
      "inputs": [
        {
          "indexed": true,
          "internalType": "address",
          "name": "agentId",
          "type": "address"
        }
      ],
      "name": "AgentDeregistered",
      "type": "event"
    },
    {
      "anonymous": false,
      "inputs": [
        {
          "indexed": true,
          "internalType": "address",
          "name": "agentId",
          "type": "address"
        },
        {
          "indexed": false,
          "internalType": "address",
          "name": "vaultAddress",
          "type": "address"
        },
        {
          "indexed": false,
          "internalType": "bytes32[]",
          "name": "capabilities",
          "type": "bytes32[]"
        },
        {
          "indexed": false,
          "internalType": "uint256",
          "name": "timestamp",
          "type": "uint256"
        }
      ],
      "name": "AgentRegistered",
      "type": "event"
    },
    {
      "anonymous": false,
      "inputs": [
        {
          "indexed": true,
          "internalType": "address",
          "name": "agentId",
          "type": "address"
        },
        {
          "indexed": false,
          "internalType": "string",
          "name": "reason",
          "type": "string"
        }
      ],
      "name": "AgentSuspended",
      "type": "event"
    },
    {
      "anonymous": false,
      "inputs": [
        {
          "indexed": true,
          "internalType": "address",
          "name": "agentId",
          "type": "address"
        },
        {
          "indexed": false,
          "internalType": "bytes32[]",
          "name": "capabilities",
          "type": "bytes32[]"
        }
      ],
      "name": "CapabilitiesUpdated",
      "type": "event"
    },
    {
      "anonymous": false,
      "inputs": [
        {
          "indexed": true,
          "internalType": "address",
          "name": "agentId",
          "type": "address"
        },
        {
          "indexed": false,
          "internalType": "uint256",
          "name": "previousScore",
          "type": "uint256"
        },
        {
          "indexed": false,
          "internalType": "uint256",
          "name": "newScore",
          "type": "uint256"
        },
        {
          "indexed": false,
          "internalType": "bytes32",
          "name": "trigger",
          "type": "bytes32"
        }
      ],
      "name": "ReputationUpdated",
      "type": "event"
    },
    {
      "inputs": [
        {
          "internalType": "uint256",
          "name": "",
          "type": "uint256"
        }
      ],
      "name": "agentAddresses",
      "outputs": [
        {
          "internalType": "address",
          "name": "",
          "type": "address"
        }
      ],
      "stateMutability": "view",
      "type": "function"
    },
    {
      "inputs": [],
      "name": "agentCount",
      "outputs": [
        {
          "internalType": "uint256",
          "name": "",
          "type": "uint256"
        }
      ],
      "stateMutability": "view",
      "type": "function"
    },
    {
      "inputs": [
        {
          "internalType": "address",
          "name": "",
          "type": "address"
        }
      ],
      "name": "agentVaults",
      "outputs": [
        {
          "internalType": "address",
          "name": "",
          "type": "address"
        }
      ],
      "stateMutability": "view",
      "type": "function"
    },
    {
      "inputs": [
        {
          "internalType": "address",
          "name": "",
          "type": "address"
        }
      ],
      "name": "agents",
      "outputs": [
        {
          "internalType": "address",
          "name": "agentId",
          "type": "address"
        },
        {
          "components": [
            {
              "internalType": "uint256",
              "name": "basePrice",
              "type": "uint256"
            },
            {
              "internalType": "address",
              "name": "currency",
              "type": "address"
            },
            {
              "internalType": "enum IAgentRegistry.PricingType",
              "name": "pricingType",
              "type": "uint8"
            }
          ],
          "internalType": "struct IAgentRegistry.PricingModel",
          "name": "pricingModel",
          "type": "tuple"
        },
        {
          "internalType": "uint256",
          "name": "reputationScore",
          "type": "uint256"
        },
        {
          "internalType": "address",
          "name": "vaultAddress",
          "type": "address"
        },
        {
          "internalType": "enum IAgentRegistry.AgentStatus",
          "name": "status",
          "type": "uint8"
        },
        {
          "internalType": "uint256",
          "name": "registeredAt",
          "type": "uint256"
        },
        {
          "internalType": "uint256",
          "name": "totalTasksCompleted",
          "type": "uint256"
        }
      ],
      "stateMutability": "view",
      "type": "function"
    },
    {
      "inputs": [
        {
          "internalType": "address",
          "name": "agentId",
          "type": "address"
        }
      ],
      "name": "deregister",
      "outputs": [],
      "stateMutability": "nonpayable",
      "type": "function"
    },
    {
      "inputs": [],
      "name": "disputeResolver",
      "outputs": [
        {
          "internalType": "address",
          "name": "",
          "type": "address"
        }
      ],
      "stateMutability": "view",
      "type": "function"
    },
    {
      "inputs": [
        {
          "internalType": "address",
          "name": "agentId",
          "type": "address"
        }
      ],
      "name": "getAgent",
      "outputs": [
        {
          "components": [
            {
              "internalType": "address",
              "name": "agentId",
              "type": "address"
            },
            {
              "internalType": "bytes32[]",
              "name": "capabilities",
              "type": "bytes32[]"
            },
            {
              "components": [
                {
                  "internalType": "uint256",
                  "name": "basePrice",
                  "type": "uint256"
                },
                {
                  "internalType": "address",
                  "name": "currency",
                  "type": "address"
                },
                {
                  "internalType": "enum IAgentRegistry.PricingType",
                  "name": "pricingType",
                  "type": "uint8"
                }
              ],
              "internalType": "struct IAgentRegistry.PricingModel",
              "name": "pricingModel",
              "type": "tuple"
            },
            {
              "internalType": "uint256",
              "name": "reputationScore",
              "type": "uint256"
            },
            {
              "internalType": "address",
              "name": "vaultAddress",
              "type": "address"
            },
            {
              "internalType": "enum IAgentRegistry.AgentStatus",
              "name": "status",
              "type": "uint8"
            },
            {
              "internalType": "uint256",
              "name": "registeredAt",
              "type": "uint256"
            },
            {
              "internalType": "uint256",
              "name": "totalTasksCompleted",
              "type": "uint256"
            }
          ],
          "internalType": "struct IAgentRegistry.AgentInfo",
          "name": "",
          "type": "tuple"
        }
      ],
      "stateMutability": "view",
      "type": "function"
    },
    {
      "inputs": [],
      "name": "getAllAgents",
      "outputs": [
        {
          "components": [
            {
              "internalType": "address",
              "name": "agentId",
              "type": "address"
            },
            {
              "internalType": "bytes32[]",
              "name": "capabilities",
              "type": "bytes32[]"
            },
            {
              "components": [
                {
                  "internalType": "uint256",
                  "name": "basePrice",
                  "type": "uint256"
                },
                {
                  "internalType": "address",
                  "name": "currency",
                  "type": "address"
                },
                {
                  "internalType": "enum IAgentRegistry.PricingType",
                  "name": "pricingType",
                  "type": "uint8"
                }
              ],
              "internalType": "struct IAgentRegistry.PricingModel",
              "name": "pricingModel",
              "type": "tuple"
            },
            {
              "internalType": "uint256",
              "name": "reputationScore",
              "type": "uint256"
            },
            {
              "internalType": "address",
              "name": "vaultAddress",
              "type": "address"
            },
            {
              "internalType": "enum IAgentRegistry.AgentStatus",
              "name": "status",
              "type": "uint8"
            },
            {
              "internalType": "uint256",
              "name": "registeredAt",
              "type": "uint256"
            },
            {
              "internalType": "uint256",
              "name": "totalTasksCompleted",
              "type": "uint256"
            }
          ],
          "internalType": "struct IAgentRegistry.AgentInfo[]",
          "name": "",
          "type": "tuple[]"
        }
      ],
      "stateMutability": "view",
      "type": "function"
    },
    {
      "inputs": [
        {
          "internalType": "address",
          "name": "agentId",
          "type": "address"
        }
      ],
      "name": "getVaultAddress",
      "outputs": [
        {
          "internalType": "address",
          "name": "",
          "type": "address"
        }
      ],
      "stateMutability": "view",
      "type": "function"
    },
    {
      "inputs": [],
      "name": "owner",
      "outputs": [
        {
          "internalType": "address",
          "name": "",
          "type": "address"
        }
      ],
      "stateMutability": "view",
      "type": "function"
    },
    {
      "inputs": [
        {
          "internalType": "bytes32[]",
          "name": "capabilities",
          "type": "bytes32[]"
        },
        {
          "components": [
            {
              "internalType": "uint256",
              "name": "basePrice",
              "type": "uint256"
            },
            {
              "internalType": "address",
              "name": "currency",
              "type": "address"
            },
            {
              "internalType": "enum IAgentRegistry.PricingType",
              "name": "pricingType",
              "type": "uint8"
            }
          ],
          "internalType": "struct IAgentRegistry.PricingModel",
          "name": "pricingModel",
          "type": "tuple"
        },
        {
          "internalType": "bytes",
          "name": "routingConfig",
          "type": "bytes"
        }
      ],
      "name": "register",
      "outputs": [],
      "stateMutability": "nonpayable",
      "type": "function"
    },
    {
      "inputs": [
        {
          "internalType": "address",
          "name": "_taskEscrow",
          "type": "address"
        },
        {
          "internalType": "address",
          "name": "_disputeResolver",
          "type": "address"
        }
      ],
      "name": "setRoles",
      "outputs": [],
      "stateMutability": "nonpayable",
      "type": "function"
    },
    {
      "inputs": [
        {
          "internalType": "address",
          "name": "agentId",
          "type": "address"
        },
        {
          "internalType": "string",
          "name": "reason",
          "type": "string"
        }
      ],
      "name": "suspend",
      "outputs": [],
      "stateMutability": "nonpayable",
      "type": "function"
    },
    {
      "inputs": [],
      "name": "taskEscrow",
      "outputs": [
        {
          "internalType": "address",
          "name": "",
          "type": "address"
        }
      ],
      "stateMutability": "view",
      "type": "function"
    },
    {
      "inputs": [
        {
          "internalType": "address",
          "name": "agentId",
          "type": "address"
        },
        {
          "internalType": "bytes32[]",
          "name": "capabilities",
          "type": "bytes32[]"
        }
      ],
      "name": "updateCapabilities",
      "outputs": [],
      "stateMutability": "nonpayable",
      "type": "function"
    },
    {
      "inputs": [
        {
          "internalType": "address",
          "name": "agentId",
          "type": "address"
        },
        {
          "components": [
            {
              "internalType": "uint256",
              "name": "basePrice",
              "type": "uint256"
            },
            {
              "internalType": "address",
              "name": "currency",
              "type": "address"
            },
            {
              "internalType": "enum IAgentRegistry.PricingType",
              "name": "pricingType",
              "type": "uint8"
            }
          ],
          "internalType": "struct IAgentRegistry.PricingModel",
          "name": "pricingModel",
          "type": "tuple"
        }
      ],
      "name": "updatePricing",
      "outputs": [],
      "stateMutability": "nonpayable",
      "type": "function"
    },
    {
      "inputs": [
        {
          "internalType": "address",
          "name": "agentId",
          "type": "address"
        },
        {
          "internalType": "int256",
          "name": "deltaScore",
          "type": "int256"
        },
        {
          "internalType": "bytes32",
          "name": "taskId",
          "type": "bytes32"
        }
      ],
      "name": "updateReputation",
      "outputs": [],
      "stateMutability": "nonpayable",
      "type": "function"
    },
    {
      "inputs": [
        {
          "internalType": "address",
          "name": "",
          "type": "address"
        }
      ],
      "name": "vaultToAgent",
      "outputs": [
        {
          "internalType": "address",
          "name": "",
          "type": "address"
        }
      ],
      "stateMutability": "view",
      "type": "function"
    }
  ],
  "bytecode": "0x608060405234801561001057600080fd5b50600080546001600160a01b031916331790556125b7806100326000396000f3fe608060405234801561001057600080fd5b50600436106101165760003560e01c8063dcb55c56116100a2578063f5a3f4af11610071578063f5a3f4af1461027c578063f6072a101461028f578063f936a604146102a2578063fb3551ff146102b5578063fd66091e146102d557600080fd5b8063dcb55c5614610201578063df5e4b161461022a578063ef88c31e1461023d578063ef9a95821461026957600080fd5b8063860e4ac6116100e9578063860e4ac61461019c5780638da5cb5b146101b1578063a7676a63146101c4578063ac68dc39146101d7578063b7dc1284146101ea57600080fd5b806327c4ffe11461011b578063299621af1461014b57806357a271271461017457806384ac33ec14610189575b600080fd5b60015461012e906001600160a01b031681565b6040516001600160a01b0390911681526020015b60405180910390f35b61012e61015936600461106e565b6007602052600090815260409020546001600160a01b031681565b6101876101823660046110db565b6102fb565b005b61018761019736600461106e565b6103b2565b6101a4610431565b604051610142919061125d565b60005461012e906001600160a01b031681565b61012e6101d23660046112bf565b610647565b6101876101e536600461131d565b610671565b6101f360035481565b604051908152602001610142565b61012e61020f36600461106e565b6005602052600090815260409020546001600160a01b031681565b610187610238366004611377565b610751565b61012e61024b36600461106e565b6001600160a01b039081166000908152600560205260409020541690565b6101876102773660046113ad565b6107a8565b60025461012e906001600160a01b031681565b61018761029d366004611432565b610ba5565b6101876102b036600461146b565b610c1a565b6102c86102c336600461106e565b610d41565b60405161014291906114a0565b6102e86102e336600461106e565b610ea1565b60405161014297969594939291906114b3565b6000546001600160a01b031633146103475760405162461bcd60e51b815260206004820152600a60248201526927b7363c9037bbb732b960b11b60448201526064015b60405180910390fd5b6001600160a01b03831660008181526004602052604090819020600501805460ff60a01b1916600160a01b179055517f67af208cffe17db653d12ef0d8defd41a77f58715df97b6b9741d10004020d22906103a59085908590611509565b60405180910390a2505050565b80336001600160a01b038216146103db5760405162461bcd60e51b815260040161033e90611538565b6001600160a01b038216600081815260046020526040808220600501805460ff60a01b1916600160a11b179055517fcd7d9ced6282be80b75fa747c535d58e02a973ac92b9707cb663514caa62fb8d9190a25050565b60065460609060009067ffffffffffffffff8111156104525761045261155f565b60405190808252806020026020018201604052801561048b57816020015b610478610f4b565b8152602001906001900390816104705790505b50905060005b6006548110156106415760046000600683815481106104b2576104b2611575565b60009182526020808320909101546001600160a01b0390811684528382019490945260409283019091208251610100810184528154909416845260018101805484518185028101850190955280855291938584019390929083018282801561053957602002820191906000526020600020905b815481526020019060010190808311610525575b50505091835250506040805160608101825260028481018054835260038601546001600160a01b038116602080860191909152909501949293909290840191600160a01b90910460ff169081111561059357610593611130565b60028111156105a4576105a4611130565b90525081526004820154602082015260058201546001600160a01b0381166040830152606090910190600160a01b900460ff1660028111156105e8576105e8611130565b60028111156105f9576105f9611130565b81526020016006820154815260200160078201548152505082828151811061062357610623611575565b60200260200101819052508080610639906115a1565b915050610491565b50919050565b6006818154811061065757600080fd5b6000918252602090912001546001600160a01b0316905081565b82336001600160a01b0382161461069a5760405162461bcd60e51b815260040161033e90611538565b60208211156106e15760405162461bcd60e51b81526020600482015260136024820152724d6178203332206361706162696c697469657360681b604482015260640161033e565b6001600160a01b0384166000908152600460205260409020610707906001018484610fae565b50836001600160a01b03167f64ab161a370a5e447844ea44f23c7d9524e733afda1317c9679eb4b69c86640e84846040516107439291906115ec565b60405180910390a250505050565b81336001600160a01b0382161461077a5760405162461bcd60e51b815260040161033e90611538565b6001600160a01b038316600090815260046020526040902082906002016107a18282611615565b5050505050565b336000908152600460205260409020546001600160a01b0316156108035760405162461bcd60e51b8152602060048201526012602482015271105b1c9958591e481c9959da5cdd195c995960721b604482015260640161033e565b602084111561084a5760405162461bcd60e51b81526020600482015260136024820152724d6178203332206361706162696c697469657360681b604482015260640161033e565b600060405161085890610ff9565b604051809103906000f080158015610874573d6000803e3d6000fd5b506001549091506001600160a01b038083169163c0c53b8b913391166108a06040890160208a0161106e565b60405160e085901b6001600160e01b03191681526001600160a01b03938416600482015291831660248301529091166044820152606401600060405180830381600087803b1580156108f157600080fd5b505af1158015610905573d6000803e3d6000fd5b505050506000604051806101000160405280336001600160a01b0316815260200188888080602002602001604051908101604052809392919081815260200183836020028082843760009201919091525050509082525060200161096e36889003880188611671565b81526101f460208201526001600160a01b03841660408201526060016000815242602080830191909152600060409283018190523381526004825291909120825181546001600160a01b0319166001600160a01b03909116178155828201518051939450849391926109e892600185019290910190611006565b506040828101518051600280850191825560208301516003860180546001600160a01b039092166001600160a01b031983168117825595850151949593949390926001600160a81b03199092161790600160a01b908490811115610a4e57610a4e611130565b021790555050506060820151600482015560808201516005820180546001600160a01b039092166001600160a01b031983168117825560a0850151926001600160a81b03191617600160a01b836002811115610aac57610aac611130565b021790555060c082015160068083019190915560e09092015160079182015533600081815260056020908152604080832080546001600160a01b038a166001600160a01b03199182168117909255908452949091528120805484168317905583546001810185559381527ff652222313e28459528d920b65115c16c04f3efc82aaedc97be59f3f377c0d3f90930180549092161790556003805491610b50836115a1565b9190505550336001600160a01b03167f386c5306087da5aa6b1e8ac51eddda3163bffc5543b742a7ed4ccc12a83fa54683898942604051610b9494939291906116e8565b60405180910390a250505050505050565b6000546001600160a01b03163314610bec5760405162461bcd60e51b815260206004820152600a60248201526927b7363c9037bbb732b960b11b604482015260640161033e565b600180546001600160a01b039384166001600160a01b03199182161790915560028054929093169116179055565b6001546001600160a01b0316331480610c3d57506002546001600160a01b031633145b610c785760405162461bcd60e51b815260206004820152600c60248201526b155b985d5d1a1bdc9a5e995960a21b604482015260640161033e565b6001600160a01b03831660009081526004602081905260408220908101549091610ca2858361171e565b90506000811215610cb1575060005b6103e8811315610cc057506103e85b600483018190556000851315610ce857600783018054906000610ce2836115a1565b91905055505b600483015460408051848152602081019290925281018590526001600160a01b038716907f74d25cc3b3b47b2f164faa448eb9fff9f58e50bd977ed460110f7f339ee5a3d89060600160405180910390a2505050505050565b610d49610f4b565b6001600160a01b0380831660009081526004602090815260409182902082516101008101845281549094168452600181018054845181850281018501909552808552919385840193909290830182828015610dc357602002820191906000526020600020905b815481526020019060010190808311610daf575b50505091835250506040805160608101825260028481018054835260038601546001600160a01b038116602080860191909152909501949293909290840191600160a01b90910460ff1690811115610e1d57610e1d611130565b6002811115610e2e57610e2e611130565b90525081526004820154602082015260058201546001600160a01b0381166040830152606090910190600160a01b900460ff166002811115610e7257610e72611130565b6002811115610e8357610e83611130565b81526006820154602082015260079091015460409091015292915050565b6004602090815260009182526040918290208054835160608101855260028084018054835260038501546001600160a01b0380821697850197909752959093169593949193840191600160a01b900460ff1690811115610f0357610f03611130565b6002811115610f1457610f14611130565b905250600482015460058301546006840154600790940154929391926001600160a01b03821692600160a01b90920460ff16919087565b60408051610100810182526000815260606020820152908101610f8560408051606081018252600080825260208201819052909182015290565b815260006020820181905260408201819052606082018190526080820181905260a09091015290565b828054828255906000526020600020908101928215610fe9579160200282015b82811115610fe9578235825591602001919060010190610fce565b50610ff5929150611041565b5090565b610e3b8061174783390190565b828054828255906000526020600020908101928215610fe9579160200282015b82811115610fe9578251825591602001919060010190611026565b5b80821115610ff55760008155600101611042565b6001600160a01b038116811461106b57600080fd5b50565b60006020828403121561108057600080fd5b813561108b81611056565b9392505050565b60008083601f8401126110a457600080fd5b50813567ffffffffffffffff8111156110bc57600080fd5b6020830191508360208285010111156110d457600080fd5b9250929050565b6000806000604084860312156110f057600080fd5b83356110fb81611056565b9250602084013567ffffffffffffffff81111561111757600080fd5b61112386828701611092565b9497909650939450505050565b634e487b7160e01b600052602160045260246000fd5b6003811061106b57634e487b7160e01b600052602160045260246000fd5b805182526020808201516001600160a01b031690830152604081015161118981611146565b806040840152505050565b61119d81611146565b9052565b80516001600160a01b03168252602080820151610140828501819052815190850181905260009261016086019281019184905b808210156111f457835185529382019392820192600191909101906111d4565b50505050604083015161120a6040860182611164565b50606083015160a085015260808301516001600160a01b03811660c08601525060a083015161123c60e0860182611194565b5060c083015161010085015260e08301516101208501528091505092915050565b6000602080830181845280855180835260408601915060408160051b870101925083870160005b828110156112b257603f198886030184526112a08583516111a1565b94509285019290850190600101611284565b5092979650505050505050565b6000602082840312156112d157600080fd5b5035919050565b60008083601f8401126112ea57600080fd5b50813567ffffffffffffffff81111561130257600080fd5b6020830191508360208260051b85010111156110d457600080fd5b60008060006040848603121561133257600080fd5b833561133d81611056565b9250602084013567ffffffffffffffff81111561135957600080fd5b611123868287016112d8565b60006060828403121561064157600080fd5b6000806080838503121561138a57600080fd5b823561139581611056565b91506113a48460208501611365565b90509250929050565b600080600080600060a086880312156113c557600080fd5b853567ffffffffffffffff808211156113dd57600080fd5b6113e989838a016112d8565b90975095508591506113fe8960208a01611365565b9450608088013591508082111561141457600080fd5b5061142188828901611092565b969995985093965092949392505050565b6000806040838503121561144557600080fd5b823561145081611056565b9150602083013561146081611056565b809150509250929050565b60008060006060848603121561148057600080fd5b833561148b81611056565b95602085013595506040909401359392505050565b60208152600061108b60208301846111a1565b6001600160a01b0388811682526101208201906114d3602084018a611164565b60808301889052861660a08301526114ea85611146565b8460c08301528360e08301528261010083015298975050505050505050565b60208152816020820152818360408301376000818301604090810191909152601f909201601f19160101919050565b6020808252600d908201526c139bdd081d1a19481859d95b9d609a1b604082015260600190565b634e487b7160e01b600052604160045260246000fd5b634e487b7160e01b600052603260045260246000fd5b634e487b7160e01b600052601160045260246000fd5b6000600182016115b3576115b361158b565b5060010190565b81835260006001600160fb1b038311156115d357600080fd5b8260051b80836020870137939093016020019392505050565b6020815260006116006020830184866115ba565b949350505050565b6003811061106b57600080fd5b8135815560018101602083013561162b81611056565b8154604085013561163b81611608565b61164481611146565b60ff60a01b60a09190911b166001600160a01b03929092166001600160a81b031991909116171790555050565b60006060828403121561168357600080fd5b6040516060810181811067ffffffffffffffff821117156116b457634e487b7160e01b600052604160045260246000fd5b6040528235815260208301356116c981611056565b602082015260408301356116dc81611608565b60408201529392505050565b6001600160a01b038516815260606020820181905260009061170d90830185876115ba565b905082604083015295945050505050565b808201828112600083128015821682158216171561173e5761173e61158b565b50509291505056fe608060405234801561001057600080fd5b50610e1b806100206000396000f3fe608060405234801561001057600080fd5b506004361061010a5760003560e01c80637b80889b116100a25780639585855111610071578063958585511461025e578063ab2f0e5114610271578063b2debaaf1461027a578063c0c53b8b14610291578063e5a6b10f146102a457600080fd5b80637b80889b146101ec5780638da5cb5b146102035780638f2900d5146102165780638f76464d1461022957600080fd5b806327c4ffe1116100de57806327c4ffe1146101985780633892cc3e146101c3578063443e46a2146101d657806350e49764146101e457600080fd5b8062f714ce1461010f5780630312df521461012457806312065fe014610150578063158ef93e14610173575b600080fd5b61012261011d366004610ae3565b6102b7565b005b6007546101389062010000900461ffff1681565b60405161ffff90911681526020015b60405180910390f35b6101586103b8565b60408051938452602084019290925290820152606001610147565b60075461018890640100000000900460ff1681565b6040519015158152602001610147565b6001546101ab906001600160a01b031681565b6040516001600160a01b039091168152602001610147565b6101226101d1366004610b23565b6103de565b6007546101389061ffff1681565b6101226105be565b6101f560045481565b604051908152602001610147565b6000546101ab906001600160a01b031681565b610158610224366004610bba565b61070c565b61023c610237366004610bba565b61073f565b604080516001600160a01b03909316835261ffff909116602083015201610147565b61012261026c366004610bd3565b610775565b6101f560035481565b610282610954565b60405161014793929190610c0c565b61012261029f366004610c7d565b6109eb565b6002546101ab906001600160a01b031681565b6000546001600160a01b031633146103025760405162461bcd60e51b81526020600482015260096024820152682737ba1037bbb732b960b91b60448201526064015b60405180910390fd5b8160035410156103545760405162461bcd60e51b815260206004820152601e60248201527f496e73756666696369656e7420617661696c61626c652062616c616e6365000060448201526064016102f9565b81600360008282546103669190610cd3565b9091555050604080513081526001600160a01b03831660208201529081018390527f2717ead6b9200dd235aad468c9809ea400fe33ac69b5bfaa6d3e90fc922b63989060600160405180910390a15050565b60008060006003546004546004546003546103d39190610cec565b925092509250909192565b6000546001600160a01b031633146104245760405162461bcd60e51b81526020600482015260096024820152682737ba1037bbb732b960b91b60448201526064016102f9565b6000805b8481101561047c5785858281811061044257610442610cff565b905060400201602001602081019061045a9190610d15565b6104689061ffff1683610cec565b91508061047481610d39565b915050610428565b508161ffff168361ffff16826104929190610cec565b61049c9190610cec565b612710146104e45760405162461bcd60e51b81526020600482015260156024820152744d7573742073756d20746f2031303030302042505360581b60448201526064016102f9565b6104f060066000610a8a565b60005b8481101561055057600686868381811061050f5761050f610cff565b8354600181018555600094855260209094206040909102929092019291909101905061053b8282610d52565b5050808061054890610d39565b9150506104f3565b506007805461ffff85811663ffffffff19909216821762010000918616918202179092556040805130815260208101929092528101919091527f4c25f8d3ab0b0927c6b76eb8c03caa690e0f6269eaee15b89ea67c71121acaf9906060015b60405180910390a15050505050565b6000805b600554811015610694576000600582815481106105e1576105e1610cff565b90600052602060002090600302016000015411801561062457506005818154811061060e5761060e610cff565b9060005260206000209060030201600101544310155b15610682576005818154811061063c5761063c610cff565b906000526020600020906003020160000154826106599190610cec565b915060006005828154811061067057610670610cff565b60009182526020909120600390910201555b8061068c81610d39565b9150506105c2565b50600081116106d95760405162461bcd60e51b81526020600482015260116024820152704e6f20756e6c6f636b65642066756e647360781b60448201526064016102f9565b80600460008282546106eb9190610cd3565b9250508190555080600360008282546107049190610cec565b909155505050565b6005818154811061071c57600080fd5b600091825260209091206003909102018054600182015460029092015490925083565b6006818154811061074f57600080fd5b6000918252602090912001546001600160a01b0381169150600160a01b900461ffff1682565b6001546001600160a01b031633146107c05760405162461bcd60e51b815260206004820152600e60248201526d4e6f74205461736b457363726f7760901b60448201526064016102f9565b600754600090612710906107d89061ffff1686610dac565b6107e29190610dc3565b600754909150600090612710906108039062010000900461ffff1687610dac565b61080d9190610dc3565b9050811561088b5781600460008282546108279190610cec565b909155505060408051606081019091528281526005906020810161084e4362034bc0610cec565b8152602090810187905282546001818101855560009485529382902083516003909202019081559082015192810192909255604001516002909101555b80156108a95780600360008282546108a39190610cec565b90915550505b60005b60065481101561090e576000612710600683815481106108ce576108ce610cff565b6000918252602090912001546108ef90600160a01b900461ffff1689610dac565b6108f99190610dc3565b5081905061090681610d39565b9150506108ac565b506040805185815260208101879052908101839052606081018290527fbcfa5b81e5dfeb9cca18ff55beeefe4f9f70bcc7c4d07a1f0bb68b51b9ba9f22906080016105af565b60075460068054604080516020808402820181019092528281526060946000948594909361ffff80841694620100009094041692918591879084015b828210156109da57600084815260209081902060408051808201909152908401546001600160a01b0381168252600160a01b900461ffff1681830152825260019092019101610990565b505050509250925092509250909192565b600754640100000000900460ff1615610a355760405162461bcd60e51b815260206004820152600c60248201526b105b1c9958591e481a5b9a5d60a21b60448201526064016102f9565b600080546001600160a01b03199081166001600160a01b0395861617909155600180548216938516939093179092556002805490921692169190911790556007805464ffffffffff19166401138807d0179055565b5080546000825590600052602060002090810190610aa89190610aab565b50565b5b80821115610aca5780546001600160b01b0319168155600101610aac565b5090565b6001600160a01b0381168114610aa857600080fd5b60008060408385031215610af657600080fd5b823591506020830135610b0881610ace565b809150509250929050565b61ffff81168114610aa857600080fd5b60008060008060608587031215610b3957600080fd5b843567ffffffffffffffff80821115610b5157600080fd5b818701915087601f830112610b6557600080fd5b813581811115610b7457600080fd5b8860208260061b8501011115610b8957600080fd5b60209283019650945050850135610b9f81610b13565b91506040850135610baf81610b13565b939692955090935050565b600060208284031215610bcc57600080fd5b5035919050565b600080600060608486031215610be857600080fd5b83359250602084013591506040840135610c0181610ace565b809150509250925092565b606080825284519082018190526000906020906080840190828801845b82811015610c5d57815180516001600160a01b0316855285015161ffff168585015260409093019290840190600101610c29565b50505061ffff958616918401919091529290931660409091015292915050565b600080600060608486031215610c9257600080fd5b8335610c9d81610ace565b92506020840135610cad81610ace565b91506040840135610c0181610ace565b634e487b7160e01b600052601160045260246000fd5b81810381811115610ce657610ce6610cbd565b92915050565b80820180821115610ce657610ce6610cbd565b634e487b7160e01b600052603260045260246000fd5b600060208284031215610d2757600080fd5b8135610d3281610b13565b9392505050565b600060018201610d4b57610d4b610cbd565b5060010190565b8135610d5d81610ace565b81546001600160a01b031981166001600160a01b039290921691821783556020840135610d8981610b13565b6001600160b01b03199190911690911760a09190911b61ffff60a01b1617905550565b8082028115828204841417610ce657610ce6610cbd565b600082610de057634e487b7160e01b600052601260045260246000fd5b50049056fea264697066735822122076df4bf7b1e1a8c65162c4e0bc1133af8a28ace4c5b271fb30a6e8dfe23ba19864736f6c63430008140033a2646970667358221220565980185e4a39ffe28089e6f19fce0e5ee1bb9e634e680f75b7555fc9c77acf64736f6c63430008140033",
  "linkReferences": {},
  "deployedLinkReferences": {}
}