{
  "_format": "hh-sol-artifact-1",
  "contractName": "VaultWallet",
  "sourceName": "contracts/AgentRegistryAndVault.sol",
  "abi": [
    {
      "anonymous": false,
      "inputs": [
        {
          "indexed": false,
          "internalType": "bytes32",
          "name": "taskId",
          "type": "bytes32"
        },
        {
          "indexed": false,
          "internalType": "uint256",
          "name": "totalAmount",
          "type": "uint256"
        },
        {
          "indexed": false,
          "internalType": "uint256",
          "name": "lockAmount",
          "type": "uint256"
        },
        {
          "indexed": false,
          "internalType": "uint256",
          "name": "holdAmount",
          "type": "uint256"
        }
      ],
      "name": "PaymentProcessed",
      "type": "event"
    },
    {
      "anonymous": false,
      "inputs": [
        {
          "indexed": false,
          "internalType": "address",
          "name": "vault",
          "type": "address"
        },
        {
          "indexed": false,
          "internalType": "uint16",
          "name": "lockBps",
          "type": "uint16"
        },
        {
          "indexed": false,
          "internalType": "uint16",
          "name": "holdBps",
          "type": "uint16"
        }
      ],
      "name": "RoutingUpdated",
      "type": "event"
    },
    {
      "anonymous": false,
      "inputs": [
        {
          "indexed": false,
          "internalType": "address",
          "name": "vault",
          "type": "address"
        },
        {
          "indexed": false,
          "internalType": "address",
          "name": "recipient",
          "type": "address"
        },
        {
          "indexed": false,
          "internalType": "uint256",
          "name": "amount",
          "type": "uint256"
        }
      ],
      "name": "Withdrawal",
      "type": "event"
    },
    {
      "inputs": [],
      "name": "availableBalance",
      "outputs": [
        {
          "internalType": "uint256",
          "name": "",
          "type": "uint256"
        }
      ],
      "stateMutability": "view",
      "type": "function"
    },
    {
      "inputs": [],
      "name": "claimUnlocked",
      "outputs": [],
      "stateMutability": "nonpayable",
      "type": "function"
    },
    {
      "inputs": [],
      "name": "currency",
      "outputs": [
        {
          "internalType": "address",
          "name": "",
          "type": "address"
        }
      ],
      "stateMutability": "view",
      "type": "function"
    },
    {
      "inputs": [],
      "name": "currentHoldBps",
      "outputs": [
        {
          "internalType": "uint16",
          "name": "",
          "type": "uint16"
        }
      ],
      "stateMutability": "view",
      "type": "function"
    },
    {
      "inputs": [],
      "name": "currentLockBps",
      "outputs": [
        {
          "internalType": "uint16",
          "name": "",
          "type": "uint16"
        }
      ],
      "stateMutability": "view",
      "type": "function"
    },
    {
      "inputs": [
        {
          "internalType": "uint256",
          "name": "",
          "type": "uint256"
        }
      ],
      "name": "currentSplits",
      "outputs": [
        {
          "internalType": "address",
          "name": "recipient",
          "type": "address"
        },
        {
          "internalType": "uint16",
          "name": "bps",
          "type": "uint16"
        }
      ],
      "stateMutability": "view",
      "type": "function"
    },
    {
      "inputs": [],
      "name": "getBalance",
      "outputs": [
        {
          "internalType": "uint256",
          "name": "available",
          "type": "uint256"
        },
        {
          "internalType": "uint256",
          "name": "locked",
          "type": "uint256"
        },
        {
          "internalType": "uint256",
          "name": "total",
          "type": "uint256"
        }
      ],
      "stateMutability": "view",
      "type": "function"
    },
    {
      "inputs": [],
      "name": "getRouting",
      "outputs": [
        {
          "components": [
            {
              "internalType": "address",
              "name": "recipient",
              "type": "address"
            },
            {
              "internalType": "uint16",
              "name": "bps",
              "type": "uint16"
            }
          ],
          "internalType": "struct IVaultWallet.SplitRecipient[]",
          "name": "splits",
          "type": "tuple[]"
        },
        {
          "internalType": "uint16",
          "name": "lockBps",
          "type": "uint16"
        },
        {
          "internalType": "uint16",
          "name": "holdBps",
          "type": "uint16"
        }
      ],
      "stateMutability": "view",
      "type": "function"
    },
    {
      "inputs": [
        {
          "internalType": "address",
          "name": "_owner",
          "type": "address"
        },
        {
          "internalType": "address",
          "name": "_taskEscrow",
          "type": "address"
        },
        {
          "internalType": "address",
          "name": "_currency",
          "type": "address"
        }
      ],
      "name": "initialize",
      "outputs": [],
      "stateMutability": "nonpayable",
      "type": "function"
    },
    {
      "inputs": [],
      "name": "initialized",
      "outputs": [
        {
          "internalType": "bool",
          "name": "",
          "type": "bool"
        }
      ],
      "stateMutability": "view",
      "type": "function"
    },
    {
      "inputs": [],
      "name": "lockedBalance",
      "outputs": [
        {
          "internalType": "uint256",
          "name": "",
          "type": "uint256"
        }
      ],
      "stateMutability": "view",
      "type": "function"
    },
    {
      "inputs": [],
      "name": "owner",
      "outputs": [
        {
          "internalType": "address",
          "name": "",
          "type": "address"
        }
      ],
      "stateMutability": "view",
      "type": "function"
    },
    {
      "inputs": [
        {
          "internalType": "uint256",
          "name": "amount",
          "type": "uint256"
        },
        {
          "internalType": "bytes32",
          "name": "taskId",
          "type": "bytes32"
        },
        {
          "internalType": "address",
          "name": "payer",
          "type": "address"
        }
      ],
      "name": "receivePayment",
      "outputs": [],
      "stateMutability": "nonpayable",
      "type": "function"
    },
    {
      "inputs": [
        {
          "components": [
            {
              "internalType": "address",
              "name": "recipient",
              "type": "address"
            },
            {
              "internalType": "uint16",
              "name": "bps",
              "type": "uint16"
            }
          ],
          "internalType": "struct IVaultWallet.SplitRecipient[]",
          "name": "splits",
          "type": "tuple[]"
        },
        {
          "internalType": "uint16",
          "name": "lockBps",
          "type": "uint16"
        },
        {
          "internalType": "uint16",
          "name": "holdBps",
          "type": "uint16"
        }
      ],
      "name": "setRouting",
      "outputs": [],
      "stateMutability": "nonpayable",
      "type": "function"
    },
    {
      "inputs": [],
      "name": "taskEscrow",
      "outputs": [
        {
          "internalType": "address",
          "name": "",
          "type": "address"
        }
      ],
      "stateMutability": "view",
      "type": "function"
    },
    {
      "inputs": [
        {
          "internalType": "uint256",
          "name": "",
          "type": "uint256"
        }
      ],
      "name": "timeLocks",
      "outputs": [
        {
          "internalType": "uint256",
          "name": "amount",
          "type": "uint256"
        },
        {
          "internalType": "uint256",
          "name": "unlockBlock",
          "type": "uint256"
        },
        {
          "internalType": "bytes32",
          "name": "taskId",
          "type": "bytes32"
        }
      ],
      "stateMutability": "view",
      "type": "function"
    },
    {
      "inputs": [
        {
          "internalType": "uint256",
          "name": "amount",
          "type": "uint256"
        },
        {
          "internalType": "address",
          "name": "recipient",
          "type": "address"
        }
      ],
      "name": "withdraw",
      "outputs": [],
      "stateMutability": "nonpayable",
      "type": "function"
    }
  ],
  "bytecode": "0x608060405234801561001057600080fd5b50610e1b806100206000396000f3fe608060405234801561001057600080fd5b506004361061010a5760003560e01c80637b80889b116100a25780639585855111610071578063958585511461025e578063ab2f0e5114610271578063b2debaaf1461027a578063c0c53b8b14610291578063e5a6b10f146102a457600080fd5b80637b80889b146101ec5780638da5cb5b146102035780638f2900d5146102165780638f76464d1461022957600080fd5b806327c4ffe1116100de57806327c4ffe1146101985780633892cc3e146101c3578063443e46a2146101d657806350e49764146101e457600080fd5b8062f714ce1461010f5780630312df521461012457806312065fe014610150578063158ef93e14610173575b600080fd5b61012261011d366004610ae3565b6102b7565b005b6007546101389062010000900461ffff1681565b60405161ffff90911681526020015b60405180910390f35b6101586103b8565b60408051938452602084019290925290820152606001610147565b60075461018890640100000000900460ff1681565b6040519015158152602001610147565b6001546101ab906001600160a01b031681565b6040516001600160a01b039091168152602001610147565b6101226101d1366004610b23565b6103de565b6007546101389061ffff1681565b6101226105be565b6101f560045481565b604051908152602001610147565b6000546101ab906001600160a01b031681565b610158610224366004610bba565b61070c565b61023c610237366004610bba565b61073f565b604080516001600160a01b03909316835261ffff909116602083015201610147565b61012261026c366004610bd3565b610775565b6101f560035481565b610282610954565b60405161014793929190610c0c565b61012261029f366004610c7d565b6109eb565b6002546101ab906001600160a01b031681565b6000546001600160a01b031633146103025760405162461bcd60e51b81526020600482015260096024820152682737ba1037bbb732b960b91b60448201526064015b60405180910390fd5b8160035410156103545760405162461bcd60e51b815260206004820152601e60248201527f496e73756666696369656e7420617661696c61626c652062616c616e6365000060448201526064016102f9565b81600360008282546103669190610cd3565b9091555050604080513081526001600160a01b03831660208201529081018390527f2717ead6b9200dd235aad468c9809ea400fe33ac69b5bfaa6d3e90fc922b63989060600160405180910390a15050565b60008060006003546004546004546003546103d39190610cec565b925092509250909192565b6000546001600160a01b031633146104245760405162461bcd60e51b81526020600482015260096024820152682737ba1037bbb732b960b91b60448201526064016102f9565b6000805b8481101561047c5785858281811061044257610442610cff565b905060400201602001602081019061045a9190610d15565b6104689061ffff1683610cec565b91508061047481610d39565b915050610428565b508161ffff168361ffff16826104929190610cec565b61049c9190610cec565b612710146104e45760405162461bcd60e51b81526020600482015260156024820152744d7573742073756d20746f2031303030302042505360581b60448201526064016102f9565b6104f060066000610a8a565b60005b8481101561055057600686868381811061050f5761050f610cff565b8354600181018555600094855260209094206040909102929092019291909101905061053b8282610d52565b5050808061054890610d39565b9150506104f3565b506007805461ffff85811663ffffffff19909216821762010000918616918202179092556040805130815260208101929092528101919091527f4c25f8d3ab0b0927c6b76eb8c03caa690e0f6269eaee15b89ea67c71121acaf9906060015b60405180910390a15050505050565b6000805b600554811015610694576000600582815481106105e1576105e1610cff565b90600052602060002090600302016000015411801561062457506005818154811061060e5761060e610cff565b9060005260206000209060030201600101544310155b15610682576005818154811061063c5761063c610cff565b906000526020600020906003020160000154826106599190610cec565b915060006005828154811061067057610670610cff565b60009182526020909120600390910201555b8061068c81610d39565b9150506105c2565b50600081116106d95760405162461bcd60e51b81526020600482015260116024820152704e6f20756e6c6f636b65642066756e647360781b60448201526064016102f9565b80600460008282546106eb9190610cd3565b9250508190555080600360008282546107049190610cec565b909155505050565b6005818154811061071c57600080fd5b600091825260209091206003909102018054600182015460029092015490925083565b6006818154811061074f57600080fd5b6000918252602090912001546001600160a01b0381169150600160a01b900461ffff1682565b6001546001600160a01b031633146107c05760405162461bcd60e51b815260206004820152600e60248201526d4e6f74205461736b457363726f7760901b60448201526064016102f9565b600754600090612710906107d89061ffff1686610dac565b6107e29190610dc3565b600754909150600090612710906108039062010000900461ffff1687610dac565b61080d9190610dc3565b9050811561088b5781600460008282546108279190610cec565b909155505060408051606081019091528281526005906020810161084e4362034bc0610cec565b8152602090810187905282546001818101855560009485529382902083516003909202019081559082015192810192909255604001516002909101555b80156108a95780600360008282546108a39190610cec565b90915550505b60005b60065481101561090e576000612710600683815481106108ce576108ce610cff565b6000918252602090912001546108ef90600160a01b900461ffff1689610dac565b6108f99190610dc3565b5081905061090681610d39565b9150506108ac565b506040805185815260208101879052908101839052606081018290527fbcfa5b81e5dfeb9cca18ff55beeefe4f9f70bcc7c4d07a1f0bb68b51b9ba9f22906080016105af565b60075460068054604080516020808402820181019092528281526060946000948594909361ffff80841694620100009094041692918591879084015b828210156109da57600084815260209081902060408051808201909152908401546001600160a01b0381168252600160a01b900461ffff1681830152825260019092019101610990565b505050509250925092509250909192565b600754640100000000900460ff1615610a355760405162461bcd60e51b815260206004820152600c60248201526b105b1c9958591e481a5b9a5d60a21b60448201526064016102f9565b600080546001600160a01b03199081166001600160a01b0395861617909155600180548216938516939093179092556002805490921692169190911790556007805464ffffffffff19166401138807d0179055565b5080546000825590600052602060002090810190610aa89190610aab565b50565b5b80821115610aca5780546001600160b01b0319168155600101610aac565b5090565b6001600160a01b0381168114610aa857600080fd5b60008060408385031215610af657600080fd5b823591506020830135610b0881610ace565b809150509250929050565b61ffff81168114610aa857600080fd5b60008060008060608587031215610b3957600080fd5b843567ffffffffffffffff80821115610b5157600080fd5b818701915087601f830112610b6557600080fd5b813581811115610b7457600080fd5b8860208260061b8501011115610b8957600080fd5b60209283019650945050850135610b9f81610b13565b91506040850135610baf81610b13565b939692955090935050565b600060208284031215610bcc57600080fd5b5035919050565b600080600060608486031215610be857600080fd5b83359250602084013591506040840135610c0181610ace565b809150509250925092565b606080825284519082018190526000906020906080840190828801845b82811015610c5d57815180516001600160a01b0316855285015161ffff168585015260409093019290840190600101610c29565b50505061ffff958616918401919091529290931660409091015292915050565b600080600060608486031215610c9257600080fd5b8335610c9d81610ace565b92506020840135610cad81610ace565b91506040840135610c0181610ace565b634e487b7160e01b600052601160045260246000fd5b81810381811115610ce657610ce6610cbd565b92915050565b80820180821115610ce657610ce6610cbd565b634e487b7160e01b600052603260045260246000fd5b600060208284031215610d2757600080fd5b8135610d3281610b13565b9392505050565b600060018201610d4b57610d4b610cbd565b5060010190565b8135610d5d81610ace565b81546001600160a01b031981166001600160a01b039290921691821783556020840135610d8981610b13565b6001600160b01b03199190911690911760a09190911b61ffff60a01b1617905550565b8082028115828204841417610ce657610ce6610cbd565b600082610de057634e487b7160e01b600052601260045260246000fd5b50049056fea264697066735822122076df4bf7b1e1a8c65162c4e0bc1133af8a28ace4c5b271fb30a6e8dfe23ba19864736f6c63430008140033",
  "linkReferences": {},
  "deployedLinkReferences": {}
}