{
  "_format": "hh-sol-artifact-1",
  "contractName": "VaultWallet",
  "sourceName": "contracts/AgentRegistryAndVault.sol",
  "abi": [
    {
      "inputs": [],
      "stateMutability": "nonpayable",
      "type": "constructor"
    },
    {
      "anonymous": false,
      "inputs": [
        {
          "indexed": false,
          "internalType": "bytes32",
          "name": "taskId",
          "type": "bytes32"
        },
        {
          "indexed": false,
          "internalType": "uint256",
          "name": "totalAmount",
          "type": "uint256"
        },
        {
          "indexed": false,
          "internalType": "uint256",
          "name": "lockAmount",
          "type": "uint256"
        },
        {
          "indexed": false,
          "internalType": "uint256",
          "name": "holdAmount",
          "type": "uint256"
        }
      ],
      "name": "PaymentProcessed",
      "type": "event"
    },
    {
      "anonymous": false,
      "inputs": [
        {
          "indexed": false,
          "internalType": "address",
          "name": "vault",
          "type": "address"
        },
        {
          "indexed": false,
          "internalType": "uint16",
          "name": "lockBps",
          "type": "uint16"
        },
        {
          "indexed": false,
          "internalType": "uint16",
          "name": "holdBps",
          "type": "uint16"
        }
      ],
      "name": "RoutingUpdated",
      "type": "event"
    },
    {
      "anonymous": false,
      "inputs": [
        {
          "indexed": false,
          "internalType": "address",
          "name": "vault",
          "type": "address"
        },
        {
          "indexed": false,
          "internalType": "address",
          "name": "recipient",
          "type": "address"
        },
        {
          "indexed": false,
          "internalType": "uint256",
          "name": "amount",
          "type": "uint256"
        }
      ],
      "name": "Withdrawal",
      "type": "event"
    },
    {
      "inputs": [],
      "name": "availableBalance",
      "outputs": [
        {
          "internalType": "uint256",
          "name": "",
          "type": "uint256"
        }
      ],
      "stateMutability": "view",
      "type": "function"
    },
    {
      "inputs": [],
      "name": "claimUnlocked",
      "outputs": [],
      "stateMutability": "nonpayable",
      "type": "function"
    },
    {
      "inputs": [],
      "name": "currency",
      "outputs": [
        {
          "internalType": "address",
          "name": "",
          "type": "address"
        }
      ],
      "stateMutability": "view",
      "type": "function"
    },
    {
      "inputs": [],
      "name": "currentHoldBps",
      "outputs": [
        {
          "internalType": "uint16",
          "name": "",
          "type": "uint16"
        }
      ],
      "stateMutability": "view",
      "type": "function"
    },
    {
      "inputs": [],
      "name": "currentLockBps",
      "outputs": [
        {
          "internalType": "uint16",
          "name": "",
          "type": "uint16"
        }
      ],
      "stateMutability": "view",
      "type": "function"
    },
    {
      "inputs": [
        {
          "internalType": "uint256",
          "name": "",
          "type": "uint256"
        }
      ],
      "name": "currentSplits",
      "outputs": [
        {
          "internalType": "address",
          "name": "recipient",
          "type": "address"
        },
        {
          "internalType": "uint16",
          "name": "bps",
          "type": "uint16"
        }
      ],
      "stateMutability": "view",
      "type": "function"
    },
    {
      "inputs": [],
      "name": "getBalance",
      "outputs": [
        {
          "internalType": "uint256",
          "name": "available",
          "type": "uint256"
        },
        {
          "internalType": "uint256",
          "name": "locked",
          "type": "uint256"
        },
        {
          "internalType": "uint256",
          "name": "total",
          "type": "uint256"
        }
      ],
      "stateMutability": "view",
      "type": "function"
    },
    {
      "inputs": [
        {
          "internalType": "address",
          "name": "_owner",
          "type": "address"
        },
        {
          "internalType": "address",
          "name": "_taskEscrow",
          "type": "address"
        },
        {
          "internalType": "address",
          "name": "_currency",
          "type": "address"
        }
      ],
      "name": "initialize",
      "outputs": [],
      "stateMutability": "nonpayable",
      "type": "function"
    },
    {
      "inputs": [],
      "name": "initialized",
      "outputs": [
        {
          "internalType": "bool",
          "name": "",
          "type": "bool"
        }
      ],
      "stateMutability": "view",
      "type": "function"
    },
    {
      "inputs": [],
      "name": "lockedBalance",
      "outputs": [
        {
          "internalType": "uint256",
          "name": "",
          "type": "uint256"
        }
      ],
      "stateMutability": "view",
      "type": "function"
    },
    {
      "inputs": [],
      "name": "owner",
      "outputs": [
        {
          "internalType": "address",
          "name": "",
          "type": "address"
        }
      ],
      "stateMutability": "view",
      "type": "function"
    },
    {
      "inputs": [
        {
          "internalType": "uint256",
          "name": "amount",
          "type": "uint256"
        },
        {
          "internalType": "bytes32",
          "name": "taskId",
          "type": "bytes32"
        },
        {
          "internalType": "address",
          "name": "",
          "type": "address"
        }
      ],
      "name": "receivePayment",
      "outputs": [],
      "stateMutability": "nonpayable",
      "type": "function"
    },
    {
      "inputs": [
        {
          "components": [
            {
              "internalType": "address",
              "name": "recipient",
              "type": "address"
            },
            {
              "internalType": "uint16",
              "name": "bps",
              "type": "uint16"
            }
          ],
          "internalType": "struct IVaultWallet.SplitRecipient[]",
          "name": "splits",
          "type": "tuple[]"
        },
        {
          "internalType": "uint16",
          "name": "lockBps",
          "type": "uint16"
        },
        {
          "internalType": "uint16",
          "name": "holdBps",
          "type": "uint16"
        }
      ],
      "name": "setRouting",
      "outputs": [],
      "stateMutability": "nonpayable",
      "type": "function"
    },
    {
      "inputs": [],
      "name": "taskEscrow",
      "outputs": [
        {
          "internalType": "address",
          "name": "",
          "type": "address"
        }
      ],
      "stateMutability": "view",
      "type": "function"
    },
    {
      "inputs": [
        {
          "internalType": "uint256",
          "name": "",
          "type": "uint256"
        }
      ],
      "name": "timeLocks",
      "outputs": [
        {
          "internalType": "uint256",
          "name": "amount",
          "type": "uint256"
        },
        {
          "internalType": "uint256",
          "name": "unlockBlock",
          "type": "uint256"
        },
        {
          "internalType": "bytes32",
          "name": "taskId",
          "type": "bytes32"
        }
      ],
      "stateMutability": "view",
      "type": "function"
    },
    {
      "inputs": [
        {
          "internalType": "uint256",
          "name": "amount",
          "type": "uint256"
        },
        {
          "internalType": "address",
          "name": "recipient",
          "type": "address"
        }
      ],
      "name": "withdraw",
      "outputs": [],
      "stateMutability": "nonpayable",
      "type": "function"
    }
  ],
  "bytecode": "0x608060405234801561001057600080fd5b506007805460ff60201b1916640100000000179055610cf1806100346000396000f3fe608060405234801561001057600080fd5b50600436106100ff5760003560e01c80637b80889b1161009757806395858551116100665780639585855114610253578063ab2f0e5114610266578063c0c53b8b1461026f578063e5a6b10f1461028257600080fd5b80637b80889b146101e15780638da5cb5b146101f85780638f2900d51461020b5780638f76464d1461021e57600080fd5b806327c4ffe1116100d357806327c4ffe11461018d5780633892cc3e146101b8578063443e46a2146101cb57806350e49764146101d957600080fd5b8062f714ce146101045780630312df521461011957806312065fe014610145578063158ef93e14610168575b600080fd5b610117610112366004610a2a565b610295565b005b60075461012d9062010000900461ffff1681565b60405161ffff90911681526020015b60405180910390f35b61014d610396565b6040805193845260208401929092529082015260600161013c565b60075461017d90640100000000900460ff1681565b604051901515815260200161013c565b6001546101a0906001600160a01b031681565b6040516001600160a01b03909116815260200161013c565b6101176101c6366004610a6a565b6103bc565b60075461012d9061ffff1681565b61011761059c565b6101ea60045481565b60405190815260200161013c565b6000546101a0906001600160a01b031681565b61014d610219366004610b01565b6106ea565b61023161022c366004610b01565b61071d565b604080516001600160a01b03909316835261ffff90911660208301520161013c565b610117610261366004610b1a565b610753565b6101ea60035481565b61011761027d366004610b53565b610932565b6002546101a0906001600160a01b031681565b6000546001600160a01b031633146102e05760405162461bcd60e51b81526020600482015260096024820152682737ba1037bbb732b960b91b60448201526064015b60405180910390fd5b8160035410156103325760405162461bcd60e51b815260206004820152601e60248201527f496e73756666696369656e7420617661696c61626c652062616c616e6365000060448201526064016102d7565b81600360008282546103449190610ba9565b9091555050604080513081526001600160a01b03831660208201529081018390527f2717ead6b9200dd235aad468c9809ea400fe33ac69b5bfaa6d3e90fc922b63989060600160405180910390a15050565b60008060006003546004546004546003546103b19190610bc2565b925092509250909192565b6000546001600160a01b031633146104025760405162461bcd60e51b81526020600482015260096024820152682737ba1037bbb732b960b91b60448201526064016102d7565b6000805b8481101561045a5785858281811061042057610420610bd5565b90506040020160200160208101906104389190610beb565b6104469061ffff1683610bc2565b91508061045281610c0f565b915050610406565b508161ffff168361ffff16826104709190610bc2565b61047a9190610bc2565b612710146104c25760405162461bcd60e51b81526020600482015260156024820152744d7573742073756d20746f2031303030302042505360581b60448201526064016102d7565b6104ce600660006109d1565b60005b8481101561052e5760068686838181106104ed576104ed610bd5565b835460018101855560009485526020909420604090910292909201929190910190506105198282610c28565b5050808061052690610c0f565b9150506104d1565b506007805461ffff85811663ffffffff19909216821762010000918616918202179092556040805130815260208101929092528101919091527f4c25f8d3ab0b0927c6b76eb8c03caa690e0f6269eaee15b89ea67c71121acaf9906060015b60405180910390a15050505050565b6000805b600554811015610672576000600582815481106105bf576105bf610bd5565b9060005260206000209060030201600001541180156106025750600581815481106105ec576105ec610bd5565b9060005260206000209060030201600101544310155b15610660576005818154811061061a5761061a610bd5565b906000526020600020906003020160000154826106379190610bc2565b915060006005828154811061064e5761064e610bd5565b60009182526020909120600390910201555b8061066a81610c0f565b9150506105a0565b50600081116106b75760405162461bcd60e51b81526020600482015260116024820152704e6f20756e6c6f636b65642066756e647360781b60448201526064016102d7565b80600460008282546106c99190610ba9565b9250508190555080600360008282546106e29190610bc2565b909155505050565b600581815481106106fa57600080fd5b600091825260209091206003909102018054600182015460029092015490925083565b6006818154811061072d57600080fd5b6000918252602090912001546001600160a01b0381169150600160a01b900461ffff1682565b6001546001600160a01b0316331461079e5760405162461bcd60e51b815260206004820152600e60248201526d4e6f74205461736b457363726f7760901b60448201526064016102d7565b600754600090612710906107b69061ffff1686610c82565b6107c09190610c99565b600754909150600090612710906107e19062010000900461ffff1687610c82565b6107eb9190610c99565b905081156108695781600460008282546108059190610bc2565b909155505060408051606081019091528281526005906020810161082c4362034bc0610bc2565b8152602090810187905282546001818101855560009485529382902083516003909202019081559082015192810192909255604001516002909101555b80156108875780600360008282546108819190610bc2565b90915550505b60005b6006548110156108ec576000612710600683815481106108ac576108ac610bd5565b6000918252602090912001546108cd90600160a01b900461ffff1689610c82565b6108d79190610c99565b508190506108e481610c0f565b91505061088a565b506040805185815260208101879052908101839052606081018290527fbcfa5b81e5dfeb9cca18ff55beeefe4f9f70bcc7c4d07a1f0bb68b51b9ba9f229060800161058d565b600754640100000000900460ff161561097c5760405162461bcd60e51b815260206004820152600c60248201526b105b1c9958591e481a5b9a5d60a21b60448201526064016102d7565b600080546001600160a01b03199081166001600160a01b0395861617909155600180548216938516939093179092556002805490921692169190911790556007805464ffffffffff19166401138807d0179055565b50805460008255906000526020600020908101906109ef91906109f2565b50565b5b80821115610a115780546001600160b01b03191681556001016109f3565b5090565b6001600160a01b03811681146109ef57600080fd5b60008060408385031215610a3d57600080fd5b823591506020830135610a4f81610a15565b809150509250929050565b61ffff811681146109ef57600080fd5b60008060008060608587031215610a8057600080fd5b843567ffffffffffffffff80821115610a9857600080fd5b818701915087601f830112610aac57600080fd5b813581811115610abb57600080fd5b8860208260061b8501011115610ad057600080fd5b60209283019650945050850135610ae681610a5a565b91506040850135610af681610a5a565b939692955090935050565b600060208284031215610b1357600080fd5b5035919050565b600080600060608486031215610b2f57600080fd5b83359250602084013591506040840135610b4881610a15565b809150509250925092565b600080600060608486031215610b6857600080fd5b8335610b7381610a15565b92506020840135610b8381610a15565b91506040840135610b4881610a15565b634e487b7160e01b600052601160045260246000fd5b81810381811115610bbc57610bbc610b93565b92915050565b80820180821115610bbc57610bbc610b93565b634e487b7160e01b600052603260045260246000fd5b600060208284031215610bfd57600080fd5b8135610c0881610a5a565b9392505050565b600060018201610c2157610c21610b93565b5060010190565b8135610c3381610a15565b81546001600160a01b031981166001600160a01b039290921691821783556020840135610c5f81610a5a565b6001600160b01b03199190911690911760a09190911b61ffff60a01b1617905550565b8082028115828204841417610bbc57610bbc610b93565b600082610cb657634e487b7160e01b600052601260045260246000fd5b50049056fea2646970667358221220a0fb28b97324de592f674c8a76a8dce221545c71f7ea9380650a4dc4217e6ec864736f6c63430008140033",
  "linkReferences": {},
  "deployedLinkReferences": {}
}