{
  "_format": "hh-sol-artifact-1",
  "contractName": "ReputationBondManager",
  "sourceName": "contracts/ReputationBondManager.sol",
  "abi": [
    {
      "inputs": [
        {
          "internalType": "address",
          "name": "_registry",
          "type": "address"
        }
      ],
      "stateMutability": "nonpayable",
      "type": "constructor"
    },
    {
      "anonymous": false,
      "inputs": [
        {
          "indexed": true,
          "internalType": "address",
          "name": "agentId",
          "type": "address"
        },
        {
          "indexed": false,
          "internalType": "uint256",
          "name": "slashedAmount",
          "type": "uint256"
        },
        {
          "indexed": false,
          "internalType": "bytes32",
          "name": "taskId",
          "type": "bytes32"
        }
      ],
      "name": "BondSlashed",
      "type": "event"
    },
    {
      "inputs": [
        {
          "internalType": "uint256",
          "name": "taskValueUsdc",
          "type": "uint256"
        }
      ],
      "name": "calculateRequiredBond",
      "outputs": [
        {
          "internalType": "uint256",
          "name": "",
          "type": "uint256"
        }
      ],
      "stateMutability": "pure",
      "type": "function"
    },
    {
      "inputs": [],
      "name": "disputeResolver",
      "outputs": [
        {
          "internalType": "address",
          "name": "",
          "type": "address"
        }
      ],
      "stateMutability": "view",
      "type": "function"
    },
    {
      "inputs": [],
      "name": "owner",
      "outputs": [
        {
          "internalType": "address",
          "name": "",
          "type": "address"
        }
      ],
      "stateMutability": "view",
      "type": "function"
    },
    {
      "inputs": [],
      "name": "registry",
      "outputs": [
        {
          "internalType": "contract IAgentRegistry",
          "name": "",
          "type": "address"
        }
      ],
      "stateMutability": "view",
      "type": "function"
    },
    {
      "inputs": [
        {
          "internalType": "address",
          "name": "_disputeResolver",
          "type": "address"
        }
      ],
      "name": "setDisputeResolver",
      "outputs": [],
      "stateMutability": "nonpayable",
      "type": "function"
    },
    {
      "inputs": [
        {
          "internalType": "address",
          "name": "agentId",
          "type": "address"
        },
        {
          "internalType": "uint256",
          "name": "amount",
          "type": "uint256"
        },
        {
          "internalType": "bytes32",
          "name": "taskId",
          "type": "bytes32"
        },
        {
          "internalType": "address",
          "name": "recipient",
          "type": "address"
        }
      ],
      "name": "slashBond",
      "outputs": [],
      "stateMutability": "nonpayable",
      "type": "function"
    },
    {
      "inputs": [
        {
          "internalType": "address",
          "name": "agentId",
          "type": "address"
        },
        {
          "internalType": "uint256",
          "name": "taskValueUsdc",
          "type": "uint256"
        }
      ],
      "name": "verifyBondSufficiency",
      "outputs": [
        {
          "internalType": "bool",
          "name": "",
          "type": "bool"
        }
      ],
      "stateMutability": "view",
      "type": "function"
    }
  ],
  "bytecode": "0x608060405234801561001057600080fd5b506040516106ee3803806106ee83398101604081905261002f91610062565b60008054336001600160a01b031991821617909155600180549091166001600160a01b0392909216919091179055610092565b60006020828403121561007457600080fd5b81516001600160a01b038116811461008b57600080fd5b9392505050565b61064d806100a16000396000f3fe608060405234801561001057600080fd5b506004361061007d5760003560e01c8063924e63f61161005b578063924e63f6146100e6578063b61c139d146100fb578063e051e3a71461011e578063f5a3f4af1461013157600080fd5b80637b1039991461008257806383f0feb9146100b25780638da5cb5b146100d3575b600080fd5b600154610095906001600160a01b031681565b6040516001600160a01b0390911681526020015b60405180910390f35b6100c56100c03660046104ba565b610144565b6040519081526020016100a9565b600054610095906001600160a01b031681565b6100f96100f43660046104eb565b6101b7565b005b61010e61010936600461050f565b610225565b60405190151581526020016100a9565b6100f961012c36600461053b565b61036c565b600254610095906001600160a01b031681565b600068056bc75e2d6310000082101561015f57506000919050565b683635c9adc5dea00000821161018c57606461017c83600a610585565b61018691906105aa565b92915050565b69021e19e0c9bab240000082116101aa57606461017c83600f610585565b606461017c836014610585565b6000546001600160a01b031633146102035760405162461bcd60e51b815260206004820152600a60248201526927b7363c9037bbb732b960b11b60448201526064015b60405180910390fd5b600280546001600160a01b0319166001600160a01b0392909216919091179055565b6001546040516377c4618f60e11b81526001600160a01b038481166004830152600092839291169063ef88c31e90602401602060405180830381865afa158015610273573d6000803e3d6000fd5b505050506040513d601f19601f8201168201806040525081019061029791906105cc565b90506001600160a01b0381166102e65760405162461bcd60e51b815260206004820152601460248201527315985d5b1d08191bd95cc81b9bdd08195e1a5cdd60621b60448201526064016101fa565b60008190506000816001600160a01b03166312065fe06040518163ffffffff1660e01b8152600401606060405180830381865afa15801561032b573d6000803e3d6000fd5b505050506040513d601f19601f8201168201806040525081019061034f91906105e9565b50915050600061035e86610144565b909110159695505050505050565b6002546001600160a01b031633146103bd5760405162461bcd60e51b815260206004820152601460248201527327b7363c902234b9b83aba32a932b9b7b63b32b960611b60448201526064016101fa565b6001546040516377c4618f60e11b81526001600160a01b038681166004830152600092169063ef88c31e90602401602060405180830381865afa158015610408573d6000803e3d6000fd5b505050506040513d601f19601f8201168201806040525081019061042c91906105cc565b90506001600160a01b03811661046f5760405162461bcd60e51b8152602060048201526008602482015267139bc81d985d5b1d60c21b60448201526064016101fa565b60408051858152602081018590526001600160a01b038716917fc09c4f1b6fcab19cb4d5fd2012b30a42a9b6451802b3cfd48c4d7310ecd3eb1c910160405180910390a25050505050565b6000602082840312156104cc57600080fd5b5035919050565b6001600160a01b03811681146104e857600080fd5b50565b6000602082840312156104fd57600080fd5b8135610508816104d3565b9392505050565b6000806040838503121561052257600080fd5b823561052d816104d3565b946020939093013593505050565b6000806000806080858703121561055157600080fd5b843561055c816104d3565b93506020850135925060408501359150606085013561057a816104d3565b939692955090935050565b808202811582820484141761018657634e487b7160e01b600052601160045260246000fd5b6000826105c757634e487b7160e01b600052601260045260246000fd5b500490565b6000602082840312156105de57600080fd5b8151610508816104d3565b6000806000606084860312156105fe57600080fd5b835192506020840151915060408401519050925092509256fea2646970667358221220387dda4f126d2cf233e17e984aed1613380b248324f9bd437abcfe3c82afcf1e64736f6c63430008140033",
  "linkReferences": {},
  "deployedLinkReferences": {}
}