{
  "_format": "hh-sol-artifact-1",
  "contractName": "NegotiationEngine",
  "sourceName": "contracts/NegotiationEngine.sol",
  "abi": [
    {
      "inputs": [
        {
          "internalType": "address",
          "name": "_registry",
          "type": "address"
        }
      ],
      "stateMutability": "nonpayable",
      "type": "constructor"
    },
    {
      "anonymous": false,
      "inputs": [
        {
          "indexed": true,
          "internalType": "bytes32",
          "name": "bidId",
          "type": "bytes32"
        },
        {
          "indexed": false,
          "internalType": "uint256",
          "name": "agreedPrice",
          "type": "uint256"
        },
        {
          "indexed": false,
          "internalType": "bytes32",
          "name": "escrowId",
          "type": "bytes32"
        }
      ],
      "name": "BidAccepted",
      "type": "event"
    },
    {
      "anonymous": false,
      "inputs": [
        {
          "indexed": true,
          "internalType": "bytes32",
          "name": "bidId",
          "type": "bytes32"
        }
      ],
      "name": "BidCancelled",
      "type": "event"
    },
    {
      "anonymous": false,
      "inputs": [
        {
          "indexed": true,
          "internalType": "bytes32",
          "name": "bidId",
          "type": "bytes32"
        },
        {
          "indexed": false,
          "internalType": "address",
          "name": "by",
          "type": "address"
        },
        {
          "indexed": false,
          "internalType": "uint256",
          "name": "newPrice",
          "type": "uint256"
        }
      ],
      "name": "BidCountered",
      "type": "event"
    },
    {
      "anonymous": false,
      "inputs": [
        {
          "indexed": true,
          "internalType": "bytes32",
          "name": "bidId",
          "type": "bytes32"
        },
        {
          "indexed": false,
          "internalType": "address",
          "name": "initiator",
          "type": "address"
        },
        {
          "indexed": false,
          "internalType": "address",
          "name": "targetAgent",
          "type": "address"
        },
        {
          "indexed": false,
          "internalType": "string",
          "name": "taskSpecCID",
          "type": "string"
        },
        {
          "indexed": false,
          "internalType": "uint256",
          "name": "price",
          "type": "uint256"
        },
        {
          "indexed": false,
          "internalType": "uint256",
          "name": "ttl",
          "type": "uint256"
        }
      ],
      "name": "BidSubmitted",
      "type": "event"
    },
    {
      "inputs": [
        {
          "internalType": "bytes32",
          "name": "bidId",
          "type": "bytes32"
        }
      ],
      "name": "acceptBid",
      "outputs": [],
      "stateMutability": "nonpayable",
      "type": "function"
    },
    {
      "inputs": [
        {
          "internalType": "address",
          "name": "",
          "type": "address"
        },
        {
          "internalType": "uint256",
          "name": "",
          "type": "uint256"
        }
      ],
      "name": "agentBids",
      "outputs": [
        {
          "internalType": "bytes32",
          "name": "",
          "type": "bytes32"
        }
      ],
      "stateMutability": "view",
      "type": "function"
    },
    {
      "inputs": [
        {
          "internalType": "uint256",
          "name": "",
          "type": "uint256"
        }
      ],
      "name": "allBidIds",
      "outputs": [
        {
          "internalType": "bytes32",
          "name": "",
          "type": "bytes32"
        }
      ],
      "stateMutability": "view",
      "type": "function"
    },
    {
      "inputs": [
        {
          "internalType": "bytes32",
          "name": "",
          "type": "bytes32"
        }
      ],
      "name": "bids",
      "outputs": [
        {
          "internalType": "bytes32",
          "name": "bidId",
          "type": "bytes32"
        },
        {
          "internalType": "string",
          "name": "taskSpecCID",
          "type": "string"
        },
        {
          "internalType": "address",
          "name": "initiator",
          "type": "address"
        },
        {
          "internalType": "address",
          "name": "targetAgent",
          "type": "address"
        },
        {
          "internalType": "uint256",
          "name": "price",
          "type": "uint256"
        },
        {
          "internalType": "uint256",
          "name": "ttlBlocks",
          "type": "uint256"
        },
        {
          "internalType": "enum INegotiationEngine.BidState",
          "name": "state",
          "type": "uint8"
        },
        {
          "internalType": "uint256",
          "name": "createdAt",
          "type": "uint256"
        }
      ],
      "stateMutability": "view",
      "type": "function"
    },
    {
      "inputs": [
        {
          "internalType": "bytes32",
          "name": "bidId",
          "type": "bytes32"
        }
      ],
      "name": "cancelBid",
      "outputs": [],
      "stateMutability": "nonpayable",
      "type": "function"
    },
    {
      "inputs": [
        {
          "internalType": "bytes32",
          "name": "bidId",
          "type": "bytes32"
        },
        {
          "internalType": "uint256",
          "name": "newPrice",
          "type": "uint256"
        }
      ],
      "name": "counterBid",
      "outputs": [],
      "stateMutability": "nonpayable",
      "type": "function"
    },
    {
      "inputs": [
        {
          "internalType": "address",
          "name": "agent",
          "type": "address"
        }
      ],
      "name": "getAgentBids",
      "outputs": [
        {
          "internalType": "bytes32[]",
          "name": "",
          "type": "bytes32[]"
        }
      ],
      "stateMutability": "view",
      "type": "function"
    },
    {
      "inputs": [],
      "name": "getAllBidIds",
      "outputs": [
        {
          "internalType": "bytes32[]",
          "name": "",
          "type": "bytes32[]"
        }
      ],
      "stateMutability": "view",
      "type": "function"
    },
    {
      "inputs": [
        {
          "internalType": "bytes32",
          "name": "bidId",
          "type": "bytes32"
        }
      ],
      "name": "getBid",
      "outputs": [
        {
          "components": [
            {
              "internalType": "bytes32",
              "name": "bidId",
              "type": "bytes32"
            },
            {
              "internalType": "string",
              "name": "taskSpecCID",
              "type": "string"
            },
            {
              "internalType": "address",
              "name": "initiator",
              "type": "address"
            },
            {
              "internalType": "address",
              "name": "targetAgent",
              "type": "address"
            },
            {
              "internalType": "uint256",
              "name": "price",
              "type": "uint256"
            },
            {
              "internalType": "uint256",
              "name": "ttlBlocks",
              "type": "uint256"
            },
            {
              "internalType": "enum INegotiationEngine.BidState",
              "name": "state",
              "type": "uint8"
            },
            {
              "components": [
                {
                  "internalType": "uint256",
                  "name": "price",
                  "type": "uint256"
                },
                {
                  "internalType": "address",
                  "name": "by",
                  "type": "address"
                },
                {
                  "internalType": "uint256",
                  "name": "at",
                  "type": "uint256"
                }
              ],
              "internalType": "struct INegotiationEngine.CounterBid[]",
              "name": "counterHistory",
              "type": "tuple[]"
            },
            {
              "internalType": "uint256",
              "name": "createdAt",
              "type": "uint256"
            }
          ],
          "internalType": "struct INegotiationEngine.Bid",
          "name": "",
          "type": "tuple"
        }
      ],
      "stateMutability": "view",
      "type": "function"
    },
    {
      "inputs": [],
      "name": "owner",
      "outputs": [
        {
          "internalType": "address",
          "name": "",
          "type": "address"
        }
      ],
      "stateMutability": "view",
      "type": "function"
    },
    {
      "inputs": [],
      "name": "registry",
      "outputs": [
        {
          "internalType": "contract IAgentRegistry",
          "name": "",
          "type": "address"
        }
      ],
      "stateMutability": "view",
      "type": "function"
    },
    {
      "inputs": [
        {
          "internalType": "address",
          "name": "_taskEscrow",
          "type": "address"
        }
      ],
      "name": "setTaskEscrow",
      "outputs": [],
      "stateMutability": "nonpayable",
      "type": "function"
    },
    {
      "inputs": [
        {
          "internalType": "string",
          "name": "taskSpecCID",
          "type": "string"
        },
        {
          "internalType": "address",
          "name": "targetAgent",
          "type": "address"
        },
        {
          "internalType": "uint256",
          "name": "price",
          "type": "uint256"
        },
        {
          "internalType": "uint256",
          "name": "ttlBlocks",
          "type": "uint256"
        }
      ],
      "name": "submitBid",
      "outputs": [
        {
          "internalType": "bytes32",
          "name": "",
          "type": "bytes32"
        }
      ],
      "stateMutability": "nonpayable",
      "type": "function"
    },
    {
      "inputs": [],
      "name": "taskEscrow",
      "outputs": [
        {
          "internalType": "address",
          "name": "",
          "type": "address"
        }
      ],
      "stateMutability": "view",
      "type": "function"
    }
  ],
  "bytecode": "0x608060405234801561001057600080fd5b506040516114aa3803806114aa83398101604081905261002f91610062565b60008054336001600160a01b031991821617909155600280549091166001600160a01b0392909216919091179055610092565b60006020828403121561007457600080fd5b81516001600160a01b038116811461008b57600080fd5b9392505050565b611409806100a16000396000f3fe608060405234801561001057600080fd5b50600436106100ea5760003560e01c80638da5cb5b1161008c578063c55dc86311610066578063c55dc86314610208578063c722026f1461021b578063da87501314610223578063df7cec281461023657600080fd5b80638da5cb5b146101ae5780638f98eeda146101c157806391704e1e146101e857600080fd5b80633641f784116100c85780633641f7841461015557806348d4190a146101755780637b103999146101885780637bb86b0c1461019b57600080fd5b806307613f2d146100ef5780631b6354d61461011557806327c4ffe11461012a575b600080fd5b6101026100fd366004610e29565b610249565b6040519081526020015b60405180910390f35b610128610123366004610e55565b61027a565b005b60015461013d906001600160a01b031681565b6040516001600160a01b03909116815260200161010c565b610168610163366004610e77565b610462565b60405161010c9190610e9b565b610102610183366004610edf565b6104ce565b60025461013d906001600160a01b031681565b6101026101a9366004610f72565b610753565b60005461013d906001600160a01b031681565b6101d46101cf366004610f72565b610774565b60405161010c989796959493929190611009565b6101fb6101f6366004610f72565b610850565b60405161010c91906110c6565b610128610216366004610f72565b610a55565b610168610c4e565b610128610231366004610e77565b610ca6565b610128610244366004610f72565b610d0f565b6005602052816000526040600020818154811061026557600080fd5b90600052602060002001600091509150505481565b600082815260036020526040812090600682015460ff1660048111156102a2576102a2610fd1565b14806102c657506001600682015460ff1660048111156102c4576102c4610fd1565b145b6102eb5760405162461bcd60e51b81526004016102e290611175565b60405180910390fd5b806005015443111561032d5760405162461bcd60e51b815260206004820152600b60248201526a109a5908195e1c1a5c995960aa1b60448201526064016102e2565b60028101546001600160a01b0316331480610354575060038101546001600160a01b031633145b61038f5760405162461bcd60e51b815260206004820152600c60248201526b155b985d5d1a1bdc9a5e995960a21b60448201526064016102e2565b6004810182905560068101805460ff191660011790556103b24362015180611197565b600582015560408051606081018252838152336020808301828152428486019081526007870180546001808201835560009283529185902096516003909102909601958655915191850180546001600160a01b0319166001600160a01b039093169290921790915551600290930192909255825190815290810184905284917fb962a31205277907dcd8c26415e869ed7c783f05c5c68a005bbf199b761ba2d091015b60405180910390a2505050565b6001600160a01b0381166000908152600560209081526040918290208054835181840281018401909452808452606093928301828280156104c257602002820191906000526020600020905b8154815260200190600101908083116104ae575b50505050509050919050565b6002546040516377c4618f60e11b81526001600160a01b038581166004830152600092839291169063ef88c31e90602401602060405180830381865afa15801561051c573d6000803e3d6000fd5b505050506040513d601f19601f8201168201806040525081019061054091906111be565b6001600160a01b03160361058f5760405162461bcd60e51b815260206004820152601660248201527515185c99d95d081859d95b9d081b9bdd08199bdd5b9960521b60448201526064016102e2565b600033858888426040516020016105aa9594939291906111db565b60408051601f198184030181529181528151602092830120600081815260039093529120600201549091506001600160a01b0316156106185760405162461bcd60e51b815260206004820152600a6024820152694269642065786973747360b01b60448201526064016102e2565b600081815260036020526040902081815560018101610638888a836112b8565b50600281018054336001600160a01b0319918216179091556003820180549091166001600160a01b038816179055600481018590556106778443611197565b60058281019190915560068201805460ff191690554260088301556004805460018181019092557f8a35acfbc15ff81a39ae7d344fd709f28e8600b4aa8c65c6b64bfe7fe36bd19b018490556001600160a01b038816600090815260209283526040808220805480850182559083528483200186905533808352818320805494850181558352939091209091018490555183917fcaf89e463e2be7a3d8d609fa676ff18d09de706ac947f4112cfdb94490b9b83e9161074091908a908d908d908c908c90611379565b60405180910390a2509695505050505050565b6004818154811061076357600080fd5b600091825260209091200154905081565b600360205260009081526040902080546001820180549192916107969061122f565b80601f01602080910402602001604051908101604052809291908181526020018280546107c29061122f565b801561080f5780601f106107e45761010080835404028352916020019161080f565b820191906000526020600020905b8154815290600101906020018083116107f257829003601f168201915b5050506002840154600385015460048601546005870154600688015460089098015496976001600160a01b03948516979390941695509093509160ff169088565b6108a0604080516101208101825260008082526060602083018190529282018190529181018290526080810182905260a081018290529060c0820190815260200160608152602001600081525090565b6003600083815260200190815260200160002060405180610120016040529081600082015481526020016001820180546108d99061122f565b80601f01602080910402602001604051908101604052809291908181526020018280546109059061122f565b80156109525780601f1061092757610100808354040283529160200191610952565b820191906000526020600020905b81548152906001019060200180831161093557829003601f168201915b505050918352505060028201546001600160a01b0390811660208301526003830154166040820152600480830154606083015260058301546080830152600683015460a09092019160ff16908111156109ad576109ad610fd1565b60048111156109be576109be610fd1565b815260200160078201805480602002602001604051908101604052809291908181526020016000905b82821015610a3c5760008481526020908190206040805160608101825260038602909201805483526001808201546001600160a01b0316848601526002909101549183019190915290835290920191016109e7565b5050505081526020016008820154815250509050919050565b600081815260036020526040812090600682015460ff166004811115610a7d57610a7d610fd1565b1480610aa157506001600682015460ff166004811115610a9f57610a9f610fd1565b145b610abd5760405162461bcd60e51b81526004016102e290611175565b8060050154431115610aff5760405162461bcd60e51b815260206004820152600b60248201526a109a5908195e1c1a5c995960aa1b60448201526064016102e2565b60028101546001600160a01b0316331480610b26575060038101546001600160a01b031633145b610b615760405162461bcd60e51b815260206004820152600c60248201526b155b985d5d1a1bdc9a5e995960a21b60448201526064016102e2565b60068101805460ff191660021790556040805160208101849052429181019190915260009060600160408051808303601f1901815290829052805160209091012060015460048581015463d1250e7760e01b8552908401879052602484015262278d0060448401529092506001600160a01b03169063d1250e7790606401600060405180830381600087803b158015610bf957600080fd5b505af1158015610c0d573d6000803e3d6000fd5b505050600483015460408051918252602082018490528592507f669df2939176fbaecd8d08dc1b34537648ac33ac0dd98aa9d736cfba19c2eaaa9101610455565b60606004805480602002602001604051908101604052809291908181526020018280548015610c9c57602002820191906000526020600020905b815481526020019060010190808311610c88575b5050505050905090565b6000546001600160a01b03163314610ced5760405162461bcd60e51b815260206004820152600a60248201526927b7363c9037bbb732b960b11b60448201526064016102e2565b600180546001600160a01b0319166001600160a01b0392909216919091179055565b600081815260036020526040812090600682015460ff166004811115610d3757610d37610fd1565b1480610d5b57506001600682015460ff166004811115610d5957610d59610fd1565b145b610d775760405162461bcd60e51b81526004016102e290611175565b60028101546001600160a01b03163314610dd35760405162461bcd60e51b815260206004820152601960248201527f4f6e6c7920696e69746961746f722063616e2063616e63656c0000000000000060448201526064016102e2565b60068101805460ff1916600417905560405182907fb56dc4096011ba5fd2e46e5c3e7b04dec423b5e7b5fce9a17a419d77c832177c90600090a25050565b6001600160a01b0381168114610e2657600080fd5b50565b60008060408385031215610e3c57600080fd5b8235610e4781610e11565b946020939093013593505050565b60008060408385031215610e6857600080fd5b50508035926020909101359150565b600060208284031215610e8957600080fd5b8135610e9481610e11565b9392505050565b6020808252825182820181905260009190848201906040850190845b81811015610ed357835183529284019291840191600101610eb7565b50909695505050505050565b600080600080600060808688031215610ef757600080fd5b853567ffffffffffffffff80821115610f0f57600080fd5b818801915088601f830112610f2357600080fd5b813581811115610f3257600080fd5b896020828501011115610f4457600080fd5b60209283019750955050860135610f5a81610e11565b94979396509394604081013594506060013592915050565b600060208284031215610f8457600080fd5b5035919050565b6000815180845260005b81811015610fb157602081850181015186830182015201610f95565b506000602082860101526020601f19601f83011685010191505092915050565b634e487b7160e01b600052602160045260246000fd5b6005811061100557634e487b7160e01b600052602160045260246000fd5b9052565b60006101008a83528060208401526110238184018b610f8b565b6001600160a01b038a81166040860152891660608501526080840188905260a084018790529150611059905060c0830185610fe7565b8260e08301529998505050505050505050565b600081518084526020808501945080840160005b838110156110bb57815180518852838101516001600160a01b0316848901526040908101519088015260609096019590820190600101611080565b509495945050505050565b6020815281516020820152600060208301516101208060408501526110ef610140850183610f8b565b9150604085015161110b60608601826001600160a01b03169052565b5060608501516001600160a01b038116608086015250608085015160a085015260a085015160c085015260c085015161114760e0860182610fe7565b5060e0850151610100601f198685030181870152611165848361106c565b9601519190940152509192915050565b6020808252600890820152672737ba1037b832b760c11b604082015260600190565b808201808211156111b857634e487b7160e01b600052601160045260246000fd5b92915050565b6000602082840312156111d057600080fd5b8151610e9481610e11565b60006bffffffffffffffffffffffff19808860601b168352808760601b16601484015250838560288401375060289201918201526048019392505050565b634e487b7160e01b600052604160045260246000fd5b600181811c9082168061124357607f821691505b60208210810361126357634e487b7160e01b600052602260045260246000fd5b50919050565b601f8211156112b357600081815260208120601f850160051c810160208610156112905750805b601f850160051c820191505b818110156112af5782815560010161129c565b5050505b505050565b67ffffffffffffffff8311156112d0576112d0611219565b6112e4836112de835461122f565b83611269565b6000601f84116001811461131857600085156113005750838201355b600019600387901b1c1916600186901b178355611372565b600083815260209020601f19861690835b828110156113495786850135825560209485019460019092019101611329565b50868210156113665760001960f88860031b161c19848701351681555b505060018560011b0183555b5050505050565b6001600160a01b0387811682528616602082015260a06040820181905281018490526000848660c0840137600060c0868401015260c0601f19601f870116830101905083606083015282608083015297965050505050505056fea2646970667358221220106e8d159e0c65c0841bea5aa8dff7fce8d66ed322b04dbe5228116e5a8cd26464736f6c63430008140033",
  "linkReferences": {},
  "deployedLinkReferences": {}
}