{
  "_format": "hh-sol-artifact-1",
  "contractName": "DisputeResolver",
  "sourceName": "contracts/DisputeResolver.sol",
  "abi": [
    {
      "inputs": [
        {
          "internalType": "address",
          "name": "_registry",
          "type": "address"
        }
      ],
      "stateMutability": "nonpayable",
      "type": "constructor"
    },
    {
      "anonymous": false,
      "inputs": [
        {
          "indexed": true,
          "internalType": "bytes32",
          "name": "disputeId",
          "type": "bytes32"
        },
        {
          "indexed": false,
          "internalType": "address",
          "name": "arbitrator",
          "type": "address"
        },
        {
          "indexed": false,
          "internalType": "enum DisputeResolver.Resolution",
          "name": "resolution",
          "type": "uint8"
        }
      ],
      "name": "ArbitratorVoted",
      "type": "event"
    },
    {
      "anonymous": false,
      "inputs": [
        {
          "indexed": true,
          "internalType": "bytes32",
          "name": "disputeId",
          "type": "bytes32"
        },
        {
          "indexed": true,
          "internalType": "bytes32",
          "name": "escrowId",
          "type": "bytes32"
        },
        {
          "indexed": false,
          "internalType": "address",
          "name": "claimant",
          "type": "address"
        }
      ],
      "name": "DisputeCreated",
      "type": "event"
    },
    {
      "anonymous": false,
      "inputs": [
        {
          "indexed": true,
          "internalType": "bytes32",
          "name": "disputeId",
          "type": "bytes32"
        },
        {
          "indexed": false,
          "internalType": "enum DisputeResolver.Resolution",
          "name": "finalResolution",
          "type": "uint8"
        }
      ],
      "name": "DisputeResolved",
      "type": "event"
    },
    {
      "anonymous": false,
      "inputs": [
        {
          "indexed": true,
          "internalType": "bytes32",
          "name": "disputeId",
          "type": "bytes32"
        },
        {
          "indexed": false,
          "internalType": "address",
          "name": "by",
          "type": "address"
        },
        {
          "indexed": false,
          "internalType": "string",
          "name": "evidenceCID",
          "type": "string"
        }
      ],
      "name": "EvidenceSubmitted",
      "type": "event"
    },
    {
      "inputs": [
        {
          "internalType": "bytes32",
          "name": "disputeId",
          "type": "bytes32"
        },
        {
          "internalType": "address[]",
          "name": "arbitratorsList",
          "type": "address[]"
        }
      ],
      "name": "assignArbitrators",
      "outputs": [],
      "stateMutability": "nonpayable",
      "type": "function"
    },
    {
      "inputs": [
        {
          "internalType": "bytes32",
          "name": "",
          "type": "bytes32"
        }
      ],
      "name": "disputes",
      "outputs": [
        {
          "internalType": "bytes32",
          "name": "disputeId",
          "type": "bytes32"
        },
        {
          "internalType": "bytes32",
          "name": "escrowId",
          "type": "bytes32"
        },
        {
          "internalType": "address",
          "name": "claimant",
          "type": "address"
        },
        {
          "internalType": "address",
          "name": "respondent",
          "type": "address"
        },
        {
          "internalType": "enum DisputeResolver.Resolution",
          "name": "finalResolution",
          "type": "uint8"
        },
        {
          "internalType": "enum DisputeResolver.DisputeState",
          "name": "state",
          "type": "uint8"
        },
        {
          "internalType": "uint256",
          "name": "voteDeadlineBlock",
          "type": "uint256"
        }
      ],
      "stateMutability": "view",
      "type": "function"
    },
    {
      "inputs": [
        {
          "internalType": "bytes32",
          "name": "disputeId",
          "type": "bytes32"
        }
      ],
      "name": "finalizeResolution",
      "outputs": [],
      "stateMutability": "nonpayable",
      "type": "function"
    },
    {
      "inputs": [
        {
          "internalType": "bytes32",
          "name": "escrowId",
          "type": "bytes32"
        },
        {
          "internalType": "string",
          "name": "evidenceCID",
          "type": "string"
        },
        {
          "internalType": "address",
          "name": "respondent",
          "type": "address"
        }
      ],
      "name": "openDispute",
      "outputs": [
        {
          "internalType": "bytes32",
          "name": "",
          "type": "bytes32"
        }
      ],
      "stateMutability": "nonpayable",
      "type": "function"
    },
    {
      "inputs": [],
      "name": "owner",
      "outputs": [
        {
          "internalType": "address",
          "name": "",
          "type": "address"
        }
      ],
      "stateMutability": "view",
      "type": "function"
    },
    {
      "inputs": [],
      "name": "registry",
      "outputs": [
        {
          "internalType": "contract IAgentRegistry",
          "name": "",
          "type": "address"
        }
      ],
      "stateMutability": "view",
      "type": "function"
    },
    {
      "inputs": [
        {
          "internalType": "address",
          "name": "_taskEscrow",
          "type": "address"
        }
      ],
      "name": "setTaskEscrow",
      "outputs": [],
      "stateMutability": "nonpayable",
      "type": "function"
    },
    {
      "inputs": [
        {
          "internalType": "bytes32",
          "name": "disputeId",
          "type": "bytes32"
        },
        {
          "internalType": "string",
          "name": "evidenceCID",
          "type": "string"
        }
      ],
      "name": "submitEvidence",
      "outputs": [],
      "stateMutability": "nonpayable",
      "type": "function"
    },
    {
      "inputs": [],
      "name": "taskEscrow",
      "outputs": [
        {
          "internalType": "address",
          "name": "",
          "type": "address"
        }
      ],
      "stateMutability": "view",
      "type": "function"
    },
    {
      "inputs": [
        {
          "internalType": "bytes32",
          "name": "disputeId",
          "type": "bytes32"
        },
        {
          "internalType": "enum DisputeResolver.Resolution",
          "name": "resolution",
          "type": "uint8"
        }
      ],
      "name": "voteResolution",
      "outputs": [],
      "stateMutability": "nonpayable",
      "type": "function"
    }
  ],
  "bytecode": "0x608060405234801561001057600080fd5b506040516110d03803806110d083398101604081905261002f91610062565b60008054336001600160a01b031991821617909155600280549091166001600160a01b0392909216919091179055610092565b60006020828403121561007457600080fd5b81516001600160a01b038116811461008b57600080fd5b9392505050565b61102f806100a16000396000f3fe608060405234801561001057600080fd5b506004361061009e5760003560e01c80638da5cb5b116100665780638da5cb5b14610192578063da875013146101a5578063ea685565146101b8578063f48a0b31146101cb578063f96061dc146101de57600080fd5b806311be1997146100a357806327c4ffe11461011e5780634546ac3b14610149578063560e0bbd1461016a5780637b1039991461017f575b600080fd5b6101026100b1366004610b52565b6003602081905260009182526040909120805460018201546002830154938301546007840154600890940154929491936001600160a01b0392831693929091169160ff808316926101009004169087565b6040516101159796959493929190610b95565b60405180910390f35b600154610131906001600160a01b031681565b6040516001600160a01b039091168152602001610115565b61015c610157366004610c51565b6101f1565b604051908152602001610115565b61017d610178366004610caf565b610348565b005b600254610131906001600160a01b031681565b600054610131906001600160a01b031681565b61017d6101b3366004610d2e565b61041e565b61017d6101c6366004610b52565b610487565b61017d6101d9366004610d50565b610780565b61017d6101ec366004610d9c565b6108bb565b6001546000906001600160a01b031633146102455760405162461bcd60e51b815260206004820152600f60248201526e4f6e6c79205461736b457363726f7760881b60448201526064015b60405180910390fd5b60008542604051602001610263929190918252602082015260400190565b60408051808303601f19018152918152815160209283012060008181526003938490529190912081815560018101899055600281018054336001600160a01b03199182161790915592810180549093166001600160a01b0387161790925560078201805461ff00191661010017905591506102df4360f0610de6565b60088201556004810180546001810182556000918252602090912001610306868883610e9e565b50604051338152879083907fa9af648f2ead9f270721a0fc17ef4605b58f84fd530ace72198ae48efda9f16d9060200160405180910390a35095945050505050565b6000546001600160a01b0316331461038f5760405162461bcd60e51b815260206004820152600a60248201526927b7363c9037bbb732b960b11b604482015260640161023c565b600083815260036020526040902060016007820154610100900460ff1660048111156103bd576103bd610b6b565b146103fa5760405162461bcd60e51b815260206004820152600d60248201526c496e76616c696420737461746560981b604482015260640161023c565b610408600582018484610ada565b50600701805461ff001916610200179055505050565b6000546001600160a01b031633146104655760405162461bcd60e51b815260206004820152600a60248201526927b7363c9037bbb732b960b11b604482015260640161023c565b600180546001600160a01b0319166001600160a01b0392909216919091179055565b600081815260036020526040902060026007820154610100900460ff1660048111156104b5576104b5610b6b565b146104f85760405162461bcd60e51b81526020600482015260136024820152724e6f7420696e20766f74696e6720706861736560681b604482015260640161023c565b8060080154431161054b5760405162461bcd60e51b815260206004820152601760248201527f566f74696e67206e6f74207965742066696e6973686564000000000000000000604482015260640161023c565b6000806000805b600585015481101561063557600085600601600087600501848154811061057b5761057b610f5f565b60009182526020808320909101546001600160a01b0316835282019290925260400190205460ff16905060018160038111156105b9576105b9610b6b565b036105d057846105c881610f75565b955050610622565b60028160038111156105e4576105e4610b6b565b036105fb57836105f381610f75565b945050610622565b600381600381111561060f5761060f610b6b565b03610622578261061e81610f75565b9350505b508061062d81610f75565b915050610552565b50818311801561064457508083115b15610664576007840180546001919060ff191682805b021790555061069d565b828211801561067257508082115b1561068d576007840180546002919060ff191660018361065a565b60078401805460ff191660031790555b60078401805461030061ff001982161790915560018054908601546001600160a01b039091169163b641237c919060ff1660038111156106df576106df610b6b565b6040516001600160e01b031960e085901b168152600481019290925260ff166024820152604401600060405180830381600087803b15801561072057600080fd5b505af1158015610734573d6000803e3d6000fd5b50505050600784015460405186917f0a168b993fc74606982b54f62facd64a9642fc31797b78c5b503b4116f3c8388916107719160ff1690610f8e565b60405180910390a25050505050565b600083815260036020526040902060016007820154610100900460ff1660048111156107ae576107ae610b6b565b146107f45760405162461bcd60e51b81526020600482015260166024820152754e6f7420676174686572696e672065766964656e636560501b604482015260640161023c565b60028101546001600160a01b031633148061081b575060038101546001600160a01b031633145b6108565760405162461bcd60e51b815260206004820152600c60248201526b139bdd081a5b9d9bdb1d995960a21b604482015260640161023c565b6004810180546001810182556000918252602090912001610878838583610e9e565b50837f1e6474820c020bb520fb11114c39535d390708f81e19f7661698a4686193447a3385856040516108ad93929190610f9c565b60405180910390a250505050565b600082815260036020526040902060026007820154610100900460ff1660048111156108e9576108e9610b6b565b146109295760405162461bcd60e51b815260206004820152601060248201526f4e6f7420766f74696e6720506861736560801b604482015260640161023c565b806008015443111561096c5760405162461bcd60e51b815260206004820152600c60248201526b159bdd1a5b99c8195b99195960a21b604482015260640161023c565b6000805b60058301548110156109d057336001600160a01b031683600501828154811061099b5761099b610f5f565b6000918252602090912001546001600160a01b0316036109be57600191506109d0565b806109c881610f75565b915050610970565b5080610a125760405162461bcd60e51b81526020600482015260116024820152702737ba1030b71030b93134ba3930ba37b960791b604482015260640161023c565b33600090815260068301602052604081205460ff166003811115610a3857610a38610b6b565b14610a755760405162461bcd60e51b815260206004820152600d60248201526c105b1c9958591e481d9bdd1959609a1b604482015260640161023c565b3360009081526006830160205260409020805484919060ff19166001836003811115610aa357610aa3610b6b565b0217905550837fa12977bd8466586feb0196546076091faa7704bbf3f4ee5bb32a8222805bed7b33856040516108ad929190610fdc565b828054828255906000526020600020908101928215610b2d579160200282015b82811115610b2d5781546001600160a01b0319166001600160a01b03843516178255602090920191600190910190610afa565b50610b39929150610b3d565b5090565b5b80821115610b395760008155600101610b3e565b600060208284031215610b6457600080fd5b5035919050565b634e487b7160e01b600052602160045260246000fd5b60048110610b9157610b91610b6b565b9052565b878152602081018790526001600160a01b0386811660408301528516606082015260e08101610bc76080830186610b81565b60058410610bd757610bd7610b6b565b60a082019390935260c0015295945050505050565b60008083601f840112610bfe57600080fd5b50813567ffffffffffffffff811115610c1657600080fd5b602083019150836020828501011115610c2e57600080fd5b9250929050565b80356001600160a01b0381168114610c4c57600080fd5b919050565b60008060008060608587031215610c6757600080fd5b84359350602085013567ffffffffffffffff811115610c8557600080fd5b610c9187828801610bec565b9094509250610ca4905060408601610c35565b905092959194509250565b600080600060408486031215610cc457600080fd5b83359250602084013567ffffffffffffffff80821115610ce357600080fd5b818601915086601f830112610cf757600080fd5b813581811115610d0657600080fd5b8760208260051b8501011115610d1b57600080fd5b6020830194508093505050509250925092565b600060208284031215610d4057600080fd5b610d4982610c35565b9392505050565b600080600060408486031215610d6557600080fd5b83359250602084013567ffffffffffffffff811115610d8357600080fd5b610d8f86828701610bec565b9497909650939450505050565b60008060408385031215610daf57600080fd5b82359150602083013560048110610dc557600080fd5b809150509250929050565b634e487b7160e01b600052601160045260246000fd5b80820180821115610df957610df9610dd0565b92915050565b634e487b7160e01b600052604160045260246000fd5b600181811c90821680610e2957607f821691505b602082108103610e4957634e487b7160e01b600052602260045260246000fd5b50919050565b601f821115610e9957600081815260208120601f850160051c81016020861015610e765750805b601f850160051c820191505b81811015610e9557828155600101610e82565b5050505b505050565b67ffffffffffffffff831115610eb657610eb6610dff565b610eca83610ec48354610e15565b83610e4f565b6000601f841160018114610efe5760008515610ee65750838201355b600019600387901b1c1916600186901b178355610f58565b600083815260209020601f19861690835b82811015610f2f5786850135825560209485019460019092019101610f0f565b5086821015610f4c5760001960f88860031b161c19848701351681555b505060018560011b0183555b5050505050565b634e487b7160e01b600052603260045260246000fd5b600060018201610f8757610f87610dd0565b5060010190565b60208101610df98284610b81565b6001600160a01b03841681526040602082018190528101829052818360608301376000818301606090810191909152601f909201601f1916010192915050565b6001600160a01b038316815260408101610d496020830184610b8156fea26469706673582212207f627d30a69edabf968fd345287d6ec41e8aabc12c324e655d12468b6f63d60f64736f6c63430008140033",
  "linkReferences": {},
  "deployedLinkReferences": {}
}